:100000000C945C000C9479000C9479000C947900A9
:100010000C9479000C9479000C9479000C9479007C
:100020000C9479000C9479000C9479000C9479006C
:100030000C9479000C9479000C9479000C9479005C
:100040000C94E9010C9479000C9479000C947900DB
:100050000C9479000C9479000C9479000C9479003C
:100060000C9479000C947900000000080002010053
:100070000003040700000000000000000000000072
:10008000250028002B0000000000240027002A0083
:10009000040404040404040402020202020203032E
:1000A0000303030301020408102040800102040836
:1000B000102001020408102011241FBECFEFD8E049
:1000C000DEBFCDBF11E0A0E0B1E0EEE2F6E002C09D
:1000D00005900D92A832B107D9F721E0A8E2B1E06E
:1000E00001C01D92A133B207E1F70E9433020C94C4
:1000F00015030C94000090E0FC01EC55FF4F249197
:10010000FC01E057FF4F8491882399F090E0880F1D
:10011000991FFC01EA57FF4FA591B491FC01E458E7
:10012000FF4F859194918FB7F894EC91E22BEC936B
:100130008FBF089590E0FC01E859FF4F2491FC0126
:10014000EC55FF4F3491FC01E057FF4FE491EE2353
:1001500009F43CC0222339F1233091F038F42130E6
:10016000A9F0223001F584B58F7D12C0273091F0BF
:100170002830A1F02430B9F4809180008F7D03C035
:10018000809180008F77809380000DC084B58F7739
:1001900084BD09C08091B0008F7703C08091B0000A
:1001A0008F7D8093B000F0E0EE0FFF1FE458FF4F0B
:1001B000A591B4919FB7F894611104C08C913095CA
:1001C000382302C0EC913E2B3C939FBF08958230B0
:1001D000910538F0880F991F880F991F059701978F
:1001E000F1F708953FB7F89480912D0190912E0179
:1001F000A0912F01B091300126B5A89B05C02F3FDB
:1002000019F00196A11DB11D3FBFBA2FA92F982F3C
:100210008827820F911DA11DB11DBC01CD0142E0B7
:10022000660F771F881F991F4A95D1F708958F92FF
:100230009F92AF92BF92CF92DF92EF92FF926B01AB
:100240007C010E94F2004B015C01C114D104E10465
:10025000F104F1F00E94F200DC01CB018819990948
:10026000AA09BB09883E9340A105B10570F321E0BE
:10027000C21AD108E108F10888EE880E83E0981EC2
:10028000A11CB11CC114D104E104F10419F7DDCFA4
:10029000FF90EF90DF90CF90BF90AF909F908F90A6
:1002A0000895EF92FF920F931F93CF93DF932091C6
:1002B000000130910101213B344034F020EB34E067
:1002C0003093010120930001C0E0D0E0813029F09B
:1002D00090E6E92E99E0F92E40C080EBE82E84E00C
:1002E000F82E6091000170910101C7010E94ED029A
:1002F000C617D7070CF042C061E087E00E949A0061
:100300000AE010E08AE290E00E94E7000150110943
:10031000C9F760E087E00E949A000AE010E08AE2F4
:1003200090E00E94E70001501109C9F72196D9CF4A
:1003300084E190E00E94E70001501109C9F760E0F4
:1003400087E00E949A000AE010E084E190E00E94B9
:10035000E70001501109C9F72196609100017091E1
:100360000101C7010E94ED02C617D7073CF461E006
:1003700087E00E949A000AE010E0DACFDF91CF9187
:100380001F910F91FF90EF9008950F931F93CF93BC
:10039000DF93C0E0D0E0082F10E0C8010C2E02C0AF
:1003A000959587950A94E2F780FD06C08091020139
:1003B00080958093020102C0809102010E94510148
:1003C0002196C830D10549F7DF91CF911F910F9148
:1003D00008951F920F920FB60F9211242F933F93FF
:1003E0008F939F93AF93BF938091290190912A019E
:1003F000A0912B01B0912C013091280123E0230F13
:100400002D3720F40196A11DB11D05C026E8230F4C
:100410000296A11DB11D209328018093290190937C
:100420002A01A0932B01B0932C0180912D01909172
:100430002E01A0912F01B09130010196A11DB11D97
:1004400080932D0190932E01A0932F01B093300142
:10045000BF91AF919F918F913F912F910F900FBEC0
:100460000F901F901895789484B5826084BD84B5F0
:10047000816084BD85B5826085BD85B5816085BD9F
:1004800080916E00816080936E0010928100809157
:1004900081008260809381008091810081608093DF
:1004A0008100809180008160809380008091B10004
:1004B00084608093B1008091B00081608093B0002F
:1004C00080917A00846080937A0080917A008260C3
:1004D00080937A0080917A00816080937A00809185
:1004E0007A00806880937A001092C10087E00E94B1
:1004F0007B008DE00E947B0068EE73E080E090E07E
:100500000E94170101E111E080E0E82E80E0F82E62
:1005100061E08DE00E949A0068EE73E080E090E078
:100520000E941701C4E6D0E080E00E94C501219737
:10053000D9F78EE70E94C5018EE70E94C5018EE7BC
:100540000E94C501C0E2D1E089910E94C50181E00D
:10055000C732D807C9F7C9E1D1E089910E94C50126
:1005600081E0C032D807C9F7C1E1D1E08991880F95
:100570000E94C50181E0C731D807C1F785E60E9416
:10058000C50183E00E94C50180EF0E94C5018EE392
:100590000E94C501C3E0D1E00C171D07D1F48EE71E
:1005A0000E94C5018EE70E94C5018EE70E94C50129
:1005B00060E08DE00E949A0068E873E180E090E0DE
:1005C0000E941701E114F10409F4A2CF0E94000077
:1005D0009FCF89910E94C501DFCF97FB072E16F4AC
:1005E000009407D077FD09D00E94010307FC05D0D5
:1005F0003EF4909581959F4F0895709561957F4F3A
:100600000895AA1BBB1B51E107C0AA1FBB1FA61759
:10061000B70710F0A61BB70B881F991F5A95A9F7AB
:0E06200080959095BC01CD010895F894FFCF10
:10062E00B0040148656C6C6F20576F726C642021AA
:10063E00005749444532203200B28862A688987627
:08064E0082A082A48862600012
:107E0000112484B714BE81FFF0D085E080938100F7
:107E100082E08093C00088E18093C10086E0809377
:107E2000C20080E18093C4008EE0C9D0259A86E02C
:107E300020E33CEF91E0309385002093840096BBD3
:107E4000B09BFECF1D9AA8958150A9F7CC24DD24C4
:107E500088248394B5E0AB2EA1E19A2EF3E0BF2EE7
:107E6000A2D0813461F49FD0082FAFD0023811F036
:107E7000013811F484E001C083E08DD089C08234E0
:107E800011F484E103C0853419F485E0A6D080C0E4
:107E9000853579F488D0E82EFF2485D0082F10E0AE
:107EA000102F00270E291F29000F111F8ED06801E7
:107EB0006FC0863521F484E090D080E0DECF843638
:107EC00009F040C070D06FD0082F6DD080E0C81688
:107ED00080E7D80618F4F601B7BEE895C0E0D1E017
:107EE00062D089930C17E1F7F0E0CF16F0E7DF06D8
:107EF00018F0F601B7BEE89568D007B600FCFDCFD4
:107F0000A601A0E0B1E02C9130E011968C91119780
:107F100090E0982F8827822B932B1296FA010C0160
:107F200087BEE89511244E5F5F4FF1E0A038BF0790
:107F300051F7F601A7BEE89507B600FCFDCF97BE46
:107F4000E89526C08437B1F42ED02DD0F82E2BD052
:107F50003CD0F601EF2C8F010F5F1F4F84911BD097
:107F6000EA94F801C1F70894C11CD11CFA94CF0C13
:107F7000D11C0EC0853739F428D08EE10CD085E9AC
:107F80000AD08FE07ACF813511F488E018D01DD067
:107F900080E101D065CF982F8091C00085FFFCCF94
:107FA0009093C60008958091C00087FFFCCF809118
:107FB000C00084FD01C0A8958091C6000895E0E648
:107FC000F0E098E1908380830895EDDF803219F02E
:107FD00088E0F5DFFFCF84E1DECF1F93182FE3DFCA
:107FE0001150E9F7F2DF1F91089580E0E8DFEE27F6
:047FF000FF270994CA
:027FFE00040479
:0400000300007E007B
:00000001FF
