:100000000C9463000C948B000C948B000C9493065E
:100010000C9493060C9493060C948B000C948B0018
:100020000C948B000C948B000C948B000C948B0024
:100030000C948B000C948B000C948B000C948B0014
:100040000C9427030C948B000C9461060C943B06D3
:100050000C948B000C948B000C948B000C948B00F4
:100060000C948B000C948B000000000024002700EF
:100070002A0000000008000201000003040700003D
:1000800000000000000000000000230026002900FE
:1000900000000000250028002B00040404040404D0
:1000A0000404020202020202030303030303010227
:1000B00004081020408001020408102001020408F6
:1000C0001020630C4D0C11241FBECFEFD8E0DEBF13
:1000D000CDBF13E0A0E0B1E0EEE2F4E202C0059093
:1000E0000D92AC31B107D9F724E0ACE1B3E001C027
:1000F0001D92A23CB207E1F710E0C2E6D0E004C0D6
:100100002197FE010E940810C136D107C9F70E944D
:10011000B90A0C940A120C94000008950895CF9225
:10012000DF92EF92FF920F931F93CF93DF936C01B7
:100130007A018B01C0E0D0E0CE15DF0581F0D80157
:100140006D918D01D601ED91FC910190F081E02D32
:10015000C6010995892B11F02196EECF7E01C701CA
:10016000DF91CF911F910F91FF90EF90DF90CF9093
:100170000895FC01538D448D252F30E0842F90E0AD
:10018000821B930B541710F0CF9608950197089592
:10019000FC01918D828D981761F0828DDF01A80F8F
:1001A000B11D5D968C91928D9F5F9F73928F90E0B1
:1001B00008958FEF9FEF0895FC01918D828D981720
:1001C00031F0828DE80FF11D858D90E008958FEF5D
:1001D0009FEF0895FC01918D228D892F90E0805C26
:1001E0009F4F821B91098F739927089583EE93E0A7
:1001F0000E94EA0021E0892B09F420E0822F089573
:10020000FC01848DDF01A80FB11DA35ABF4F2C91B3
:10021000848D90E001968F739927848FA689B78982
:100220002C93A089B1898C91837080648C93938D79
:10023000848D981306C00288F389E02D80818F7D1C
:1002400080830895EF92FF920F931F93CF93DF93D4
:10025000EC0181E0888F9B8D8C8D981305C0E88917
:10026000F989808185FD26C0F62E0B8D10E00F5F89
:100270001F4F0F731127E02E8C8DE8120CC00FB6A4
:1002800007FCFACFE889F989808185FFF5CFCE0197
:100290000E940001F1CF8B8DFE01E80FF11DE35AA2
:1002A000FF4FF0829FB7F8940B8FEA89FB8980811A
:1002B00080620AC09FB7F894EE89FF896083E8895D
:1002C000F98980818370806480839FBF81E090E0A2
:1002D000DF91CF911F910F91FF90EF900895CF93F1
:1002E000DF93EC01888D8823C9F0EA89FB8980813E
:1002F00085FD05C0A889B9898C9186FD0FC00FB610
:1003000007FCF5CF808185FFF2CFA889B9898C9150
:1003100085FFEDCFCE010E940001E7CFDF91CF91A5
:10032000089580E090E0892B29F00E94F600811169
:100330000C94000008952091E1033091E203281706
:10034000390771F49091DF038091E003981741F031
:10035000E091DF03F0E0E25EFC4F808190E00895E1
:100360008FEF9FEF08951F93CF93DF93DC015C968F
:100370008D919C915D97009739F421E030E01396C0
:100380003C932E9312973BC05196ED91FC9152975E
:1003900050962C915097322F30951FB75E964C9106
:1003A0005E97742F727041FD6095F89440817723B9
:1003B00011F0422B01C043234083EC012197F1F758
:1003C00048E0508160FF02C0522B01C0532350838C
:1003D000EC012197F1F76695415099F780817723D9
:1003E00019F08323808302C0282B20831FBF5C96D3
:1003F0008D919C915D970197F1F781E090E0DF91FD
:10040000CF911F9108952091E1033091E2032817C5
:10041000390771F48091E0032091DF0390E0805C64
:100420009F4F821B910960E470E00E94E00F0895E5
:1004300080E090E008952091E1033091E2032817D5
:100440003907B9F49091DF038091E003981789F0A0
:10045000E091DF03F0E0E25EFC4F80812091DF035A
:1004600030E02F5F3F4F2F7333272093DF0390E05F
:1004700008958FEF9FEF089580E090E008950E9427
:10048000F5116115710579F0FB0101900020E9F784
:100490003197AF01461B570BDC01ED91FC910280B7
:1004A000F381E02D099480E090E008950F931F936D
:1004B000CF93DF93EC010E9441028C0162E572E070
:1004C000CE010E944102800F911FDF91CF911F91B9
:1004D0000F9108950C94410261E08CE00E9486091E
:1004E0008BEC90E00E94740A60E08CE00E94860928
:1004F0008BEC90E00E94740A61E08CE00E94860917
:100500008BEC90E00E94740A60E08CE00E94860907
:100510008BEC90E00C94740A61E08CE00E948609F8
:1005200086E991E00E94740A60E08CE00E948609EE
:1005300086E991E00C94740AEF92FF920F931F9357
:10054000CF93DF93D82FE62E08E010E0FF24F3943A
:100550004D2F41702091200230912102C9019695C2
:100560008795242720FF04C028E0822724E89227CB
:100570009093210280932002C0911D03442381F0B7
:10058000CC2319F00E948C0202C00E946C02809160
:100590001C038F5F80931C03EE2071F0853061F4A3
:1005A000CF25C0931D03CC2319F00E948C0202C0FA
:1005B0000E946C0210921C03D6950150110941F65D
:1005C000DF91CF911F910F91FF90EF900895EF92DF
:1005D000FF920F931F93CF93DF938C017B01EC016C
:1005E000CE01801B910B8E159F052CF461E0899143
:1005F0000E949C02F5CFDF91CF911F910F91FF9048
:10060000EF9008953FB7F8948091D7039091D80365
:10061000A091D903B091DA0326B5A89B05C02F3F5E
:1006200019F00196A11DB11D3FBFBA2FA92F982F18
:100630008827820F911DA11DB11DBC01CD0142E093
:10064000660F771F881F991F4A95D1F708951F924B
:100650000F920FB60F9211242F933F938F939F9376
:10066000AF93BF938091DB039091DC03A091DD03F6
:10067000B091DE033091D60323E0230F2D3720F411
:100680000196A11DB11D05C026E8230F0296A11DEC
:10069000B11D2093D6038093DB039093DC03A093DA
:1006A000DD03B093DE038091D7039091D803A0912E
:1006B000D903B091DA030196A11DB11D8093D70330
:1006C0009093D803A093D903B093DA03BF91AF916D
:1006D0009F918F913F912F910F900FBE0F901F9080
:1006E00018950F931F93CF93DF93EC018881998125
:1006F000009729F02A813B812617370788F48B0160
:100700006F5F7F4F0E942F11009761F0998388835C
:100710001B830A832C813D81232B11F4FC01108261
:1007200081E001C080E0DF91CF911F910F9108958A
:100730008F929F92AF92BF92EF92FF920F931F936F
:10074000CF93DF93CDB7DEB7A1970FB6F894DEBF96
:100750000FBECDBF7C01FA01CB0119A2223008F4F3
:100760002AE08E010F5D1F4F822E912CA12CB12CFF
:10077000BF01A50194010E94A10EF901CA01015017
:1007800011096A3014F4605D01C0695CD8016C9392
:10079000232B242B252B61F7B801C7010E944102AE
:1007A000A1960FB6F894DEBF0FBECDBFDF91CF91FB
:1007B0001F910F91FF90EF90BF90AF909F908F90FF
:1007C0000895DC01ED91FC910190F081E02D0994F8
:1007D000EF92FF920F931F93CF93DF93D82F0E9436
:1007E000890768E071E083EE93E00E946A026DE29F
:1007F00083EE93E00E94E10381E090E00E945209C1
:100800006EE383EE93E00E94E103D53019F468E1D2
:1008100071E002C060E171E083EE93E00E946A0241
:100820006CE283EE93E00E94E10360E071E083EE0E
:1008300093E00E946A026DE283EE93E00E94E1037E
:1008400082E090E00E9452096AE383EE93E00E9406
:10085000E103D13041F464E283EE93E00E94E103CE
:1008600061E773E048C0D230E1F461E283EE93E0E7
:100870000E94E10368E673E083EE93E00E946A025F
:1008800064E583EE93E00E94E1036EE573E083EE9E
:1008900093E00E946A0261E683EE93E00E94E10326
:1008A0002EC0D43031F46EE383EE93E00E94E10376
:1008B00020C0D330F1F461E283EE93E00E94E103C3
:1008C00068E673E083EE93E00E946A0264E583EEDB
:1008D00093E00E94E1036EE573E083EE93E00E94F3
:1008E0006A0261E683EE93E00E94E10360E271E058
:1008F00002C060EA71E083EE93E00E946A0260E267
:1009000083EE93E00E94E10362E572E083EE93E000
:100910000E94410283EE93E00E946F0183EE93E018
:100920000E946F01E091F503F091F60380818F7EC4
:100930008083E091F503F091F6038081877F8083C7
:10094000E091F503F091F60380818F778083E09149
:10095000F503F091F60380818F7D80838091FD0304
:100960008093FC0361E08DE00E94860961E087E0EE
:100970000E94860964E670E080E090E00E947F0AB1
:100980000BE410E060E08EE70E949C020150110928
:10099000C9F78FEF9FEF9093210280932002D5300B
:1009A000E1F4E8E1F1E001900020E9F73197E85146
:1009B000F140CE2F08E111E0EE2EEE0FFF08C80146
:1009C000885191408E159F0524F5F80181918F0182
:1009D00061E0880F0E949C02F2CFE0E1F1E001901B
:1009E0000020E9F73197E051F140CE2F00E111E00E
:1009F000EE2EEE0FFF08C801805191408E159F0525
:100A000044F4F80181918F0161E0880F0E949C02FB
:100A1000F2CFC6309CF400E010E086E090E07C016C
:100A2000EC1AF108C7FDF3940E151F053CF461E0C4
:100A300080E40E949C020F5F1F4FF6CF61E080E6CA
:100A40000E949C02E8E0F1E001900020E9F7319774
:100A5000E850F140CE2F08E011E0EE2EEE0FFF0837
:100A6000C801885091408E159F0544F4F80181918A
:100A70008F0161E0880F0E949C02F2CFC63094F48F
:100A800000E010E086E090E09C012E193F0979011A
:100A90000E151F053CF461E080E40E949C020F5F8C
:100AA0001F4FF6CF61E082E60E949C02E0E0F1E099
:100AB00001900020E9F73197E050F140CE2F00E09F
:100AC00011E0EE2EEE0FFF08C801805091408E1508
:100AD0009F0544F4F80181918F0161E0880F0E9425
:100AE0009C02F2CFC63094F400E010E086E090E083
:100AF0009C012E193F0979010E151F053CF461E098
:100B000080E40E949C020F5F1F4FF6CF61E085E6F4
:100B10000E949C0261E083E00E949C0261E080EF01
:100B20000E949C02D13079F461E084E20E949C0230
:100B3000E1E7F3E001900020E9F7BF01635773405C
:100B400081E793E06FC0D23039F561E081E20E9425
:100B50009C02E8E6F3E001900020E9F73197BF013D
:100B60006856734088E693E00E94E70261E084E5FE
:100B70000E949C02EEE5F3E001900020E9F7319736
:100B8000BF016E5573408EE593E00E94E70261E07D
:100B900081E60E949C0248C0D43029F461E08EE3D3
:100BA0000E949C0234C0D33091F561E081E20E9442
:100BB0009C02E8E6F3E001900020E9F73197BF01DD
:100BC0006856734088E693E00E94E70261E084E59E
:100BD0000E949C02EEE5F3E001900020E9F73197D6
:100BE000BF016E5573408EE593E00E94E70261E01D
:100BF00081E60E949C02E0E2F1E001900020E9F72A
:100C00003197BF016052714080E291E00BC0E0EA91
:100C1000F1E001900020E9F73197BF01605A71407F
:100C200080EA91E00E94E70280912002C0912102B7
:100C300061E080950E949C0261E08C2F80950E946B
:100C40009C0260E08EE70E949C0260E08EE70E94BA
:100C50009C0260E08EE70E949C0260E087E00E94B8
:100C6000860960E08DE0DF91CF911F910F91FF9099
:100C7000EF900C9486091F920F920FB60F921124D9
:100C80002F933F934F935F936F937F938F939F9394
:100C9000AF93BF93EF93FF9383EE93E00E94000125
:100CA000FF91EF91BF91AF919F918F917F916F9144
:100CB0005F914F913F912F910F900FBE0F901F901A
:100CC00018951F920F920FB60F9211242F938F93A6
:100CD0009F93EF93FF93E091F303F091F4038081EE
:100CE000E091F903F091FA0382FD12C090818091A6
:100CF000FC038F5F8F732091FD03821751F0E09109
:100D0000FC03F0E0ED51FC4F958F8093FC0301C094
:100D10008081FF91EF919F918F912F910F900FBE46
:100D20000F901F9018951F920F920FB60F921124DB
:100D30002F933F934F935F936F937F938F939F93E3
:100D4000AF93BF93EF93FF93E091E103F091E20340
:100D5000309709F451C0968DA685B785858591FF9A
:100D600004C09C91892329F447C09C91892309F0F0
:100D700043C0A389B4899C918589809589238C93EC
:100D8000868997890197F1F7608D718DA685B78562
:100D9000558538E020E0CB010197F1F7822F90E0F4
:100DA00095958795282F4C91452309F0206831505F
:100DB00091F7868D81FD20958091E00390E001966A
:100DC0008F7399273091DF03381749F0A091E00322
:100DD000B0E0A25EBC4F2C938093E00303C0868DED
:100DE0008160868F828D938D0197F1F7A389B489F5
:100DF0009C918589892B8C93FF91EF91BF91AF9145
:100E00009F918F917F916F915F914F913F912F9122
:100E10000F900FBE0F901F901895E091E103F09195
:100E2000E203E817F90769F4A389B4899C918589DD
:100E3000809589238C931092E2031092E10381E064
:100E4000089580E008952FB7F8948091DB03909186
:100E5000DC03A091DD03B091DE032FBF8093A704D4
:100E60009093A804A093A904B093AA048FE994E0F6
:100E70000E941B0297FF26C02FB7F8948091DB03D6
:100E80009091DC03A091DD03B091DE032FBF409170
:100E9000A7045091A8046091A9047091AA04841B2E
:100EA000950BA60BB70B4091A3045091A40460913D
:100EB000A5047091A60484179507A607B707B0F29A
:100EC0008FEF9FEF08950F931F93CF93DF93EC0164
:100ED0008B010E9471032881398181110DC0211578
:100EE000310519F0C9010E94A610198218821D82CD
:100EF0001C821B821A8207C01D830C8364E572E08A
:100F0000C9010E940312CE01DF91CF911F910F9171
:100F10000895E3EEF3E0A089B18982E08C93A48583
:100F2000B5851C92A685B78580E18C93108EA48927
:100F3000B58986E08C93A289B3898C9180618C936A
:100F4000A289B3898C9188608C93A289B3898C9192
:100F500080688C930288F389E02D80818F7D808367
:100F6000089580E480937C0080917A00806480936F
:100F70007A0080917A0086FDFCCF809178002091E4
:100F8000790090E0922B0895CF93DF93FC01138EAC
:100F9000128E118E108E178A168A8DE991E0958F28
:100FA000848F9485963108F04EC02DEB30E0378B5E
:100FB000268B2BE931E0318F208F2CE231E0338F0B
:100FC000228F30916800983058F021E09E3008F46C
:100FD00020E091E0892F01C0880F2A95EAF701C02F
:100FE00084E0832B809368009485983038F09E309D
:100FF00040F0963148F020E030E008C02DE630E0C7
:1010000005C02BE630E002C02CE630E0348B238BA9
:10101000983030F481E001C0880F9A95EAF70EC04D
:10102000292F30E09E3018F42850310902C02E508C
:10103000310981E001C0880F2A95EAF7858B848DFC
:10104000958D0197F1F7828D938D892BE9F0809131
:10105000E1039091E203E817F907B1F0EF0100977F
:1010600011F00E940D078E8D8E7F8E8F1092E003FF
:101070001092DF03D093E203C093E103EB89FC8974
:1010800090818D89892B8083DF91CF9108958F92F4
:101090009F92AF92BF92CF92DF92EF92FF920F9307
:1010A0001F93CF93182FC0E060E070E080E09FE3D3
:1010B000C11741F020E030E040E251E40E943F0FD0
:1010C000CF5FF6CF27ED33E640E153E40E94D30E25
:1010D0006B017C010E94B10F4B015C012AE0AB0166
:1010E000BC018FE994E00E9498038C01CC23C9F1E4
:1010F000C501B4010E943D0D9B01AC01C701B601C1
:101100000E94D20E6B017C016EE28FE994E00E9496
:10111000E103080F191F20E030E040E251E4C7016D
:10112000B6010E947A0D4B015C010E94B10F6B0168
:10113000E12CF12C2AE0B701A6018FE994E00E948E
:101140009803080F191FC701B6010E943D0D9B01AE
:10115000AC01C501B4010E94D20E6B017C01C150EB
:10116000D1F6C801CF911F910F91FF90EF90DF90C2
:10117000CF90BF90AF909F908F9008950F931F9343
:10118000CF93DF93CDB7DEB72E970FB6F894DEBFBF
:101190000FBECDBF18861F821A8619861C861B8635
:1011A00060E070E0CE0107960E9463078FE994E04B
:1011B0000E94030218161906CCF78FE994E00E94EA
:1011C0000302181619060CF05EC01A8219821C82DE
:1011D0001B821E821D8260E070E0CE0101960E949B
:1011E00063070E94230797FD1BC08D871E860D8114
:1011F0001E810F5F1F4FB801CE0101960E9471033F
:10120000882379F329813A818D819E81BE01635FB4
:101210007F4F820F931F0E9403121E830D83E1CF25
:101220008F8198850097A9F069817A816115710590
:1012300071F049855A852D813E814217530738F058
:101240000E9403128D819E819C878B8710C00E9413
:10125000A61089819A8198878F838B819C819A8738
:1012600089878D819E819C878B871A8219828981CB
:101270009A810E94A6104B855C856F81788583EEEC
:1012800093E00E948F008F8198850E94A6102E9671
:101290000FB6F894DEBF0FBECDBFDF91CF911F9187
:1012A0000F910895CF92DF92EF92FF92CF93DF9349
:1012B0006C01990FEE08FF08F7FE1BC06DE283EE8C
:1012C00093E00E94E103EC0144275527BA014C1931
:1012D0005D096E097F092AE083EE93E00E9498037E
:1012E0008C0F9D1FDF91CF91FF90EF90DF90CF90FB
:1012F00008952AE0B701A60183EE93E0DF91CF9134
:10130000FF90EF90DF90CF900C94980390E0FC0159
:10131000EE58FF4F2491FC01E255FF4F3491FC0140
:10132000E656FF4FE491EE2309F43CC0222339F145
:10133000233091F038F42130A9F0223001F584B542
:101340008F7D12C0273091F02830A1F02430B9F4FD
:10135000809180008F7D03C0809180008F77809383
:1013600080000DC084B58F7784BD09C08091B00026
:101370008F7703C08091B0008F7D8093B000F0E044
:10138000EE0FFF1FE057FF4FA591B4919FB7F89460
:10139000611104C08C913095382302C0EC913E2B32
:1013A0003C939FBF0895CF93DF9390E0FC01E255FB
:1013B000FF4F2491FC01E656FF4F8491882361F191
:1013C00090E0880F991FFC01E859FF4FC591D49117
:1013D000FC01E057FF4FA591B491611109C09FB77F
:1013E000F8948881209582238883EC912E230BC06A
:1013F000623061F49FB7F8948881322F309583234F
:101400008883EC912E2B2C939FBF06C08FB7F89446
:10141000E8812E2B28838FBFDF91CF9108950F9302
:101420001F93CF93DF93EC01162F042F1B821A8298
:1014300088EE93E0A0E0B0E08C839D83AE83BF8311
:1014400082E392E0998388831F8A1E8A198E188E00
:101450001B8E1A8E1D8E1C8E6E8D6E7F6D7F6E8F15
:101460006695617081E06827842F0E94860961E09B
:10147000802F0E94D309802F90E0FC01E255FF4F9E
:10148000E491E88BFC01E656FF4FE491F0E0EE0FAB
:10149000FF1FE057FF4F859194919A8B898B60E0F5
:1014A000812F0E94D3098E8D81FD04C061E0812FC0
:1014B0000E9486091C87812F90E0FC01E255FF4FB6
:1014C000E491ED87FC01E656FF4FE491F0E0EE0F6A
:1014D000FF1FEA57FF4F859194919F878E87DF9179
:1014E000CF911F910F9108958230910538F0880FA8
:1014F000991F880F991F05970197F1F708958F920B
:101500009F92AF92BF92CF92DF92EF92FF926B01C8
:101510007C010E9402034B015C01C114D104E1046F
:10152000F104F1F00E940203DC01CB018819990952
:10153000AA09BB09883E9340A105B10570F321E0DB
:10154000C21AD108E108F10888EE880E83E0981EDF
:10155000A11CB11CC114D104E104F10419F7DDCFC1
:10156000FF90EF90DF90CF90BF90AF909F908F90C3
:101570000895789484B5826084BD84B5816084BD0B
:1015800085B5826085BD85B5816085BD80916E0021
:10159000816080936E001092810080918100826052
:1015A000809381008091810081608093810080918F
:1015B00080008160809380008091B100846080937E
:1015C000B1008091B00081608093B00080917A007A
:1015D000846080937A0080917A00826080937A00A0
:1015E00080917A00816080937A0080917A0080688F
:1015F00080937A001092C10061E08DE00E94D309CF
:1016000061E08CE00E94D30960E08BE00E94D30986
:1016100061E08AE00E94D30961E087E00E94D3097B
:1016200061E086E00E94D30961E085E00E94D30971
:1016300060E087E00E94860961E086E00E948609FA
:1016400060E085E00E9486090E9489078FE994E0A6
:101650000E94C4076EE572E083EE93E00E9456029A
:1016600065E572E083EE93E00E946A0260E672E054
:1016700083EE93E00E94560263EB72E083EE93E008
:101680000E946A026EEB72E083EE93E00E945602C3
:101690006EE572E083EE93E00E9456026AEC72E01F
:1016A00083EE93E00E9456026AEF70E080E090E0E3
:1016B0000E947F0A6FEE72E08FE994E00E9456026A
:1016C0006FEE72E08FE994E00E9456026FEE72E0D6
:1016D0008FE994E00E9456020E94BE0868EE73E013
:1016E00080E090E00E947F0A6DEF72E08FE994E065
:1016F0000E946A0284E00E9447086CE28FE994E04D
:101700000E94E10384E00E9447086FE073E08FE9E4
:1017100094E00E9456020E94BE0860E283EE93E0CD
:101720000E94E10362E572E083EE93E00E944102D1
:101730008FE994E00E940D0780E894E00E94C407BE
:101740000E94B107BC01990F880B990B61157105B7
:101750008105910511F00E94340D85EDE82E83E09E
:10176000F82E9FE6C92E93E0D92E20EA822E2FE094
:10177000922EA12CB12C80E894E00E94C407109214
:10178000D503E1E7F3E01192EE16FF06E1F780E8FA
:1017900094E00E94030218161906CCF780E894E042
:1017A0000E941B02182F843291F7C0E0D0E080E83D
:1017B00094E00E9403021816190654F480E894E09D
:1017C0000E941B02182FFE01EF58FC4F80832196C8
:1017D000C530D10521F480917503833439F41A3072
:1017E00011F4C15004C01D3011F7FBCFC0E0C0930D
:1017F000D50380E894E00E940D07A3E8B3E0E8E693
:10180000F3E08D918193CE16DF06D9F780918E0398
:1018100080936F03A0E9B3E0EEE5F3E08D9181934F
:1018200083E0E636F807D1F780919C038093660346
:1018300080918103813421F4CB303CF082E003C0FD
:10184000CB301CF085E00E94E80360912202709189
:10185000230280E090E00E947F0A0E94B107BC0151
:10186000990F880B990B611571058105910511F090
:101870000E94340D0E94E60CA50194010E94380ECE
:10188000DC01CB0188579C4EAF4FBF4F9093230292
:10189000809322020E9491016ECFCF93DF93C2E327
:1018A000D2E0D0938104C093800480E894E00E9449
:1018B0000D07D093A004C0939F048FE994E0DF91BB
:1018C000CF910C940D07E3EEF3E01382128288EEC1
:1018D00093E0A0E0B0E084839583A683B78384E49B
:1018E00092E09183808385EC90E09587848784ECF7
:1018F00090E09787868780EC90E0918B808B81ECDD
:1019000090E0938B828B82EC90E0958B848B86ECBD
:1019100090E0978B868B118E128E138E148E4AE078
:101920006BE08FE994E00E940F0A49E068E080E8EC
:1019300094E00C940F0A8F929F92AF92BF92CF9235
:10194000DF92EF92FF92CF93DF93EC016881798170
:101950008A819B81611571058105910521F464E2FD
:1019600079ED8BE597E02DE133EF41E050E00E9407
:10197000380E49015A019B01AC01A7EAB1E40E946B
:10198000570E6B017C01ACEEB4EFA50194010E94EF
:10199000650EDC01CB018C0D9D1DAE1DBF1DB7FF7B
:1019A00003C00197A109B04888839983AA83BB83A8
:1019B000BC01CD019F77DF91CF91FF90EF90DF9039
:1019C000CF90BF90AF909F908F9008958F929F92ED
:1019D000AF92BF92CF92DF92EF92FF92609124027A
:1019E0007091250280912602909127026115710560
:1019F0008105910521F464E279ED8BE597E02DE115
:101A000033EF41E050E00E94380E49015A019B013A
:101A1000AC01A7EAB1E40E94570E6B017C01ACEE69
:101A2000B4EFA50194010E94650EDC01CB018C0D81
:101A30009D1DAE1DBF1DB7FF03C00197A109B04892
:101A40008093240290932502A0932602B09327024C
:101A5000BC01CD019F77FF90EF90DF90CF90BF90BA
:101A6000AF909F908F900895609324027093250209
:101A700080932602909327020895E89409C097FB6B
:101A80003EF490958095709561957F4F8F4F9F4F55
:101A90009923A9F0F92F96E9BB279395F695879599
:101AA00077956795B795F111F8CFFAF4BB0F11F45C
:101AB00060FF1BC06F5F7F4F8F4F9F4F16C0882303
:101AC00011F096E911C0772321F09EE8872F762F39
:101AD00005C0662371F096E8862F70E060E02AF07A
:101AE0009A95660F771F881FDAF7880F9695879566
:101AF00097F908950E948D0D0C94FE0D0E94F00D33
:101B000038F00E94F70D20F0952311F00C94E70DAA
:101B10000C94ED0D11240C94320E0E940F0E70F3F4
:101B2000959FC1F3950F50E0551F629FF001729F82
:101B3000BB27F00DB11D639FAA27F00DB11DAA1F91
:101B4000649F6627B00DA11D661F829F2227B00DDE
:101B5000A11D621F739FB00DA11D621F839FA00D69
:101B6000611D221F749F3327A00D611D231F849FB9
:101B7000600D211D822F762F6A2F11249F57504010
:101B80009AF0F1F088234AF0EE0FFF1FBB1F661F8B
:101B9000771F881F91505040A9F79E3F510580F054
:101BA0000C94E70D0C94320E5F3FE4F3983ED4F3AF
:101BB000869577956795B795F795E7959F5FC1F7F8
:101BC000FE2B880F911D9695879597F9089597F9A3
:101BD0009F6780E870E060E008959FEF80EC0895D3
:101BE00000240A94161617061806090608950024FC
:101BF0000A9412161306140605060895092E039476
:101C0000000C11F4882352F0BB0F40F4BF2B11F4E9
:101C100060FF04C06F5F7F4F8F4F9F4F089557FD48
:101C20009058440F551F59F05F3F71F04795880F4A
:101C300097FB991F61F09F3F79F0879508951216E1
:101C400013061406551FF2CF4695F1DF08C016168D
:101C500017061806991FF1CF86957105610508943E
:101C60000895E894BB2766277727CB0197F9089555
:101C7000052E97FB1EF400940E944F0E57FD07D0CF
:101C80000E94A10E07FC03D04EF40C944F0E509509
:101C90004095309521953F4F4F4F5F4F0895909558
:101CA0008095709561957F4F8F4F9F4F08950E944B
:101CB000C30EA59F900DB49F900DA49F800D911D04
:101CC00011240895B7FF0C94570E0E94570E821BE3
:101CD000930B08952F923F924F925F926F927F9253
:101CE0008F929F92AF92BF92CF92DF92EF92FF922C
:101CF0000F931F93CF93DF93CDB7DEB7CA1BDB0BD8
:101D00000FB6F894DEBF0FBECDBF09942A8839887C
:101D100048885F846E847D848C849B84AA84B98483
:101D2000C884DF80EE80FD800C811B81AA81B9818F
:101D3000CE0FD11D0FB6F894DEBF0FBECDBFED01A3
:101D40000895A1E21A2EAA1BBB1BFD010DC0AA1FFC
:101D5000BB1FEE1FFF1FA217B307E407F50720F014
:101D6000A21BB30BE40BF50B661F771F881F991F8F
:101D70001A9469F760957095809590959B01AC01D8
:101D8000BD01CF010895A29FB001B39FC001A39FE1
:101D9000700D811D1124911DB29F700D811D1124A4
:101DA000911D08955058BB27AA270E94EA0E0C9453
:101DB000FE0D0E94F00D38F00E94F70D20F039F46E
:101DC0009F3F19F426F40C94ED0D0EF4E095E7FB1B
:101DD0000C94E70DE92F0E940F0E58F3BA17620713
:101DE00073078407950720F079F4A6F50C94310E5B
:101DF0000EF4E0950B2EBA2FA02D0B01B901900126
:101E00000C01CA01A0011124FF27591B99F0593F69
:101E100050F4503E68F11A16F040A22F232F342FB1
:101E20004427585FF3CF469537952795A795F040FF
:101E30005395C9F77EF41F16BA0B620B730B840B14
:101E4000BAF09150A1F0FF0FBB1F661F771F881FCC
:101E5000C2F70EC0BA0F621F731F841F48F4879524
:101E600077956795B795F7959E3F08F0B0CF939516
:101E7000880F08F09927EE0F9795879508950E948F
:101E8000530F0C94FE0D0E94F70D58F00E94F00DB8
:101E900040F029F45F3F29F00C94E70D51110C94A8
:101EA000320E0C94ED0D0E940F0E68F39923B1F3DE
:101EB000552391F3951B550BBB27AA276217730770
:101EC000840738F09F5F5F4F220F331F441FAA1F04
:101ED000A9F335D00E2E3AF0E0E832D091505040C0
:101EE000E695001CCAF72BD0FE2F29D0660F771F6E
:101EF000881FBB1F261737074807AB07B0E809F054
:101F0000BB0B802DBF01FF2793585F4F3AF09E3FD8
:101F1000510578F00C94E70D0C94320E5F3FE4F31A
:101F2000983ED4F3869577956795B795F7959F5F1B
:101F3000C9F7880F911D9695879597F90895E1E067
:101F4000660F771F881FBB1F621773078407BA07C6
:101F500020F0621B730B840BBA0BEE1F88F7E09521
:101F600008950E94170E88F09F5798F0B92F99276F
:101F7000B751B0F0E1F0660F771F881F991F1AF074
:101F8000BA95C9F714C0B13091F00E94310EB1E09A
:101F900008950C94310E672F782F8827B85F39F099
:101FA000B93FCCF3869577956795B395D9F73EF40D
:101FB00090958095709561957F4F8F4F9F4F0895B5
:101FC00097FB072E16F4009407D077FD09D00E94E6
:101FD000F40F07FC05D03EF4909581959F4F08952E
:101FE000709561957F4F0895AA1BBB1B51E107C0F7
:101FF000AA1FBB1FA617B70710F0A61BB70B881F99
:10200000991F5A95A9F780959095BC01CD01089527
:10201000EE0FFF1F0590F491E02D09940F931F938D
:10202000CF93DF938230910510F482E090E0E0914D
:10203000C004F091C10420E030E0A0E0B0E03097AF
:1020400019F1408151810281138148175907C8F065
:102050008417950769F4109731F012960C93129734
:1020600013961C9327C00093C0041093C10422C090
:102070002115310519F04217530718F49A01BD01D3
:10208000EF01DF01F801DBCF21153105F9F0281B45
:10209000390B2430310580F48A819B8161157105EB
:1020A00021F0FB019383828304C09093C104809349
:1020B000C004FE01329644C0FE01E20FF31F81937B
:1020C000919322503109398328833AC02091BE046C
:1020D0003091BF04232B41F420912A0230912B022E
:1020E0003093BF042093BE0420912802309129022E
:1020F0002115310541F42DB73EB740912C02509186
:102100002D02241B350BE091BE04F091BF04E217B1
:10211000F307A0F42E1B3F0B2817390778F0AC010A
:102120004E5F5F4F2417350748F04E0F5F1F5093E7
:10213000BF044093BE048193919302C0E0E0F0E0BD
:10214000CF01DF91CF911F910F910895CF93DF932E
:10215000009709F481C0FC01329713821282A0918A
:10216000C004B091C104109781F420813181820FA5
:10217000931F2091BE043091BF042817390751F5F1
:10218000F093BF04E093BE0467C0ED0120E030E0AF
:10219000CE17DF0740F44A815B819E01411551054E
:1021A000F1F0EA01F5CFD383C28340815181840FDE
:1021B000951FC817D90759F488819981840F951FF5
:1021C0000296918380838A819B81938382832115E8
:1021D000310529F4F093C104E093C0043DC0E90146
:1021E000FB83EA8349915991C40FD51FEC17FD0772
:1021F00061F480819181840F951F0296E901998392
:102200008883828193819B838A83E0E0F0E0129649
:102210008D919C911397009719F0FD01DC01F7CF88
:102220008D919C9111979D012E5F3F4F820F931FBF
:102230002091BE043091BF042817390769F4309704
:1022400029F41092C1041092C00402C013821282B9
:10225000B093BF04A093BE04DF91CF910895A0E096
:10226000B0E0E5E3F1E10C946E0EEC01009721F48F
:10227000CB010E940E10B4C0FC01E60FF71F9C01B9
:1022800022503109E217F30708F4A8C0D9010D91D3
:102290001C91119706171707B0F00530110508F4C7
:1022A0009BC0C80104978617970708F495C0025091
:1022B0001109061B170B019311936D937C93CF01AA
:1022C0000E94A61089C05B01A01AB10A4C01800EC1
:1022D000911EA091C004B091C104612C712CE12C1D
:1022E000F12C109709F446C08D919C911197A81577
:1022F000B905B1F56C0142E0C40ED11CCA14DB046F
:1023000078F14C018A189B08640142E0C40ED11C8C
:102310001296BC9012971396AC91B5E0CB16D104EF
:1023200040F0B282A38391828082D9016D937C9325
:1023300009C00E5F1F4F800F911FF90191838083A9
:10234000EB2DFA2FE114F10431F0D7011396FC9331
:10235000EE93129741C0F093C104E093C0043CC0D7
:102360006816790608F43C017D0112960D90BC9127
:10237000A02DB7CF8091BE049091BF048816990616
:10238000E1F466167706C8F480912802909129023C
:10239000009741F48DB79EB740912C0250912D02C9
:1023A000841B950BE817F907C8F4F093BF04E0937A
:1023B000BE04F901718360830FC0CB010E940E102F
:1023C0007C01009759F0A801BE010E94FA11CE01CC
:1023D0000E94A610C70104C0CE0102C080E090E0B8
:1023E000CDB7DEB7EEE00C948A0E81E090E0F89471
:1023F0000C940A12FB01DC0102C001900D924150C5
:102400005040D8F70895FB01DC0101900D920020A7
:10241000E1F7089510E0C2E6D0E004C0FE010E949A
:0E24200008102196C336D107C9F7F894FFCFF4
:10242E0057494445320000004D5943414C4C000081
:10243E0041505A0000000000424541434F4E0000FB
:10244E007777772E6769746875622E636F6D2F6864
:10245E00616E64696B6F00000000000000000000F8
:10246E00000000000000000000000000000000005E
:10247E00000000000000000000000000000000004E
:10248E00000000000000000000000000000000003E
:10249E00000000000000000000000000000000002E
:1024AE00000000000000000000000000000000001E
:1024BE00000000000000000000000000000000000E
:1024CE002E2E3A3A7C204578706572696D656E7471
:1024DE00616C2041726475696E6F2D4150525320AC
:1024EE007C3A3A2E2E000000000000000000000092
:1024FE0000000000000000000000000000000000CE
:10250E0000000000000000000000000000000000BD
:10251E0000000000000000000000000000000000AD
:10252E00000000000000000000000000000000009D
:10253E00000000000000000000000000000000008D
:10254E00FFFF8813010000000000C204800000009D
:10255E000000B3018F003C028D0003021B029B01A1
:10256E000000000022018F00B9006F01EA00C800D0
:10257E00DC000D0A00536B657463683A202020005E
:10258E002F686F6D652F68616E64696B6F2F417276
:10259E006475696E6F2D415052532F417264756987
:1025AE006E6F2D536B6574636865732F546573740A
:1025BE002F415052535F4750535F53484F52542F41
:1025CE00415052535F4750535F53484F52542E69F8
:1025DE006E6F0055706C6F616465643A20004A61DD
:1025EE006E2032302032303139004750524D432068
:1025FE0041505253205472616E736D6974746572DA
:10260E00202D20537461727465642021200A0041CC
:10261E00542B444D4F434F4E4E4543540041542B83
:10262E00444D4F53455447524F55503D302C002C7E
:0C263E00303030302C302C303030300088
:00000001FF
