:100000000C9463000C948B000C948B000C94BA0637
:100010000C94BA060C94BA060C948B000C948B00CA
:100020000C948B000C948B000C948B000C948B0024
:100030000C948B000C948B000C948B000C948B0014
:100040000C9427030C948B000C9488060C94620685
:100050000C948B000C948B000C948B000C948B00F4
:100060000C948B000C948B000000000024002700EF
:100070002A0000000008000201000003040700003D
:1000800000000000000000000000230026002900FE
:1000900000000000250028002B00040404040404D0
:1000A0000404020202020202030303030303010227
:1000B00004081020408001020408102001020408F6
:1000C0001020E40CCE0C11241FBECFEFD8E0DEBF11
:1000D000CDBF13E0A0E0B1E0E0E3F5E202C005909F
:1000E0000D92AC33B107D9F724E0ACE3B3E001C023
:1000F0001D92AB3EB207E1F710E0C2E6D0E004C0CB
:100100002197FE010E948910C136D107C9F70E94CC
:10011000E20A0C948B120C94000008950895CF927B
:10012000DF92EF92FF920F931F93CF93DF936C01B7
:100130007A018B01C0E0D0E0CE15DF0581F0D80157
:100140006D918D01D601ED91FC910190F081E02D32
:10015000C6010995892B11F02196EECF7E01C701CA
:10016000DF91CF911F910F91FF90EF90DF90CF9093
:100170000895FC01538D448D252F30E0842F90E0AD
:10018000821B930B541710F0CF9608950197089592
:10019000FC01918D828D981761F0828DDF01A80F8F
:1001A000B11D5D968C91928D9F5F9F73928F90E0B1
:1001B00008958FEF9FEF0895FC01918D828D981720
:1001C00031F0828DE80FF11D858D90E008958FEF5D
:1001D0009FEF0895FC01918D228D892F90E0805C26
:1001E0009F4F821B91098F73992708958CE094E0AB
:1001F0000E94EA0021E0892B09F420E0822F089573
:10020000FC01848DDF01A80FB11DA35ABF4F2C91B3
:10021000848D90E001968F739927848FA689B78982
:100220002C93A089B1898C91837080648C93938D79
:10023000848D981306C00288F389E02D80818F7D1C
:1002400080830895EF92FF920F931F93CF93DF93D4
:10025000EC0181E0888F9B8D8C8D981305C0E88917
:10026000F989808185FD26C0F62E0B8D10E00F5F89
:100270001F4F0F731127E02E8C8DE8120CC00FB6A4
:1002800007FCFACFE889F989808185FFF5CFCE0197
:100290000E940001F1CF8B8DFE01E80FF11DE35AA2
:1002A000FF4FF0829FB7F8940B8FEA89FB8980811A
:1002B00080620AC09FB7F894EE89FF896083E8895D
:1002C000F98980818370806480839FBF81E090E0A2
:1002D000DF91CF911F910F91FF90EF900895CF93F1
:1002E000DF93EC01888D8823C9F0EA89FB8980813E
:1002F00085FD05C0A889B9898C9186FD0FC00FB610
:1003000007FCF5CF808185FFF2CFA889B9898C9150
:1003100085FFEDCFCE010E940001E7CFDF91CF91A5
:10032000089580E090E0892B29F00E94F600811169
:100330000C940000089520910A0430910B042817B2
:10034000390771F49091080480910904981741F0DD
:10035000E0910804F0E0E25CFC4F808190E00895B9
:100360008FEF9FEF08951F93CF93DF93DC015C968F
:100370008D919C915D97009739F421E030E01396C0
:100380003C932E9312973BC05196ED91FC9152975E
:1003900050962C915097322F30951FB75E964C9106
:1003A0005E97742F727041FD6095F89440817723B9
:1003B00011F0422B01C043234083EC012197F1F758
:1003C00048E0508160FF02C0522B01C0532350838C
:1003D000EC012197F1F76695415099F780817723D9
:1003E00019F08323808302C0282B20831FBF5C96D3
:1003F0008D919C915D970197F1F781E090E0DF91FD
:10040000CF911F91089520910A0430910B04281771
:10041000390771F4809109042091080490E0805C10
:100420009F4F821B910960E470E00E946110089563
:1004300080E090E0089520910A0430910B04281781
:100440003907B9F49091080480910904981789F04C
:10045000E0910804F0E0E25CFC4F80812091080408
:1004600030E02F5F3F4F2F7333272093080490E035
:1004700008958FEF9FEF089580E090E008950E9427
:1004800076126115710579F0FB0101900020E9F702
:100490003197AF01461B570BDC01ED91FC910280B7
:1004A000F381E02D099480E090E008950F931F936D
:1004B000CF93DF93EC010E9441028C0162E572E070
:1004C000CE010E944102800F911FDF91CF911F91B9
:1004D0000F9108950C94410261E08CE00E94AF09F5
:1004E0008BEC90E00E949D0A60E08CE00E94AF09D6
:1004F0008BEC90E00E949D0A61E08CE00E94AF09C5
:100500008BEC90E00E949D0A60E08CE00E94AF09B5
:100510008BEC90E00C949D0A61E08CE00E94AF09A6
:1005200086E991E00E949D0A60E08CE00E94AF099C
:1005300086E991E00C949D0AEF92FF920F931F932E
:10054000CF93DF93D82FE62E08E010E0FF24F3943A
:100550004D2F41702091200230912102C9019695C2
:100560008795242720FF04C028E0822724E89227CB
:100570009093210280932002C0913D03442381F097
:10058000CC2319F00E948C0202C00E946C02809160
:100590003C038F5F80933C03EE2071F0853061F463
:1005A000CF25C0933D03CC2319F00E948C0202C0DA
:1005B0000E946C0210923C03D6950150110941F63D
:1005C000DF91CF911F910F91FF90EF900895EF92DF
:1005D000FF920F931F93CF93DF938C017B01EC016C
:1005E000CE01801B910B8E159F052CF461E0899143
:1005F0000E949C02F5CFDF91CF911F910F91FF9048
:10060000EF9008953FB7F894809100049091010411
:10061000A0910204B091030426B5A89B05C02F3F0A
:1006200019F00196A11DB11D3FBFBA2FA92F982F18
:100630008827820F911DA11DB11DBC01CD0142E093
:10064000660F771F881F991F4A95D1F708951F924B
:100650000F920FB60F9211242F933F938F939F9376
:10066000AF93BF938091040490910504A091060478
:10067000B09107043091FF0323E0230F2D3720F4BE
:100680000196A11DB11D05C026E8230F0296A11DEC
:10069000B11D2093FF038093040490930504A0935D
:1006A0000604B09307048091000490910104A09186
:1006B0000204B09103040196A11DB11D80930004B2
:1006C00090930104A0930204B0930304BF91AF91EF
:1006D0009F918F913F912F910F900FBE0F901F9080
:1006E00018950F931F93CF93DF93EC018881998125
:1006F000009729F02A813B812617370788F48B0160
:100700006F5F7F4F0E94B011009761F099838883DB
:100710001B830A832C813D81232B11F4FC01108261
:1007200081E001C080E0DF91CF911F910F9108958A
:100730008F929F92AF92BF92EF92FF920F931F936F
:10074000CF93DF93CDB7DEB7A1970FB6F894DEBF96
:100750000FBECDBF7C01FA01CB0119A2223008F4F3
:100760002AE08E010F5D1F4F822E912CA12CB12CFF
:10077000BF01A50194010E94220FF901CA01015095
:1007800011096A3014F4605D01C0695CD8016C9392
:10079000232B242B252B61F7B801C7010E944102AE
:1007A000A1960FB6F894DEBF0FBECDBFDF91CF91FB
:1007B0001F910F91FF90EF90BF90AF909F908F90FF
:1007C0000895DC01ED91FC910190F081E02D0994F8
:1007D000EF92FF920F931F93CF93DF93D82F0E9436
:1007E000B00768E071E08CE094E00E946A026DE27C
:1007F0008CE094E00E94E10361E070E08CE094E022
:100800000E94E5086EE38CE094E00E94E103D6309C
:1008100019F468E171E002C060E171E08CE094E0FD
:100820000E946A026CE28CE094E00E94E10360E0C6
:1008300071E08CE094E00E946A026DE28CE094E04A
:100840000E94E10362E070E08CE094E00E94E50821
:100850006AE38CE094E00E94E103D13041F464E269
:100860008CE094E00E94E10368E973E059C0D23063
:1008700011F461E20EC0D33039F56FE28CE094E000
:100880000E94E10361E973E08CE094E00E946A0257
:1008900068E68CE094E00E94E10368E873E08CE095
:1008A00094E00E946A026FE28CE094E00E94E1030F
:1008B0006EE773E08CE094E00E946A0262E28CE0F2
:1008C00094E00E94E10330C0D53031F46EE38CE057
:1008D00094E00E94E10322C0D430F1F461E28CE0A4
:1008E00094E00E94E10368E873E08CE094E00E94E9
:1008F0006A026FE28CE094E00E94E1036EE773E02D
:100900008CE094E00E946A0262E28CE094E00E9433
:10091000E10360E271E004C0D630C1F660EA71E044
:100920008CE094E00E946A0260E28CE094E00E9415
:10093000E10362E572E08CE094E00E9441028CE009
:1009400094E00E946F018CE094E00E946F01E091BE
:100950001E04F0911F0480818F7E8083E0911E042D
:10096000F0911F048081877F8083E0911E04F091C5
:100970001F0480818F778083E0911E04F0911F0413
:1009800080818F7D8083809126048093250461E09F
:100990008DE00E94AF0961E087E00E94AF0904E6A4
:1009A00010E060E08EE70E949C0201501109C9F737
:1009B0008FEF9FEF9093210280932002D630E1F4D5
:1009C000E8E1F1E001900020E9F73197E851F140CA
:1009D000CE2F08E111E0EE2EEE0FFF08C80188517E
:1009E00091408E159F0524F5F80181918F0161E0FA
:1009F000880F0E949C02F2CFE0E1F1E0019000201C
:100A0000E9F73197E051F140CE2F00E111E0EE2EF1
:100A1000EE0FFF08C801805191408E159F0544F4E8
:100A2000F80181918F0161E0880F0E949C02F2CF52
:100A3000C6309CF400E010E086E090E07C01EC1A07
:100A4000F108C7FDF3940E151F053CF461E080E446
:100A50000E949C020F5F1F4FF6CF61E080E60E946C
:100A60009C02E8E0F1E001900020E9F73197E850BE
:100A7000F140CE2F08E011E0EE2EEE0FFF08C80186
:100A8000885091408E159F0544F4F80181918F01A3
:100A900061E0880F0E949C02F2CFC63094F400E01F
:100AA00010E086E090E09C012E193F0979010E15B7
:100AB0001F053CF461E080E40E949C020F5F1F4F21
:100AC000F6CF61E082E60E949C02E0E0F1E0019056
:100AD0000020E9F73197E050F140CE2F00E011E01F
:100AE000EE2EEE0FFF08C801805091408E159F0535
:100AF00044F4F80181918F0161E0880F0E949C020B
:100B0000F2CFC63094F400E010E086E090E09C0163
:100B10002E193F0979010E151F053CF461E080E4B0
:100B20000E949C020F5F1F4FF6CF61E085E60E9496
:100B30009C0261E083E00E949C0261E080EF0E94E1
:100B40009C02D13079F461E084E20E949C02E8E9E1
:100B5000F3E001900020E9F7BF016A59734088E98A
:100B600093E087C0D23019F461E081E215C0D33040
:100B7000C1F561E08FE20E949C02E1E9F3E001909F
:100B80000020E9F73197BF016159734081E993E093
:100B90000E94E70261E088E60E949C02E8E8F3E038
:100BA00001900020E9F73197BF016858734088E849
:100BB00093E00E94E70261E08FE20E949C02EEE770
:100BC000F3E001900020E9F73197BF016E577340C1
:100BD0008EE793E00E94E70261E082E20E949C02BD
:100BE0004AC0D53029F461E08EE30E949C0236C0F1
:100BF000D43091F561E081E20E949C02E8E8F3E0E4
:100C000001900020E9F73197BF016858734088E8E8
:100C100093E00E94E70261E08FE20E949C02EEE70F
:100C2000F3E001900020E9F73197BF016E57734060
:100C30008EE793E00E94E70261E082E20E949C025C
:100C4000E0E2F1E001900020E9F73197BF01605246
:100C5000714080E291E00DC0D63029F6E0EAF1E083
:100C600001900020E9F73197BF01605A714080EA96
:100C700091E00E94E70280912002C091210261E090
:100C800080950E949C0261E08C2F80950E949C02BE
:100C900060E08EE70E949C0260E08EE70E949C026A
:100CA00060E08EE70E949C0260E087E00E94AF094E
:100CB00060E08DE0DF91CF911F910F91FF90EF9059
:100CC0000C94AF091F920F920FB60F9211242F931D
:100CD0003F934F935F936F937F938F939F93AF93C4
:100CE000BF93EF93FF938CE094E00E940001FF918B
:100CF000EF91BF91AF919F918F917F916F915F9194
:100D00004F913F912F910F900FBE0F901F9018950C
:100D10001F920F920FB60F9211242F938F939F93D0
:100D2000EF93FF93E0911C04F0911D048081E0910A
:100D30002204F091230482FD12C090818091250449
:100D40008F5F8F7320912604821751F0E091250464
:100D5000F0E0E45FFB4F958F8093250401C0808114
:100D6000FF91EF919F918F912F910F900FBE0F9058
:100D70001F9018951F920F920FB60F9211242F9368
:100D80003F934F935F936F937F938F939F93AF9313
:100D9000BF93EF93FF93E0910A04F0910B04309717
:100DA00009F451C0968DA685B785858591FF04C04D
:100DB0009C91892329F447C09C91892309F043C061
:100DC000A389B4899C918589809589238C93868990
:100DD00097890197F1F7608D718DA685B785558547
:100DE00038E020E0CB010197F1F7822F90E0959554
:100DF0008795282F4C91452309F02068315091F7B1
:100E0000868D81FD20958091090490E001968F7375
:100E1000992730910804381749F0A0910904B0E0EF
:100E2000A25CBC4F2C938093090403C0868D816023
:100E3000868F828D938D0197F1F7A389B4899C9158
:100E40008589892B8C93FF91EF91BF91AF919F91F1
:100E50008F917F916F915F914F913F912F910F9063
:100E60000FBE0F901F901895E0910A04F0910B04AB
:100E7000E817F90769F4A389B4899C91858980955D
:100E800089238C9310920B0410920A0481E0089538
:100E900080E008952FB7F8948091040490910504A0
:100EA000A0910604B09107042FBF8093D0049093C3
:100EB000D104A093D204B093D30488EC94E00E94B0
:100EC0001B0297FF26C02FB7F894809104049091DD
:100ED0000504A0910604B09107042FBF4091D004EF
:100EE0005091D1046091D2047091D304841B950B6E
:100EF000A60BB70B4091CC045091CD046091CE0469
:100F00007091CF0484179507A607B707B0F28FEF4B
:100F10009FEF08950F931F93CF93DF93EC018B0105
:100F20000E9471032881398181110DC0211531057D
:100F300019F0C9010E942711198218821D821C8292
:100F40001B821A8207C01D830C8364E572E0C9010D
:100F50000E948412CE01DF91CF911F910F910895CD
:100F6000ECE0F4E0A089B18982E08C93A485B5859A
:100F70001C92A685B78580E18C93108EA489B589D3
:100F800086E08C93A289B3898C9180618C93A2892D
:100F9000B3898C9188608C93A289B3898C91806885
:100FA0008C930288F389E02D80818F7D8083089562
:100FB00080E480937C0080917A00806480937A0042
:100FC00080917A0086FDFCCF809178002091790095
:100FD00090E0922B0895CF93DF93FC01138E128E35
:100FE000118E108E178A168A8DE991E0958F848F65
:100FF0009485963108F04EC02DEB30E0378B268B70
:101000002BE931E0318F208F2CE231E0338F228FBA
:1010100030916800983058F021E09E3008F420E0CC
:1010200091E0892F01C0880F2A95EAF701C084E07A
:10103000832B809368009485983038F09E3040F080
:10104000963148F020E030E008C02DE630E005C0E1
:101050002BE630E002C02CE630E0348B238B983056
:1010600030F481E001C0880F9A95EAF70EC0292F6D
:1010700030E09E3018F42850310902C02E5031095A
:1010800081E001C0880F2A95EAF7858B848D958DC4
:101090000197F1F7828D938D892BE9F080910A04F5
:1010A00090910B04E817F907B1F0EF01009711F0E8
:1010B0000E9434078E8D8E7F8E8F109209041092BD
:1010C0000804D0930B04C0930A04EB89FC89908137
:1010D0008D89892B8083DF91CF9108958F929F9284
:1010E000AF92BF92CF92DF92EF92FF920F931F9336
:1010F000CF93182FC0E060E070E080E09FE3C1175D
:1011000041F020E030E040E251E40E94C00FCF5FA8
:10111000F6CF27ED33E640E153E40E94540F6B0114
:101120007C010E9432104B015C012AE0AB01BC0142
:1011300088EC94E00E9498038C01CC23C9F1C5018E
:10114000B4010E94BE0D9B01AC01C701B6010E9413
:10115000530F6B017C016EE288EC94E00E94E10386
:10116000080F191F20E030E040E251E4C701B6014A
:101170000E94FB0D4B015C010E9432106B01E12CBF
:10118000F12C2AE0B701A60188EC94E00E949803B4
:10119000080F191FC701B6010E94BE0D9B01AC01CB
:1011A000C501B4010E94530F6B017C01C150D1F6FF
:1011B000C801CF911F910F91FF90EF90DF90CF90DA
:1011C000BF90AF909F908F900895CF92DF92EF9253
:1011D000FF920F931F93CF93DF936B01770FEE086E
:1011E000FF08F7FE1BC0EC016DE20E94E1038C01D9
:1011F00044275527BA014C195D096E097F092AE079
:10120000CE010E949803800F911FDF91CF911F9113
:101210000F91FF90EF90DF90CF9008952AE0B701F3
:10122000A601DF91CF911F910F91FF90EF90DF907A
:10123000CF900C9498030F931F93CF93DF93CDB768
:10124000DEB72E970FB6F894DEBF0FBECDBF18865F
:101250001F821A8619861C861B8660E070E0CE010C
:1012600007960E948A0788EC94E00E9403021816F1
:101270001906CCF788EC94E00E94030218161906B0
:101280000CF05EC01A8219821C821B821E821D8293
:1012900060E070E0CE0101960E948A070E944A0732
:1012A00097FD1BC08D871E860D811E810F5F1F4F0E
:1012B000B801CE0101960E947103882379F3298138
:1012C0003A818D819E81BE01635F7F4F820F931FA4
:1012D0000E9484121E830D83E1CF8F819885009731
:1012E000A9F069817A816115710571F049855A8586
:1012F0002D813E814217530738F00E9484128D8160
:101300009E819C878B8710C00E94271189819A81BA
:1013100098878F838B819C819A8789878D819E8115
:101320009C878B871A82198289819A810E94271152
:101330004B855C856F8178858CE094E00E948F00FE
:101340008F8198850E9427112E960FB6F894DEBFE4
:101350000FBECDBFDF91CF911F910F91089590E007
:10136000FC01EE58FF4F2491FC01E255FF4F3491F0
:10137000FC01E656FF4FE491EE2309F43CC0222322
:1013800039F1233091F038F42130A9F0223001F501
:1013900084B58F7D12C0273091F02830A1F0243021
:1013A000B9F4809180008F7D03C0809180008F7799
:1013B000809380000DC084B58F7784BD09C0809173
:1013C000B0008F7703C08091B0008F7D8093B00014
:1013D000F0E0EE0FFF1FE057FF4FA591B4919FB7CC
:1013E000F894611104C08C913095382302C0EC91BF
:1013F0003E2B3C939FBF0895CF93DF9390E0FC0179
:10140000E255FF4F2491FC01E656FF4F849188235B
:1014100061F190E0880F991FFC01E859FF4FC591D9
:10142000D491FC01E057FF4FA591B491611109C01F
:101430009FB7F8948881209582238883EC912E238E
:101440000BC0623061F49FB7F8948881322F3095D9
:1014500083238883EC912E2B2C939FBF06C08FB7DC
:10146000F894E8812E2B28838FBFDF91CF910895C8
:101470000F931F93CF93DF93EC01162F042F1B8242
:101480001A8288EE93E0A0E0B0E08C839D83AE8367
:10149000BF8382E392E0998388831F8A1E8A198E14
:1014A000188E1B8E1A8E1D8E1C8E6E8D6E7F6D7F1C
:1014B0006E8F6695617081E06827842F0E94AF0966
:1014C00061E0802F0E94FC09802F90E0FC01E25532
:1014D000FF4FE491E88BFC01E656FF4FE491F0E00A
:1014E000EE0FFF1FE057FF4F859194919A8B898BE8
:1014F00060E0812F0E94FC098E8D81FD04C061E0B7
:10150000812F0E94AF091C87812F90E0FC01E255DA
:10151000FF4FE491ED87FC01E656FF4FE491F0E0C8
:10152000EE0FFF1FEA57FF4F859194919F878E879B
:10153000DF91CF911F910F9108958230910538F07E
:10154000880F991F880F991F05970197F1F7089544
:101550008F929F92AF92BF92CF92DF92EF92FF92C3
:101560006B017C010E9402034B015C01C114D10498
:10157000E104F104F1F00E940203DC01CB018819BF
:101580009909AA09BB09883E9340A105B10570F3EA
:1015900021E0C21AD108E108F10888EE880E83E044
:1015A000981EA11CB11CC114D104E104F10419F767
:1015B000DDCFFF90EF90DF90CF90BF90AF909F90E6
:1015C0008F900895789484B5826084BD84B58160DD
:1015D00084BD85B5826085BD85B5816085BD8091FE
:1015E0006E00816080936E00109281008091810076
:1015F000826080938100809181008160809381006E
:10160000809180008160809380008091B10084602F
:101610008093B1008091B00081608093B000809190
:101620007A00846080937A0080917A00826080934F
:101630007A0080917A00816080937A0080917A00AC
:10164000806880937A001092C10061E08DE00E9472
:10165000FC0961E08CE00E94FC0960E08BE00E94E4
:10166000FC0961E08AE00E94FC0961E087E00E94D9
:10167000FC0961E086E00E94FC0961E085E00E94CF
:10168000FC0960E087E00E94AF0961E086E00E940B
:10169000AF0960E085E00E94AF090E94B00788ECC6
:1016A00094E00E94EB076EE572E08CE094E00E940B
:1016B000560265E572E08CE094E00E946A0260E602
:1016C00072E08CE094E00E94560264EC72E08CE0E0
:1016D00094E00E946A026FEC72E08CE094E00E9459
:1016E00056026EE572E08CE094E00E9456026BEDCB
:1016F00072E08CE094E00E94560264EF71E080E0BA
:1017000090E00E94A80A60E073E088EC94E00E94F8
:10171000560260E073E088EC94E00E94560260E0BC
:1017200073E088EC94E00E9456020E941B0962E379
:1017300070E080E090E00E94A80A6EE073E088EC20
:1017400094E00E946A0284E00E946E086CE288ECD9
:1017500094E00E94E10384E00E946E0860E273E07E
:1017600088EC94E00E9456020E941B0962E370E03C
:1017700080E090E00E94A80A6DE273E088EC94E0BB
:101780000E946A0260E070E088EC94E00E94E50844
:101790006CE288EC94E00E94E10360E070E088EC89
:1017A00094E00E94E5086CE288EC94E00E94E1037A
:1017B0002AE040E050E0BA0188EC94E00E949803EF
:1017C00062E572E088EC94E00E9441020E941B09ED
:1017D00060E28CE094E00E94E10362E572E08CE05C
:1017E00094E00E94410288EC94E00E94340789EA68
:1017F00094E00E94EB070E94D807BC01990F880B68
:10180000990B611571058105910511F00E94B50DC7
:101810008CEF282E83E0382E9FE8692E93E0792EF6
:1018200007E913E025E0822E912CA12CB12C38E998
:10183000C32E3AE3D32EE12CF12C89EA94E00E94E6
:10184000EB071092FC03E8E9F3E011922E163F0635
:10185000E1F789EA94E00E94030218161906CCF712
:1018600089EA94E00E941B02582E84E25812F1CFBC
:10187000C0E0D0E089EA94E00E940302181619063D
:1018800054F489EA94E00E941B02582EFE01E856A7
:10189000FC4F80832196C530D10521F480919C03B3
:1018A000833449F48AE0581202C0C15005C08DE06B
:1018B0005812E0CFFACFC0E0C093FC0389EA94E06D
:1018C0000E943407AAEAB3E0E8E8F3E08D9181933F
:1018D0006E167F06D9F78091B50380938F03A7EB2F
:1018E000B3E0EEE7F3E08D91819383E0E638F8070B
:1018F000D1F78091C303809386032091A80381E0F0
:1019000090E0213439F0263511F480E090E0919593
:10191000819591099093FE038093FD03AEE9B3E0B6
:10192000E1E9F3E02D9121930E171F07D9F7CB3092
:101930006CF0019741F40E94670DA50194010E948B
:10194000B90E862F01C086E00E94E8036091220252
:101950007091230280E090E00E94A80A0E94D807BC
:10196000BC01990F880B990B6115710581059105D3
:1019700011F00E94B50D0E94670DA70196010E940B
:10198000B90EDC01CB0188579C4EAF4FBF4F9093EF
:101990002302809322020E9491014FCFCF93DF93C5
:1019A000C2E3D2E0D093AA04C093A90489EA94E0E8
:1019B0000E943407D093C904C093C80488EC94E013
:1019C000DF91CF910C943407ECE0F4E013821282A3
:1019D00088EE93E0A0E0B0E084839583A683B7838C
:1019E00084E492E09183808385EC90E095878487FE
:1019F00084EC90E09787868780EC90E0918B808BD9
:101A000081EC90E0938B828B82EC90E0958B848BC1
:101A100086EC90E0978B868B118E128E138E148E2F
:101A20004AE06BE088EC94E00E94380A49E068E004
:101A300089EA94E00C94380A8F929F92AF92BF92F9
:101A4000CF92DF92EF92FF92CF93DF93EC01688108
:101A500079818A819B81611571058105910521F448
:101A600064E279ED8BE597E02DE133EF41E050E062
:101A70000E94B90E49015A019B01AC01A7EAB1E4E9
:101A80000E94D80E6B017C01ACEEB4EFA50194016D
:101A90000E94E60EDC01CB018C0D9D1DAE1DBF1D0D
:101AA000B7FF03C00197A109B04888839983AA832F
:101AB000BB83BC01CD019F77DF91CF91FF90EF9069
:101AC000DF90CF90BF90AF909F908F9008958F92AE
:101AD0009F92AF92BF92CF92DF92EF92FF9260916E
:101AE00024027091250280912602909127026115AF
:101AF00071058105910521F464E279ED8BE597E0AC
:101B00002DE133EF41E050E00E94B90E49015A0146
:101B10009B01AC01A7EAB1E40E94D80E6B017C01E5
:101B2000ACEEB4EFA50194010E94E60EDC01CB01FE
:101B30008C0D9D1DAE1DBF1DB7FF03C00197A109F0
:101B4000B0488093240290932502A0932602B0937C
:101B50002702BC01CD019F77FF90EF90DF90CF90DF
:101B6000BF90AF909F908F900895609324027093E0
:101B7000250280932602909327020895E89409C0D5
:101B800097FB3EF490958095709561957F4F8F4FB0
:101B90009F4F9923A9F0F92F96E9BB279395F695C6
:101BA000879577956795B795F111F8CFFAF4BB0F44
:101BB00011F460FF1BC06F5F7F4F8F4F9F4F16C0A8
:101BC000882311F096E911C0772321F09EE8872F32
:101BD000762F05C0662371F096E8862F70E060E0EE
:101BE0002AF09A95660F771F881FDAF7880F969567
:101BF000879597F908950E940E0E0C947F0E0E940F
:101C0000710E38F00E94780E20F0952311F00C949C
:101C1000680E0C946E0E11240C94B30E0E94900E5C
:101C200070F3959FC1F3950F50E0551F629FF0012F
:101C3000729FBB27F00DB11D639FAA27F00DB11D48
:101C4000AA1F649F6627B00DA11D661F829F2227D1
:101C5000B00DA11D621F739FB00DA11D621F839F58
:101C6000A00D611D221F749F3327A00D611D231F2E
:101C7000849F600D211D822F762F6A2F11249F577C
:101C800050409AF0F1F088234AF0EE0FFF1FBB1F7F
:101C9000661F771F881F91505040A9F79E3F51053E
:101CA00080F00C94680E0C94B30E5F3FE4F3983E02
:101CB000D4F3869577956795B795F795E7959F5FE8
:101CC000C1F7FE2B880F911D9695879597F908957A
:101CD00097F99F6780E870E060E008959FEF80ECDF
:101CE000089500240A941616170618060906089582
:101CF00000240A9412161306140605060895092EE8
:101D00000394000C11F4882352F0BB0F40F4BF2B56
:101D100011F460FF04C06F5F7F4F8F4F9F4F089596
:101D200057FD9058440F551F59F05F3F71F047958C
:101D3000880F97FB991F61F09F3F79F08795089571
:101D4000121613061406551FF2CF4695F1DF08C090
:101D5000161617061806991FF1CF869571056105AD
:101D600008940895E894BB2766277727CB0197F955
:101D70000895052E97FB1EF400940E94D00E57FD87
:101D800007D00E94220F07FC03D04EF40C94D00E13
:101D900050954095309521953F4F4F4F5F4F089597
:101DA00090958095709561957F4F8F4F9F4F0895C7
:101DB0000E94440FA59F900DB49F900DA49F800D8D
:101DC000911D11240895B7FF0C94D80E0E94D80ECF
:101DD000821B930B08952F923F924F925F926F92C6
:101DE0007F928F929F92AF92BF92CF92DF92EF92AB
:101DF000FF920F931F93CF93DF93CDB7DEB7CA1B2C
:101E0000DB0B0FB6F894DEBF0FBECDBF09942A8856
:101E1000398848885F846E847D848C849B84AA84FE
:101E2000B984C884DF80EE80FD800C811B81AA818B
:101E3000B981CE0FD11D0FB6F894DEBF0FBECDBF56
:101E4000ED010895A1E21A2EAA1BBB1BFD010DC0D6
:101E5000AA1FBB1FEE1FFF1FA217B307E407F5075A
:101E600020F0A21BB30BE40BF50B661F771F881F36
:101E7000991F1A9469F760957095809590959B01CC
:101E8000AC01BD01CF010895A29FB001B39FC00175
:101E9000A39F700D811D1124911DB29F700D811D96
:101EA0001124911D08955058BB27AA270E946B0F3B
:101EB0000C947F0E0E94710E38F00E94780E20F074
:101EC00039F49F3F19F426F40C946E0E0EF4E0954D
:101ED000E7FB0C94680EE92F0E94900E58F3BA1796
:101EE000620773078407950720F079F4A6F50C9430
:101EF000B20E0EF4E0950B2EBA2FA02D0B01B901F6
:101F000090010C01CA01A0011124FF27591B99F06F
:101F1000593F50F4503E68F11A16F040A22F232F7B
:101F2000342F4427585FF3CF469537952795A795CB
:101F3000F0405395C9F77EF41F16BA0B620B730B72
:101F4000840BBAF09150A1F0FF0FBB1F661F771FE3
:101F5000881FC2F70EC0BA0F621F731F841F48F498
:101F6000879577956795B795F7959E3F08F0B0CF21
:101F70009395880F08F09927EE0F97958795089508
:101F80000E94D40F0C947F0E0E94780E58F00E948D
:101F9000710E40F029F45F3F29F00C94680E511146
:101FA0000C94B30E0C946E0E0E94900E68F399235D
:101FB000B1F3552391F3951B550BBB27AA27621745
:101FC0007307840738F09F5F5F4F220F331F441F52
:101FD000AA1FA9F335D00E2E3AF0E0E832D0915086
:101FE0005040E695001CCAF72BD0FE2F29D0660F73
:101FF000771F881FBB1F261737074807AB07B0E8B6
:1020000009F0BB0B802DBF01FF2793585F4F3AF0BB
:102010009E3F510578F00C94680E0C94B30E5F3F10
:10202000E4F3983ED4F3869577956795B795F79541
:102030009F5FC9F7880F911D9695879597F9089529
:10204000E1E0660F771F881FBB1F621773078407C5
:10205000BA0720F0621B730B840BBA0BEE1F88F7D4
:10206000E09508950E94980E88F09F5798F0B92F38
:102070009927B751B0F0E1F0660F771F881F991FBD
:102080001AF0BA95C9F714C0B13091F00E94B20E9F
:10209000B1E008950C94B20E672F782F8827B85FAF
:1020A00039F0B93FCCF3869577956795B395D9F715
:1020B0003EF490958095709561957F4F8F4F9F4F1F
:1020C000089597FB072E16F4009407D077FD09D0EA
:1020D0000E94751007FC05D03EF4909581959F4FA6
:1020E0000895709561957F4F0895AA1BBB1B51E120
:1020F00007C0AA1FBB1FA617B70710F0A61BB70B78
:10210000881F991F5A95A9F780959095BC01CD011C
:102110000895EE0FFF1F0590F491E02D09940F93A1
:102120001F93CF93DF938230910510F482E090E00B
:10213000E091E904F091EA0420E030E0A0E0B0E0B2
:10214000309719F140815181028113814817590755
:10215000C8F08417950769F4109731F012960C9324
:10216000129713961C9327C00093E9041093EA0476
:1021700022C02115310519F04217530718F49A01AE
:10218000BD01EF01DF01F801DBCF21153105F9F0C9
:10219000281B390B2430310580F48A819B8161151D
:1021A000710521F0FB019383828304C09093EA04BC
:1021B0008093E904FE01329644C0FE01E20FF31F52
:1021C0008193919322503109398328833AC0209119
:1021D000E7043091E804232B41F420912A02309146
:1021E0002B023093E8042093E704209128023091D9
:1021F00029022115310541F42DB73EB740912C023B
:1022000050912D02241B350BE091E704F091E80476
:10221000E217F307A0F42E1B3F0B2817390778F0BD
:10222000AC014E5F5F4F2417350748F04E0F5F1F1C
:102230005093E8044093E7048193919302C0E0E057
:10224000F0E0CF01DF91CF911F910F910895CF93CF
:10225000DF93009709F481C0FC0132971382128248
:10226000A091E904B091EA04109781F420813181B2
:10227000820F931F2091E7043091E8042817390753
:1022800051F5F093E804E093E70467C0ED0120E026
:1022900030E0CE17DF0740F44A815B819E01411593
:1022A0005105F1F0EA01F5CFD383C283408151811A
:1022B000840F951FC817D90759F488819981840F15
:1022C000951F0296918380838A819B819383828369
:1022D0002115310529F4F093EA04E093E9043DC0A7
:1022E000E901FB83EA8349915991C40FD51FEC178B
:1022F000FD0761F480819181840F951F0296E901A9
:1023000099838883828193819B838A83E0E0F0E0D4
:1023100012968D919C911397009719F0FD01DC01A5
:10232000F7CF8D919C9111979D012E5F3F4F820FAA
:10233000931F2091E7043091E8042817390769F4C6
:10234000309729F41092EA041092E90402C0138233
:102350001282B093E804A093E704DF91CF9108952F
:10236000A0E0B0E0E6EBF1E10C94EF0EEC01009799
:1023700021F4CB010E948F10B4C0FC01E60FF71FBF
:102380009C0122503109E217F30708F4A8C0D901D3
:102390000D911C91119706171707B0F00530110524
:1023A00008F49BC0C80104978617970708F495C0E6
:1023B00002501109061B170B019311936D937C9327
:1023C000CF010E94271189C05B01A01AB10A4C01FC
:1023D000800E911EA091E904B091EA04612C712C49
:1023E000E12CF12C109709F446C08D919C91119726
:1023F000A815B905B1F56C0142E0C40ED11CCA1490
:10240000DB0478F14C018A189B08640142E0C40E99
:10241000D11C1296BC9012971396AC91B5E0CB16D6
:10242000D10440F0B282A38391828082D9016D935E
:102430007C9309C00E5F1F4F800F911FF90191839C
:102440008083EB2DFA2FE114F10431F0D7011396BC
:10245000FC93EE93129741C0F093EA04E093E904F1
:102460003CC06816790608F43C017D0112960D9077
:10247000BC91A02DB7CF8091E7049091E804881615
:102480009906E1F466167706C8F4809128029091C7
:102490002902009741F48DB79EB740912C025091CC
:1024A0002D02841B950BE817F907C8F4F093E80494
:1024B000E093E704F901718360830FC0CB010E94B0
:1024C0008F107C01009759F0A801BE010E947B1279
:1024D000CE010E942711C70104C0CE0102C080E0D6
:1024E00090E0CDB7DEB7EEE00C940B0F81E090E00A
:1024F000F8940C948B12FB01DC0102C001900D9248
:1025000041505040D8F70895FB01DC0101900D9235
:102510000020E1F7089510E0C2E6D0E004C0FE011B
:102520000E9489102196C336D107C9F7F894FFCFCE
:10253000574944453200000059443153444C00008F
:1025400041505A0000000000424541434F4E0000F8
:102550007777772E6769746875622E636F6D2F6861
:10256000616E64696B6F00000000000000000000F5
:10257000000000000000000000000000000000005B
:10258000000000000000000000000000000000004B
:10259000000000000000000000000000000000003B
:1025A000000000000000000000000000000000002B
:1025B000000000000000000000000000000000001B
:1025C000000000000000000000000000000000000B
:1025D0003235306D57204150525320547261636B35
:1025E0006572000000000000000000000000000014
:1025F00000000000000000000000000000000000DB
:1026000000000000000000000000000000000000CA
:1026100000000000000000000000000000000000BA
:1026200000000000000000000000000000000000AA
:10263000000000000000000000000000000000009A
:10264000000000000000000000000000000000008A
:10265000FFFF8813010000000000EB048000000071
:102660000000B3018F003C028D0003021B029B019E
:102670000000000022018F00B9006F01EA00C800CD
:10268000DC000D0A00536B657463683A202020005B
:102690002F686F6D652F68616E64696B6F2F417273
:1026A0006475696E6F2D415052532F417264756984
:1026B0006E6F2D536B6574636865732F4578616D1C
:1026C000706C652F415052535F4750535F4D69788E
:1026D00065645F5265706F72742F415052535F474B
:1026E00050535F4D697865645F5265706F72742EE8
:1026F000696E6F0055706C6F616465643A20004AC2
:10270000616E2032302032303139004750524D4313
:102710002041505253205472616E736D6974746518
:1027200072202D20537461727465642021200A0088
:1027300041542B444D4F434F4E4E4543540041545A
:102740002B444D4F53455447524F55503D302C006C
:102750002C303030302C302C303030300041542B85
:0C27600053455446494C5445523D00007E
:107E0000112484B714BE81FFF0D085E080938100F7
:107E100082E08093C00088E18093C10086E0809377
:107E2000C20080E18093C4008EE0C9D0259A86E02C
:107E300020E33CEF91E0309385002093840096BBD3
:107E4000B09BFECF1D9AA8958150A9F7CC24DD24C4
:107E500088248394B5E0AB2EA1E19A2EF3E0BF2EE7
:107E6000A2D0813461F49FD0082FAFD0023811F036
:107E7000013811F484E001C083E08DD089C08234E0
:107E800011F484E103C0853419F485E0A6D080C0E4
:107E9000853579F488D0E82EFF2485D0082F10E0AE
:107EA000102F00270E291F29000F111F8ED06801E7
:107EB0006FC0863521F484E090D080E0DECF843638
:107EC00009F040C070D06FD0082F6DD080E0C81688
:107ED00080E7D80618F4F601B7BEE895C0E0D1E017
:107EE00062D089930C17E1F7F0E0CF16F0E7DF06D8
:107EF00018F0F601B7BEE89568D007B600FCFDCFD4
:107F0000A601A0E0B1E02C9130E011968C91119780
:107F100090E0982F8827822B932B1296FA010C0160
:107F200087BEE89511244E5F5F4FF1E0A038BF0790
:107F300051F7F601A7BEE89507B600FCFDCF97BE46
:107F4000E89526C08437B1F42ED02DD0F82E2BD052
:107F50003CD0F601EF2C8F010F5F1F4F84911BD097
:107F6000EA94F801C1F70894C11CD11CFA94CF0C13
:107F7000D11C0EC0853739F428D08EE10CD085E9AC
:107F80000AD08FE07ACF813511F488E018D01DD067
:107F900080E101D065CF982F8091C00085FFFCCF94
:107FA0009093C60008958091C00087FFFCCF809118
:107FB000C00084FD01C0A8958091C6000895E0E648
:107FC000F0E098E1908380830895EDDF803219F02E
:107FD00088E0F5DFFFCF84E1DECF1F93182FE3DFCA
:107FE0001150E9F7F2DF1F91089580E0E8DFEE27F6
:047FF000FF270994CA
:027FFE00040479
:0400000300007E007B
:00000001FF
