:100000000C945D000C9485000C9485000C94850084
:100010000C9485000C9485000C9485000C9485004C
:100020000C9485000C9485000C9485000C9485003C
:100030000C9485000C9485000C9485000C9485002C
:100040000C942C020C9485000C949C020C94760267
:100050000C9485000C9485000C9485000C9485000C
:100060000C9485000C9485000000000024002700FB
:100070002A0000000000250028002B0004040404CE
:100080000404040402020202020203030303030342
:10009000010204081020408001020408102001021F
:1000A00004081020000000080002010000030407FB
:1000B0000000000000000000A60311241FBECFEFC7
:1000C000D8E0DEBFCDBF11E0A0E0B1E0EAECF9E09E
:1000D00002C005900D92AE3CB107D9F722E0AEEC1C
:1000E000B1E001C01D92A437B207E1F710E0CDE501
:1000F000D0E004C02197FE010E94D804CC35D1077E
:10010000C9F70E94CE020C94E3040C940000E6EAC6
:10011000F0E09491E2E9F0E02491EEE7F0E0E49180
:10012000EE2309F43CC0992339F1933091F038F46F
:100130009130A9F0923001F594B59F7D12C09730AF
:1001400091F09830A1F09430B9F4909180009F7DA7
:1001500003C0909180009F77909380000DC094B56C
:100160009F7794BD09C09091B0009F7703C0909194
:10017000B0009F7D9093B000F0E0EE0FFF1FEE58AF
:10018000FF4FA591B4919FB7F894811104C08C9151
:100190002095282302C0EC912E2B2C939FBF08950D
:1001A00090E0FC01E057FF4F2491FC01E458FF4F21
:1001B0008491882399F090E0880F991FFC01E859F9
:1001C000FF4FA591B491FC01EE58FF4F859194919A
:1001D0008FB7F894EC91E22BEC938FBF08958230A7
:1001E000910538F0880F991F880F991F059701977F
:1001F000F1F70895CF92DF92EF92FF920F931F9342
:10020000CF93DF936C017A018B01C0E0D0E0CE1573
:10021000DF0581F0D8016D918D01D601ED91FC9142
:100220000190F081E02DC6010995892B11F02196EE
:10023000EECF7E01C701DF91CF911F910F91FF900B
:10024000EF90DF90CF900895089580E090E00895BA
:10025000FC01538D448D252F30E0842F90E0821BCC
:10026000930B541710F0CF96089501970895FC0151
:10027000918D828D981761F0828DDF01A80FB11DDD
:100280005D968C91928D9F5F9F73928F90E0089501
:100290008FEF9FEF0895FC01918D828D981731F0BB
:1002A000828DE80FF11D858D90E008958FEF9FEF0F
:1002B0000895FC01918D228D892F90E0805C9F4FE5
:1002C000821B91098F739927089587ED91E00E9411
:1002D000590121E0892B09F420E0822F0895FC01C7
:1002E000848DDF01A80FB11DA35ABF4F2C91848DBF
:1002F00090E001968F739927848FA689B7892C93F4
:10030000A089B1898C91837080648C93938D848D46
:10031000981306C00288F389E02D80818F7D808349
:100320000895EF92FF920F931F93CF93DF93EC0109
:1003300081E0888F9B8D8C8D981305C0E889F989A1
:10034000808185FD26C0F62E0B8D10E00F5F1F4FBC
:100350000F731127E02E8C8DE8120CC00FB607FC2E
:10036000FACFE889F989808185FFF5CFCE010E9417
:100370006F01F1CF8B8DFE01E80FF11DE35AFF4FA6
:10038000F0829FB7F8940B8FEA89FB8980818062A5
:100390000AC09FB7F894EE89FF896083E889F989DC
:1003A00080818370806480839FBF81E090E0DF91D3
:1003B000CF911F910F91FF90EF900895CF93DF930E
:1003C000EC01888D8823C9F0EA89FB89808185FD4D
:1003D00005C0A889B9898C9186FD0FC00FB607FCAE
:1003E000F5CF808185FFF2CFA889B9898C9185FFEF
:1003F000EDCFCE010E946F01E7CFDF91CF9108953D
:1004000080E090E0892B29F00E94650181110C9415
:1004100000000895009769F0FC0101900020E9F7C1
:100420003197AF01481B590BBC0187ED91E00C944B
:10043000FA0080E090E00895CF93DF930E940A02D3
:10044000EC0186E191E00E940A028C0F9D1FDF9172
:10045000CF9108950E94DE041F920F920FB60F9263
:1004600011242F933F938F939F93AF93BF938091CA
:10047000D3019091D401A091D501B091D6013091D2
:10048000D20123E0230F2D3720F40196A11DB11DC9
:1004900005C026E8230F0296A11DB11D2093D201AD
:1004A0008093D3019093D401A093D501B093D6014A
:1004B0008091CE019091CF01A091D001B091D10156
:1004C0000196A11DB11D8093CE019093CF01A09301
:1004D000D001B093D101BF91AF919F918F913F9186
:1004E0002F910F900FBE0F901F9018951F920F9293
:1004F0000FB60F9211242F933F934F935F936F93F7
:100500007F938F939F93AF93BF93EF93FF9387ED69
:1005100091E00E946F01FF91EF91BF91AF919F9188
:100520008F917F916F915F914F913F912F910F909C
:100530000FBE0F901F9018951F920F920FB60F923B
:1005400011242F938F939F93EF93FF93E091E701F3
:10055000F091E8018081E091ED01F091EE0182FDE2
:1005600012C090818091F0018F5F8F732091F10113
:10057000821751F0E091F001F0E0E952FE4F958FC3
:100580008093F00101C08081FF91EF919F918F9145
:100590002F910F900FBE0F901F901895789484B5EF
:1005A000826084BD84B5816084BD85B5826085BD6F
:1005B00085B5816085BD80916E00816080936E00FD
:1005C00010928100809181008260809381008091EF
:1005D00081008160809381008091800081608093A0
:1005E00080008091B10084608093B1008091B00060
:1005F00081608093B00080917A00846080937A005B
:1006000080917A00826080937A0080917A00816084
:1006100080937A0080917A00806880937A001092AB
:10062000C1008DE00E94D00082E00E94D000E091E5
:10063000E701F091E80182E08083E091E301F0912D
:10064000E4011082E091E501F091E60180E1808310
:100650001092EF01E091EB01F091EC0186E08083D4
:10066000E091E901F091EA01808180618083E0916D
:10067000E901F091EA01808188608083E091E901DD
:10068000F091EA01808180688083E091E901F09136
:10069000EA0180818F7D808382E291E00E941C02CA
:1006A00089E191E00E940A0284E291E00E941C022A
:1006B00085E891E00E940A0280E991E00E941C0214
:1006C00082E291E00E941C028CE991E00E941C02EF
:1006D00081E3C82ED12CE12CF12C0E941E04A7012D
:1006E00096010E947504DC01CB010196A11DB11D8C
:1006F00080FD0DC081E00E94870086E691E00E94A7
:10070000EF0080E00E94870086E691E01AC081E059
:100710000E94870083EB90E00E94EF0080E00E943F
:10072000870083EB90E00E94EF0081E00E94870049
:1007300083EB90E00E94EF0080E00E94870083EB53
:1007400090E00E94EF000E940002C7CFE7EDF1E0C9
:100750001382128288EE93E0A0E0B0E08483958358
:10076000A683B78388E091E09183808385EC90E055
:100770009587848784EC90E09787868780EC90E06B
:10078000918B808B81EC90E0938B828B82EC90E05C
:10079000958B848B86EC90E0978B868B118E128ED6
:1007A000138E148E08958F929F92AF92BF92CF9224
:1007B000DF92EF92FF92CF93DF93EC016881798112
:1007C0008A819B81611571058105910521F464E29F
:1007D00079ED8BE597E02DE133EF41E050E00E94A9
:1007E000750449015A019B01AC01A7EAB1E40E94DA
:1007F00094046B017C01ACEEB4EFA50194010E945E
:10080000A204DC01CB018C0D9D1DAE1DBF1DB7FFE9
:1008100003C00197A109B04888839983AA83BB8349
:10082000BC01CD019F77DF91CF91FF90EF90DF90DA
:10083000CF90BF90AF909F908F9008958F929F928E
:10084000AF92BF92CF92DF92EF92FF926091000140
:100850007091010180910201909103016115710570
:100860008105910521F464E279ED8BE597E02DE1B6
:1008700033EF41E050E00E94750449015A019B01A9
:10088000AC01A7EAB1E40E9494046B017C01ACEED8
:10089000B4EFA50194010E94A204DC01CB018C0DF0
:1008A0009D1DAE1DBF1DB7FF03C00197A109B04834
:1008B0008093000190930101A0930201B093030182
:1008C000BC01CD019F77FF90EF90DF90CF90BF905C
:1008D000AF909F908F9008956093000170930101F5
:1008E00080930201909303010895052E97FB1EF457
:1008F00000940E948C0457FD07D00E94A70407FCB7
:1009000003D04EF40C948C0450954095309521956D
:100910003F4F4F4F5F4F089590958095709561952B
:100920007F4F8F4F9F4F08950E94C904A59F900D40
:10093000B49F900DA49F800D911D11240895B7FFC1
:100940000C9494040E949404821B930B0895A1E2DA
:100950001A2EAA1BBB1BFD010DC0AA1FBB1FEE1F39
:10096000FF1FA217B307E407F50720F0A21BB30B84
:10097000E40BF50B661F771F881F991F1A9469F700
:1009800060957095809590959B01AC01BD01CF015C
:100990000895A29FB001B39FC001A39F700D811D58
:1009A0001124911DB29F700D811D1124911D089578
:1009B000EE0FFF1F0590F491E02D099481E090E087
:0A09C000F8940C94E304F894FFCFC0
:1009CA0001000000000000009101FA002801DE0188
:1009DA00590137014B010D0A00536B657463683A7C
:1009EA00202020002F686F6D652F68616E64696B27
:1009FA006F2F41726475696E6F2D415052532F41AA
:100A0A00726475696E6F2D536B6574636865732FB5
:100A1A00546573742F52616E646F6D5F54776F5FA4
:100A2A00546F6E65735F546573742F52616E646F91
:100A3A006D5F54776F5F546F6E65735F546573743F
:100A4A002E696E6F0055706C6F616465643A2000A0
:100A5A004A616E20313920323031390052616E6478
:100A6A006F6D2054776F20546F6E657320546573D1
:100A7A0074203132303020487A2026203234303007
:0E0A8A0020487A202D20537461727465640038
:107E0000112484B714BE81FFF0D085E080938100F7
:107E100082E08093C00088E18093C10086E0809377
:107E2000C20080E18093C4008EE0C9D0259A86E02C
:107E300020E33CEF91E0309385002093840096BBD3
:107E4000B09BFECF1D9AA8958150A9F7CC24DD24C4
:107E500088248394B5E0AB2EA1E19A2EF3E0BF2EE7
:107E6000A2D0813461F49FD0082FAFD0023811F036
:107E7000013811F484E001C083E08DD089C08234E0
:107E800011F484E103C0853419F485E0A6D080C0E4
:107E9000853579F488D0E82EFF2485D0082F10E0AE
:107EA000102F00270E291F29000F111F8ED06801E7
:107EB0006FC0863521F484E090D080E0DECF843638
:107EC00009F040C070D06FD0082F6DD080E0C81688
:107ED00080E7D80618F4F601B7BEE895C0E0D1E017
:107EE00062D089930C17E1F7F0E0CF16F0E7DF06D8
:107EF00018F0F601B7BEE89568D007B600FCFDCFD4
:107F0000A601A0E0B1E02C9130E011968C91119780
:107F100090E0982F8827822B932B1296FA010C0160
:107F200087BEE89511244E5F5F4FF1E0A038BF0790
:107F300051F7F601A7BEE89507B600FCFDCF97BE46
:107F4000E89526C08437B1F42ED02DD0F82E2BD052
:107F50003CD0F601EF2C8F010F5F1F4F84911BD097
:107F6000EA94F801C1F70894C11CD11CFA94CF0C13
:107F7000D11C0EC0853739F428D08EE10CD085E9AC
:107F80000AD08FE07ACF813511F488E018D01DD067
:107F900080E101D065CF982F8091C00085FFFCCF94
:107FA0009093C60008958091C00087FFFCCF809118
:107FB000C00084FD01C0A8958091C6000895E0E648
:107FC000F0E098E1908380830895EDDF803219F02E
:107FD00088E0F5DFFFCF84E1DECF1F93182FE3DFCA
:107FE0001150E9F7F2DF1F91089580E0E8DFEE27F6
:047FF000FF270994CA
:027FFE00040479
:0400000300007E007B
:00000001FF
