:100000000C9463000C948B000C948B000C94B40340
:100010000C94B4030C94B4030C948B000C948B00DC
:100020000C948B000C948B000C948B000C948B0024
:100030000C948B000C948B000C948B000C948B0014
:100040000C9492060C948B000C9482030C945C0329
:100050000C948B000C948B000C948B000C948B00F4
:100060000C948B000C948B000000000024002700EF
:100070002A0000000008000201000003040700003D
:1000800000000000000000000000230026002900FE
:1000900000000000250028002B00040404040404D0
:1000A0000404020202020202030303030303010227
:1000B00004081020408001020408102001020408F6
:1000C0001020EF09D30911241FBECFEFD8E0DEBF07
:1000D000CDBF15E0A0E0B1E0ECE2F0E202C0059097
:1000E0000D92A838B107D9F726E0A8E8B5E001C01D
:1000F0001D92A739B207E1F710E0C2E6D0E004C0D4
:100100002197FE010E94070EC136D107C9F70E9450
:10011000DC060C9409100C9400000895CF92DF9235
:10012000EF92FF920F931F93CF93DF936C017A01AD
:100130008B01C0E0D0E0CE15DF0581F0D8016D91D4
:100140008D01D601ED91FC910190F081E02DC60169
:100150000995892B11F02196EECF7E01C701DF9121
:10016000CF911F910F91FF90EF90DF90CF90089566
:10017000FC01538D448D252F30E0842F90E0821BAD
:10018000930B541710F0CF96089501970895FC0132
:10019000918D828D981761F0828DDF01A80FB11DBE
:1001A0005D968C91928D9F5F9F73928F90E00895E2
:1001B0008FEF9FEF0895FC01918D828D981731F09C
:1001C000828DE80FF11D858D90E008958FEF9FEFF0
:1001D0000895FC01918D228D892F90E0805C9F4FC6
:1001E000821B91098F73992708958EEC95E00E94E8
:1001F000E90021E0892B09F420E0822F0895FC0119
:10020000848DDF01A80FB11DA35ABF4F2C91848D9F
:1002100090E001968F739927848FA689B7892C93D4
:10022000A089B1898C91837080648C93938D848D27
:10023000981306C00288F389E02D80818F7D80832A
:100240000895EF92FF920F931F93CF93DF93EC01EA
:1002500081E0888F9B8D8C8D981305C0E889F98982
:10026000808185FD26C0F62E0B8D10E00F5F1F4F9D
:100270000F731127E02E8C8DE8120CC00FB607FC0F
:10028000FACFE889F989808185FFF5CFCE010E94F8
:10029000FF00F1CF8B8DFE01E80FF11DE35AFF4FF8
:1002A000F0829FB7F8940B8FEA89FB898081806286
:1002B0000AC09FB7F894EE89FF896083E889F989BD
:1002C00080818370806480839FBF81E090E0DF91B4
:1002D000CF911F910F91FF90EF900895CF93DF93EF
:1002E000EC01888D8823C9F0EA89FB89808185FD2E
:1002F00005C0A889B9898C9186FD0FC00FB607FC8F
:10030000F5CF808185FFF2CFA889B9898C9185FFCF
:10031000EDCFCE010E94FF00E7CFDF91CF9108958E
:1003200080E090E0892B29F00E94F50081110C9467
:10033000000008952091CC053091CD05281739078C
:1003400071F49091CA058091CB05981741F0E09126
:10035000CA05F0E0E657FA4F808190E008958FEFEC
:100360009FEF089508951F93CF93DF93DC015C9670
:100370008D919C915D97009739F421E030E01396C0
:100380003C932E9312973BC05196ED91FC9152975E
:1003900050962C915097322F30951FB75E964C9106
:1003A0005E97742F727041FD6095F89440817723B9
:1003B00011F0422B01C043234083EC012197F1F758
:1003C00048E0508160FF02C0522B01C0532350838C
:1003D000EC012197F1F76695415099F780817723D9
:1003E00019F08323808302C0282B20831FBF5C96D3
:1003F0008D919C915D970197F1F781E090E0DF91FD
:10040000CF911F9108952091CC053091CD052817EB
:10041000390771F48091CB052091CA0590E0805C8A
:100420009F4F821B910960E470E00E94DF0D0895E8
:1004300080E090E008952091CC053091CD052817FB
:100440003907B9F49091CA058091CB05981789F0C6
:10045000E091CA05F0E0E657FA4F80812091CA0585
:1004600030E02F5F3F4F2F7333272093CA0590E072
:1004700008958FEF9FEF089580E090E00895611553
:10048000710579F0FB0101900020E9F73197AF0188
:10049000461B570BDC01ED91FC910280F381E02DAE
:1004A000099480E090E008950F931F93CF93DF931A
:1004B000EC010E943F028C0160E974E0CE010E94D1
:1004C0003F02800F911FDF91CF911F910F910895EF
:1004D0000E94F40F61E08CE00E94C4058BEC90E078
:1004E0000E944D0660E08CE00E94C4058BEC90E019
:1004F0000E944D0661E08CE00E94C4058BEC90E008
:100500000E944D0660E08CE00E94C4058BEC90E0F8
:100510000C944D0661E08CE00E94C40586E991E0F0
:100520000E944D0660E08CE00E94C40586E991E0DF
:100530000C944D06EF92FF920F931F93CF93DF938E
:10054000D82FE62E08E010E0FF24F3944D2F4170E1
:100550002091000130910101C901969587952427CA
:1005600020FF04C028E0822724E89227909301010D
:1005700080930001C0918905442381F0CC2319F0B8
:100580000E948A0202C00E946A02809188058F5FE1
:1005900080938805EE2071F0853061F4CF25C093FB
:1005A0008905CC2319F00E948A0202C00E946A02C7
:1005B00010928805D6950150110941F6DF91CF912F
:1005C0001F910F91FF90EF9008950F931F93CF937A
:1005D000DF93EC0188819981009729F02A813B8182
:1005E0002617370788F48B016F5F7F4F0E942E0F0D
:1005F000009761F0998388831B830A832C813D8156
:10060000232B11F4FC01108281E001C080E0DF9116
:10061000CF911F910F9108958F929F92AF92BF92A9
:10062000EF92FF920F931F93CF93DF93CDB7DEB777
:10063000A1970FB6F894DEBF0FBECDBF7C01FA01C3
:10064000CB0119A2223008F42AE08E010F5D1F4F62
:10065000822E912CA12CB12CBF01A50194010E94E6
:10066000A00CF901CA01015011096A3014F4605D4F
:1006700001C0695CD8016C93232B242B252B61F7D7
:10068000B801C7010E943F02A1960FB6F894DEBFE1
:100690000FBECDBFDF91CF911F910F91FF90EF90D3
:1006A000BF90AF909F908F900895DC01ED91FC91E9
:1006B0000190F081E02D09941F920F920FB60F92D6
:1006C00011242F933F934F935F936F937F938F9357
:1006D0009F93AF93BF93EF93FF938EEC95E00E94AF
:1006E000FF00FF91EF91BF91AF919F918F917F910B
:1006F0006F915F914F913F912F910F900FBE0F908F
:100700001F9018951F920F920FB60F9211242F93DE
:100710008F939F93EF93FF93E091DE05F091DF05B8
:100720008081E091E405F091E50582FD12C09081A1
:100730008091E7058F5F8F732091E805821751F054
:10074000E091E705F0E0E253FA4F958F8093E705DB
:1007500001C08081FF91EF919F918F912F910F9018
:100760000FBE0F901F9018951F920F920FB60F9209
:1007700011242F933F934F935F936F937F938F93A6
:100780009F93AF93BF93EF93FF93E091CC05F091CC
:10079000CD05309709F451C0968DA685B78585851E
:1007A00091FF04C09C91892329F447C09C9189231F
:1007B00009F043C0A389B4899C91858980958923D8
:1007C0008C93868997890197F1F7608D718DA68545
:1007D000B785558538E020E0CB010197F1F7822FEE
:1007E00090E095958795282F4C91452309F0206836
:1007F000315091F7868D81FD20958091CB0590E059
:1008000001968F7399273091CA05381749F0A09146
:10081000CB05B0E0A657BA4F2C938093CB0503C00D
:10082000868D8160868F828D938D0197F1F7A389E4
:10083000B4899C918589892B8C93FF91EF91BF910D
:10084000AF919F918F917F916F915F914F913F9168
:100850002F910F900FBE0F901F9018953FB7F894EF
:1008600080918B0690918C06A0918D06B0918E069A
:1008700026B5A89B05C02F3F19F00196A11DB11DFB
:100880003FBFBA2FA92F982F8827820F911DA11D36
:10089000B11DBC01CD0142E0660F771F881F991F73
:1008A0004A95D1F708952FB7F89480918F069091CB
:1008B0009006A0919106B09192062FBF8093730687
:1008C00090937406A0937506B09376068BE696E037
:1008D0000E941B0297FF26C02FB7F89480918F06C5
:1008E00090919006A0919106B09192062FBF4091F1
:1008F0007306509174066091750670917606841B9C
:10090000950BA60BB70B40916F0650917006609146
:1009100071067091720684179507A607B707B0F2A3
:100920008FEF9FEF08950F931F93CF93DF93EC0109
:100930008B010E94E5022881398181110DC02115AA
:10094000310519F0C9010E94A50E198218821D8275
:100950001C821B821A8207C01D830C8362E974E02B
:10096000C9010E940210CE01DF91CF911F910F911A
:1009700008958F929F92AF92BF92CF92DF92EF92A3
:10098000FF920F931F93CF93182FC0E060E070E0A9
:1009900080E09FE3C11741F020E030E040E251E405
:1009A0000E943E0DCF5FF6CF27ED33E640E153E4E2
:1009B0000E94D20C6B017C010E94B00D4B015C01C6
:1009C0002AE0AB01BC018BE696E00E940C038C018F
:1009D000CC23C9F1C501B4010E943C0B9B01AC01C1
:1009E000C701B6010E94D10C6B017C016EE28BE65F
:1009F00096E00E945503080F191F20E030E040E206
:100A000051E4C701B6010E94790B4B015C010E94C1
:100A1000B00D6B01E12CF12C2AE0B701A6018BE6A9
:100A200096E00E940C03080F191FC701B6010E942F
:100A30003C0B9B01AC01C501B4010E94D10C6B01C0
:100A40007C01C150D1F6C801CF911F910F91FF9049
:100A5000EF90DF90CF90BF90AF909F908F900895D0
:100A60000F931F93CF93DF93CDB7DEB72E970FB6BB
:100A7000F894DEBF0FBECDBF18861F821A86198676
:100A80001C861B8660E070E0CE0107960E949304EE
:100A90008BE696E00E94030218161906CCF78BE647
:100AA00096E00E940302181619060CF05EC01A8226
:100AB00019821C821B821E821D8260E070E0CE01C2
:100AC00001960E9493040E94530497FD1BC08D87DA
:100AD0001E860D811E810F5F1F4FB801CE0101964A
:100AE0000E94E502882379F329813A818D819E81D4
:100AF000BE01635F7F4F820F931F0E9402101E830F
:100B00000D83E1CF8F8198850097A9F069817A8163
:100B10006115710571F049855A852D813E81421715
:100B2000530738F00E9402108D819E819C878B872D
:100B300010C00E94A50E89819A8198878F838B812E
:100B40009C819A8789878D819E819C878B871A8259
:100B5000198289819A810E94A50E4B855C856F81DF
:100B600078858EEC95E00E948E008F8198850E949A
:100B7000A50E2E960FB6F894DEBF0FBECDBFDF9147
:100B8000CF911F910F91089590E0FC01EE58FF4F17
:100B90002491FC01E255FF4F3491FC01E656FF4FD2
:100BA000E491EE2309F43CC0222339F1233091F083
:100BB00038F42130A9F0223001F584B58F7D12C0C0
:100BC000273091F02830A1F02430B9F480918000D2
:100BD0008F7D03C0809180008F77809380000DC04F
:100BE00084B58F7784BD09C08091B0008F7703C032
:100BF0008091B0008F7D8093B000F0E0EE0FFF1F7A
:100C0000E057FF4FA591B4919FB7F894611104C0CC
:100C10008C913095382302C0EC913E2B3C939FBFC2
:100C20000895CF93DF9390E0FC01E255FF4F2491AC
:100C3000FC01E656FF4F8491882361F190E0880F14
:100C4000991FFC01E859FF4FC591D491FC01E05771
:100C5000FF4FA591B491611109C09FB7F8948881A5
:100C6000209582238883EC912E230BC0623061F49F
:100C70009FB7F8948881322F309583238883EC9135
:100C80002E2B2C939FBF06C08FB7F894E8812E2B94
:100C900028838FBFDF91CF9108958230910538F07E
:100CA000880F991F880F991F05970197F1F70895ED
:100CB0008F929F92AF92BF92CF92DF92EF92FF926C
:100CC0006B017C010E942E044B015C01C114D10414
:100CD000E104F104F1F00E942E04DC01CB0188193B
:100CE0009909AA09BB09883E9340A105B10570F393
:100CF00021E0C21AD108E108F10888EE880E83E0ED
:100D0000981EA11CB11CC114D104E104F10419F70F
:100D1000DDCFFF90EF90DF90CF90BF90AF909F908E
:100D20008F9008951F920F920FB60F9211242F9358
:100D30003F938F939F93AF93BF9380918F06909132
:100D40009006A0919106B091920630918A0623E018
:100D5000230F2D3720F40196A11DB11D05C026E8F3
:100D6000230F0296A11DB11D20938A0680938F0642
:100D700090939006A0939106B093920680918B0673
:100D800090918C06A0918D06B0918E060196A11DC2
:100D9000B11D80938B0690938C06A0938D06B09323
:100DA0008E06BF91AF919F918F913F912F910F90A0
:100DB0000FBE0F901F901895789484B5826084BD03
:100DC00084B5816084BD85B5826085BD85B581604F
:100DD00085BD80916E00816080936E0010928100CD
:100DE0008091810082608093810080918100816088
:100DF0008093810080918000816080938000809149
:100E0000B10084608093B1008091B00081608093D4
:100E1000B00080917A00846080937A0080917A009B
:100E2000826080937A0080917A00816080937A005A
:100E300080917A00806880937A001092C10061E00E
:100E40008DE00E94110661E08CE00E94110660E0D6
:100E50008BE00E94110661E08AE00E94110661E0C9
:100E600087E00E94110661E086E00E94110661E0C1
:100E700085E00E94110660E087E00E94C40561E001
:100E800086E00E94C40560E085E00E94C405E09110
:100E9000DE05F091DF0582E08083E091DA05F091D4
:100EA000DB051082E091DC05F091DD0580E18083B7
:100EB0001092E605E091E205F091E30586E080837B
:100EC000E091E005F091E105808180618083E0910F
:100ED000E005F091E105808188608083E091E00584
:100EE000F091E105808180688083E091E005F091D8
:100EF000E10580818F7D80831092860610928506A1
:100F00001092840610928306109282061092810637
:100F10008DE991E0909388068093870690917706FB
:100F2000963108F058C02DEB30E0309382062093C4
:100F300081062BE931E030938406209383062CE26E
:100F400031E0309386062093850640916800983002
:100F500058F031E09E3008F430E021E0822F01C0EB
:100F6000880F3A95EAF701C084E0842B80936800EB
:100F7000983038F09E3040F0963148F020E030E074
:100F800008C02DE630E005C02BE630E002C02CE6BC
:100F900030E030937F0620937E06983030F481E075
:100FA00001C0880F9A95EAF70EC0292F30E09E30D5
:100FB00018F42850310902C02E50310981E001C0D7
:100FC000880F2A95EAF78093800680918706909192
:100FD00088060197F1F78091850690918606892B06
:100FE00049F1E091CC05F091CD0586E0EB36F807AC
:100FF00009F1309739F0A389B4899C91858980954E
:1010000089238C93809189068E7F80938906109224
:10101000CB051092CA058BE696E09093CD058093A0
:10102000CC05E0917E06F0917F069081809180064C
:10103000892B80836CE974E08EEC95E00E94540269
:1010400063E974E08EEC95E00E943F026EE974E083
:101050008EEC95E00E94540261E075E08EEC95E024
:101060000E943F026CE075E08EEC95E00E94540215
:101070006CE974E08EEC95E00E94540268E175E042
:101080008EEC95E00E9454026AEF70E080E090E000
:101090000E94580668E475E08BE696E00E945402D0
:1010A00068E475E08BE696E00E94540268E475E01F
:1010B0008BE696E00E9454020E94300568EE73E0D1
:1010C00080E090E00E94580666E575E08BE696E0C9
:1010D0000E943F0284E00E94B9046CE28BE696E035
:1010E0000E94550384E00E94B90468E675E08BE62F
:1010F00096E00E9454020E94300560E28EEC95E07A
:101100000E94550360E974E08EEC95E00E943F0276
:1011100068EE73E080E090E00E9458062EE7422ED1
:1011200023E1522E612C712C3FE7832E912CA12CB0
:10113000B12C22242A94322C0E94E50AA3019201A8
:101140000E94370CDC01CB010A96A11DB11D9093C2
:101150000501809304010E94E50AA50194010E9403
:10116000370CDC01CB010196A11DB11D9093030149
:101170008093020195E7E92E95E0F92EE701699148
:101180008EEC95E00E945503E5E0CB37DE07B9F71A
:101190006DE28EEC95E00E9455032AE041E050E0BC
:1011A00060E070E08EEC95E00E940C036EE38EEC44
:1011B00095E00E9455038CE7C82E85E0D82EE60105
:1011C00069918EEC95E00E945503F5E0C038DF0789
:1011D000B9F76CE28EEC95E00E94550301E815E04A
:1011E000E80169918EEC95E00E94550385E0C638D0
:1011F000D807B9F76DE28EEC95E00E9455032AE01E
:1012000042E050E060E070E08EEC95E00E940C035C
:101210006AE38EEC95E00E9455036CE28EEC95E05B
:101220000E945503C0E0D0E080910201909103013B
:10123000C817D90768F49E01205F3E4FF901E80FF7
:10124000F91F60818EEC95E00E9455032196ECCF4A
:1012500060E28EEC95E00E94550360E974E08EEC4C
:1012600095E00E943F0261E08DE00E94C40561E0CC
:1012700087E00E94C40564E670E080E090E00E9490
:101280005806C4E6D0E060E08EE70E949A022197FB
:10129000D1F73092010120920001F60181916F0196
:1012A00061E0880F0E949A02F0E8CF16F5E0DF06B1
:1012B000A1F761E080E40E949A0261E080E40E946C
:1012C0009A0261E080E60E949A02F70181917F0113
:1012D00061E0880F0E949A02FBE7EF16F5E0FF0637
:1012E000A1F761E082E60E949A02F80181918F01E4
:1012F00061E0880F0E949A02F5E006381F07A9F7FF
:1013000061E080E40E949A0261E085E60E949A0210
:1013100061E083E00E949A0261E080EF0E949A02FD
:1013200061E08CE20E949A02009102011091030197
:10133000E801C05FDE4F7E01CE018E199F09801744
:1013400091072CF461E089910E949A02F5CF809177
:101350000001C091010161E080950E949A0261E064
:101360008C2F80950E949A0260E08EE70E949A027C
:1013700060E08EE70E949A0260E08EE70E949A0287
:1013800060E087E00E94C40560E08DE00E94C40533
:10139000609104017091050180E090E00E94580680
:1013A0000E949001C9CE82E894E090936C068093ED
:1013B0006B068091CC059091CD058B56964071F4CB
:1013C000E0917E06F0917F06908180918006809565
:1013D000892380831092CD051092CC050895109238
:1013E000D1051092D00588EE93E0A0E0B0E08093A4
:1013F000D2059093D305A093D405B093D50520E7EB
:1014000034E03093CF052093CE0525EC30E03093C7
:10141000DB052093DA0524EC30E03093DD052093E2
:10142000DC0520EC30E03093DF052093DE0521EC75
:1014300030E03093E1052093E00522EC30E030937A
:10144000E3052093E20526EC30E03093E505209398
:10145000E4051092E7051092E8051092E905109254
:10146000EA0510926E0610926D0680936F069093B7
:101470007006A0937106B093720682E894E0909390
:101480006C0680936B061092820610928106109271
:10149000840610928306109286061092850610929A
:1014A000880610928706609189066E7F6D7F609333
:1014B00089066695617081E068278AE00E94C4050C
:1014C00061E08AE00E941106E8EBF0E0E491E0932D
:1014D0007B06E4EAF0E0E491F0E0EE0FFF1FE05756
:1014E000FF4F8591949190937D0680937C0660E0F8
:1014F0008BE00E9411068091890681FD04C061E0A5
:101500008BE00E94C4058BE080937706E9EBF0E066
:10151000E491E0937806E5EAF0E0E491F0E0EE0F84
:10152000FF1FEA57FF4F8591949190937A0680931D
:10153000790608958F929F92AF92BF92CF92DF92D9
:10154000EF92FF92CF93DF93EC01688179818A81DA
:101550009B81611571058105910521F464E279EDA6
:101560008BE597E02DE133EF41E050E00E94370C2E
:1015700049015A019B01AC01A7EAB1E40E94560C53
:101580006B017C01ACEEB4EFA50194010E94640CE8
:10159000DC01CB018C0D9D1DAE1DBF1DB7FF03C02F
:1015A0000197A109B04888839983AA83BB83BC01B2
:1015B000CD019F77DF91CF91FF90EF90DF90CF909B
:1015C000BF90AF909F908F9008958F929F92AF920F
:1015D000BF92CF92DF92EF92FF92609106017091DD
:1015E000070180910801909109016115710581053C
:1015F000910521F464E279ED8BE597E02DE133EF7D
:1016000041E050E00E94370C49015A019B01AC01B6
:10161000A7EAB1E40E94560C6B017C01ACEEB4EF7A
:10162000A50194010E94640CDC01CB018C0D9D1D71
:10163000AE1DBF1DB7FF03C00197A109B04880933D
:10164000060190930701A0930801B0930901BC0122
:10165000CD019F77FF90EF90DF90CF90BF90AF903C
:101660009F908F9008956093060170930701809377
:101670000801909309010895E89409C097FB3EF48E
:1016800090958095709561957F4F8F4F9F4F9923CF
:10169000A9F0F92F96E9BB279395F695879577954D
:1016A0006795B795F111F8CFFAF4BB0F11F460FF0D
:1016B0001BC06F5F7F4F8F4F9F4F16C0882311F065
:1016C00096E911C0772321F09EE8872F762F05C079
:1016D000662371F096E8862F70E060E02AF09A9514
:1016E000660F771F881FDAF7880F9695879597F909
:1016F00008950E948C0B0C94FD0B0E94EF0B38F0A8
:101700000E94F60B20F0952311F00C94E60B0C943C
:10171000EC0B11240C94310C0E940E0C70F3959F6D
:10172000C1F3950F50E0551F629FF001729FBB27D8
:10173000F00DB11D639FAA27F00DB11DAA1F649F74
:101740006627B00DA11D661F829F2227B00DA11D27
:10175000621F739FB00DA11D621F839FA00D611DAD
:10176000221F749F3327A00D611D231F849F600DCE
:10177000211D822F762F6A2F11249F5750409AF0F7
:10178000F1F088234AF0EE0FFF1FBB1F661F771F83
:10179000881F91505040A9F79E3F510580F00C944E
:1017A000E60B0C94310C5F3FE4F3983ED4F386953E
:1017B00077956795B795F795E7959F5FC1F7FE2BEE
:1017C000880F911D9695879597F9089597F99F67CA
:1017D00080E870E060E008959FEF80EC08950024B9
:1017E0000A941616170618060906089500240A9486
:1017F00012161306140605060895092E0394000C0C
:1018000011F4882352F0BB0F40F4BF2B11F460FF9A
:1018100004C06F5F7F4F8F4F9F4F089557FD9058C3
:10182000440F551F59F05F3F71F04795880F97FBA4
:10183000991F61F09F3F79F087950895121613065E
:101840001406551FF2CF4695F1DF08C0161617068D
:101850001806991FF1CF86957105610508940895C2
:10186000E894BB2766277727CB0197F90895052EC3
:1018700097FB1EF400940E944E0C57FD07D00E9467
:10188000A00C07FC03D04EF40C944E0C50954095E0
:10189000309521953F4F4F4F5F4F0895909580951C
:1018A000709561957F4F8F4F9F4F08950E94C20C96
:1018B000A59F900DB49F900DA49F800D911D1124A4
:1018C0000895B7FF0C94560C0E94560C821B930B84
:1018D00008952F923F924F925F926F927F928F92D4
:1018E0009F92AF92BF92CF92DF92EF92FF920F93AF
:1018F0001F93CF93DF93CDB7DEB7CA1BDB0B0FB6B9
:10190000F894DEBF0FBECDBF09942A883988488875
:101910005F846E847D848C849B84AA84B984C8840B
:10192000DF80EE80FD800C811B81AA81B981CE0F02
:10193000D11D0FB6F894DEBF0FBECDBFED010895E7
:10194000A1E21A2EAA1BBB1BFD010DC0AA1FBB1FC3
:10195000EE1FFF1FA217B307E407F50720F0A21B35
:10196000B30BE40BF50B661F771F881F991F1A94A2
:1019700069F760957095809590959B01AC01BD01CC
:10198000CF010895A29FB001B39FC001A39F700D26
:10199000811D1124911DB29F700D811D1124911D77
:1019A00008955058BB27AA270E94E90C0C94FD0B00
:1019B0000E94EF0B38F00E94F60B20F039F49F3FA5
:1019C00019F426F40C94EC0B0EF4E095E7FB0C9460
:1019D000E60BE92F0E940E0C58F3BA176207730743
:1019E0008407950720F079F4A6F50C94300C0EF4DA
:1019F000E0950B2EBA2FA02D0B01B90190010C011F
:101A0000CA01A0011124FF27591B99F0593F50F436
:101A1000503E68F11A16F040A22F232F342F44278E
:101A2000585FF3CF469537952795A795F040539586
:101A3000C9F77EF41F16BA0B620B730B840BBAF056
:101A40009150A1F0FF0FBB1F661F771F881FC2F7C1
:101A50000EC0BA0F621F731F841F48F487957795D5
:101A60006795B795F7959E3F08F0B0CF9395880F8F
:101A700008F09927EE0F9795879508950E94520DCB
:101A80000C94FD0B0E94F60B58F00E94EF0B40F0F7
:101A900029F45F3F29F00C94E60B51110C94310CA2
:101AA0000C94EC0B0E940E0C68F39923B1F35523B0
:101AB00091F3951B550BBB27AA2762177307840761
:101AC00038F09F5F5F4F220F331F441FAA1FA9F3F7
:101AD00035D00E2E3AF0E0E832D091505040E695E5
:101AE000001CCAF72BD0FE2F29D0660F771F881F46
:101AF000BB1F261737074807AB07B0E809F0BB0B39
:101B0000802DBF01FF2793585F4F3AF09E3F51054C
:101B100078F00C94E60B0C94310C5F3FE4F3983EA4
:101B2000D4F3869577956795B795F7959F5FC9F735
:101B3000880F911D9695879597F90895E1E0660FB6
:101B4000771F881FBB1F621773078407BA0720F02F
:101B5000621B730B840BBA0BEE1F88F7E095089598
:101B60000E94160C88F09F5798F0B92F9927B7510B
:101B7000B0F0E1F0660F771F881F991F1AF0BA9531
:101B8000C9F714C0B13091F00E94300CB1E0089553
:101B90000C94300C672F782F8827B85F39F0B93F45
:101BA000CCF3869577956795B395D9F73EF49095E4
:101BB0008095709561957F4F8F4F9F4F089597FB4C
:101BC000072E16F4009407D077FD09D00E94F30D7C
:101BD00007FC05D03EF4909581959F4F0895709530
:101BE00061957F4F0895AA1BBB1B51E107C0AA1F37
:101BF000BB1FA617B70710F0A61BB70B881F991FAE
:101C00005A95A9F780959095BC01CD010895EE0FE6
:101C1000FF1F0590F491E02D09940F931F93CF932C
:101C2000DF938230910510F482E090E0E091950618
:101C3000F091960620E030E0A0E0B0E0309719F196
:101C4000408151810281138148175907C8F08417D8
:101C5000950769F4109731F012960C93129713962A
:101C60001C9327C0009395061093960622C0211559
:101C7000310519F04217530718F49A01BD01EF011D
:101C8000DF01F801DBCF21153105F9F0281B390BF5
:101C90002430310580F48A819B816115710521F022
:101CA000FB019383828304C09093960680939506EC
:101CB000FE01329644C0FE01E20FF31F819391931F
:101CC00022503109398328833AC0209193063091FC
:101CD0009406232B41F420910C0130910D01309397
:101CE00094062093930620910A0130910B0121154F
:101CF000310541F42DB73EB740910E0150910F01CF
:101D0000241B350BE0919306F0919406E217F3073C
:101D1000A0F42E1B3F0B2817390778F0AC014E5F5B
:101D20005F4F2417350748F04E0F5F1F50939406FE
:101D3000409393068193919302C0E0E0F0E0CF01DD
:101D4000DF91CF911F910F910895CF93DF9300976B
:101D500009F481C0FC01329713821282A09195068A
:101D6000B0919606109781F420813181820F931FE4
:101D700020919306309194062817390751F5F09376
:101D80009406E093930667C0ED0120E030E0CE17A3
:101D9000DF0740F44A815B819E0141155105F1F056
:101DA000EA01F5CFD383C28340815181840F951F0F
:101DB000C817D90759F488819981840F951F029615
:101DC000918380838A819B8193838283211531054E
:101DD00029F4F0939606E09395063DC0E901FB8354
:101DE000EA8349915991C40FD51FEC17FD0761F49F
:101DF00080819181840F951F0296E90199838883E0
:101E0000828193819B838A83E0E0F0E012968D913A
:101E10009C911397009719F0FD01DC01F7CF8D918C
:101E20009C9111979D012E5F3F4F820F931F209130
:101E30009306309194062817390769F4309729F4EE
:101E4000109296061092950602C013821282B093E9
:101E50009406A0939306DF91CF910895A0E0B0E09F
:101E6000E4E3FFE00C946D0CEC01009721F4CB014E
:101E70000E940D0EB4C0FC01E60FF71F9C0122501A
:101E80003109E217F30708F4A8C0D9010D911C919C
:101E9000119706171707B0F00530110508F49BC01D
:101EA000C80104978617970708F495C002501109D6
:101EB000061B170B019311936D937C93CF010E9426
:101EC000A50E89C05B01A01AB10A4C01800E911EBB
:101ED000A0919506B0919606612C712CE12CF12C05
:101EE000109709F446C08D919C911197A815B905DA
:101EF000B1F56C0142E0C40ED11CCA14DB0478F1C8
:101F00004C018A189B08640142E0C40ED11C129651
:101F1000BC9012971396AC91B5E0CB16D10440F06B
:101F2000B282A38391828082D9016D937C9309C090
:101F30000E5F1F4F800F911FF90191838083EB2D5E
:101F4000FA2FE114F10431F0D7011396FC93EE93CC
:101F5000129741C0F0939606E09395063CC0681630
:101F6000790608F43C017D0112960D90BC91A02DDC
:101F7000B7CF809193069091940688169906E1F464
:101F800066167706C8F480910A0190910B010097BC
:101F900041F48DB79EB740910E0150910F01841B03
:101FA000950BE817F907C8F4F0939406E0939306AD
:101FB000F901718360830FC0CB010E940D0E7C017B
:101FC000009759F0A801BE010E94F90FCE010E94AE
:101FD000A50EC70104C0CE0102C080E090E0CDB7DD
:101FE000DEB7EEE00C94890C81E090E0F8940C945C
:101FF0000910FB01DC0102C001900D9241505040DC
:10200000D8F70895FB01DC0101900D920020E1F763
:10201000089510E0C2E6D0E004C0FE010E94070E61
:0C2020002196C336D107C9F7F894FFCF12
:10202C00FFFF90018813010000000000970680005C
:10203C0062304E577441584C4B6A30536E3857527D
:10204C0073616B7A5153384A4E32357A414166335B
:10205C006D6435494C61597479366A765A48727197
:10206C00315155314357664336744B4F4D59376395
:10207C0046436F706C6139736E30626E32367A63C0
:10208C0064397152484657666C714D636D4D777863
:10209C00395A446D7A7872733463666A694D6F7815
:1020AC00345230704E434230666D3236674456635C
:1020BC00644D435A63564F6E6F764C4457556C467D
:1020CC00484C306D32554C6A3353564A6F6E45341A
:1020DC007377496C656D76326D6956464A33686A1A
:1020EC004554683534637562704A6865666848742F
:1020FC004F476C77777464363450696778736A7AB3
:10210C0042336F584936744A5233734364383473CC
:10211C0068655169733244726E425A506434705916
:10212C00645A7676366E783031684465514E69550E
:10213C005947696C414862376364716C45494D7706
:10214C00684856617149676E34334A4F77517A53F8
:10215C004D474F57764162466453784C796F5564BE
:10216C00387259657956574878573374794A5337CA
:10217C00776A576A73723155563352436B50424CDF
:10218C003458684D70636556337A307A75367939C0
:10219C0072514757784277564162426C694F6F369D
:1021AC0033306C6B646D77526B754D4230494E4ECB
:1021BC00635334436A454C597A7356516E456E5885
:1021CC00354F4D43727944646246454777437044BA
:1021DC004569465045546C503445657173594936C0
:1021EC0041434952734D39413862756631656563B7
:1021FC007277424B676B54335479306D486C4F6A2D
:10220C006334696242694A434A423576547A764568
:10221C006251646667734C47756266504C3159382D
:10222C0056623550417A774347566F7457785550FC
:10223C005550616D476742657A585A344A624F412E
:10224C006255665847454D317070755274616D38E2
:10225C007A6B346550457873316363443471756DB2
:10226C004E74307076664557794369497256754C91
:10227C00414B3154476F4F47397245305530774396
:10228C00614C494C6C6D4C695475315574504D53BF
:10229C00546D31735A7A454164756E454E4D6D4D92
:1022AC0072484834624F355733644C33364E6A6F3C
:1022BC007137664356794647694975725942636D61
:1022CC00616D5952574846617333663644434E37F5
:1022DC0049704F694B6F30504D31454966376565D4
:1022EC005665674542346C515A35455653584A34F5
:1022FC004870476F646B34683930336275344B49BE
:10230C00666D3256696C4A5555746A6979396C4DEB
:10231C00715458476C696166447373357A424770DF
:10232C004C3853377968317A324E6467443854727A
:10233C005247585234454A396753694A54434269A3
:10234C00476F536531757A6F6571504E5631704DCC
:10235C004D376C6437624B625472694F6C424E79E4
:10236C0054436D376C7837634D384A3549734F3465
:10237C0069656743536A47304F7A77695145686599
:10238C0064376876533262373851750000000000AC
:10239C0021018E00B8006E01E900C700DB000000CF
:1023AC000000B3018E003C02B20103021B029A0131
:1023BC000D0A00536B657463683A202020002F6867
:1023CC006F6D652F68616E64696B6F2F41726475F8
:1023DC00696E6F2D415052532F41726475696E6F47
:1023EC002D536B6574636865732F546573742F413B
:1023FC005052535F526164696F5F426561636F6EE7
:10240C005F546573742F415052535F526164696F0E
:10241C005F426561636F6E5F546573742E696E6F96
:10242C000055706C6F616465643A20004A616E20DF
:10243C00203320323031390052616E646F6D20537D
:10244C007472696E672050756C73656420414653D5
:10245C004B2047656E657261746F72202D2053742A
:10246C006172746564200A0041542B444D4F434FF4
:10247C004E4E4543540041542B444D4F5345544705
:10248C00524F55503D302C002C303030302C302CED
:10249C0030303030004D5943414C4C004152505378
:0824AC000057494445320000CD
:00000001FF
