:100000000C945D000C9485000C9485000C94850084
:100010000C9485000C9485000C9485000C9485004C
:100020000C9485000C9485000C9485000C9485003C
:100030000C9485000C9485000C9485000C9485002C
:100040000C94D0020C9485000C9440030C941A0379
:100050000C9485000C9485000C9485000C9485000C
:100060000C9485000C94850000000008000201003B
:100070000003040700000000000000000000000072
:10008000250028002B0000000000240027002A0083
:10009000040404040404040402020202020203032E
:1000A0000303030301020408102040800102040836
:1000B0001020010204081020DF0411241FBECFEF1E
:1000C000D8E0DEBFCDBF15E0A0E0B1E0ECE3FCE09E
:1000D00002C005900D92A439B107D9F726E0A4E932
:1000E000B5E001C01D92AC33B207E1F710E0CDE5F9
:1000F000D0E004C02197FE010E941106CC35D10743
:10010000C9F70E9472030C941C060C94000090E046
:10011000FC01EC55FF4F2491FC01E057FF4F849107
:10012000882399F090E0880F991FFC01EA57FF4F50
:10013000A591B491FC01E458FF4F859194918FB73C
:10014000F894EC91E22BEC938FBF089590E0FC01C2
:10015000E859FF4F2491FC01EC55FF4F3491FC010D
:10016000E057FF4FE491EE2309F43CC0222339F11C
:10017000233091F038F42130A9F0223001F584B514
:100180008F7D12C0273091F02830A1F02430B9F4CF
:10019000809180008F7D03C0809180008F77809355
:1001A00080000DC084B58F7784BD09C08091B000F8
:1001B0008F7703C08091B0008F7D8093B000F0E016
:1001C000EE0FFF1FE458FF4FA591B4919FB7F8942D
:1001D000611104C08C913095382302C0EC913E2B04
:1001E0003C939FBF08958230910538F0880F991F86
:1001F000880F991F05970197F1F708953FB7F89475
:1002000080919B0590919C05A0919D05B0919E05C4
:1002100026B5A89B05C02F3F19F00196A11DB11D61
:100220003FBFBA2FA92F982F8827820F911DA11D9C
:10023000B11DBC01CD0142E0660F771F881F991FD9
:100240004A95D1F70895CF92DF92EF92FF920F93E4
:100250001F93CF93DF936C017A018B01C0E0D0E054
:10026000CE15DF0581F0D8016D918D01D601ED919C
:10027000FC910190F081E02DC6010995892B11F0C8
:100280002196EECF7E01C701DF91CF911F910F9193
:10029000FF90EF90DF90CF900895089580E090E078
:1002A0000895FC01538D448D252F30E0842F90E07C
:1002B000821B930B541710F0CF9608950197089561
:1002C000FC01918D828D981761F0828DDF01A80F5E
:1002D000B11D5D968C91928D9F5F9F73928F90E080
:1002E00008958FEF9FEF0895FC01918D828D9817EF
:1002F00031F0828DE80FF11D858D90E008958FEF2C
:100300009FEF0895FC01918D228D892F90E0805CF4
:100310009F4F821B91098F73992708958FE995E06C
:100320000E94820121E0892B09F420E0822F0895A8
:10033000FC01848DDF01A80FB11DA35ABF4F2C9182
:10034000848D90E001968F739927848FA689B78951
:100350002C93A089B1898C91837080648C93938D48
:10036000848D981306C00288F389E02D80818F7DEB
:1003700080830895EF92FF920F931F93CF93DF93A3
:10038000EC0181E0888F9B8D8C8D981305C0E889E6
:10039000F989808185FD26C0F62E0B8D10E00F5F58
:1003A0001F4F0F731127E02E8C8DE8120CC00FB673
:1003B00007FCFACFE889F989808185FFF5CFCE0166
:1003C0000E949801F1CF8B8DFE01E80FF11DE35AD9
:1003D000FF4FF0829FB7F8940B8FEA89FB898081E9
:1003E00080620AC09FB7F894EE89FF896083E8892C
:1003F000F98980818370806480839FBF81E090E071
:10040000DF91CF911F910F91FF90EF900895CF93BF
:10041000DF93EC01888D8823C9F0EA89FB8980810C
:1004200085FD05C0A889B9898C9186FD0FC00FB6DE
:1004300007FCF5CF808185FFF2CFA889B9898C911F
:1004400085FFEDCFCE010E949801E7CFDF91CF91DC
:10045000089580E090E0892B29F00E948E0181119F
:100460000C940000089561E082E00E94A6008BECED
:1004700090E00E94F30060E082E00E94A6008BEC16
:1004800090E00E94F30061E082E00E94A6008BEC05
:1004900090E00E94F30060E082E00E94A6008BECF6
:1004A00090E00C94F30061E082E00E94A60086E9EF
:1004B00091E00E94F30060E082E00E94A60086E9DD
:1004C00091E00C94F300EF92FF920F931F93CF9360
:1004D000DF93D82FE62E08E010E0FF24F3944D2F91
:1004E00041702091000130910101C90196958795D5
:1004F000242720FF04C028E0822724E89227909335
:10050000010180930001C0919505442381F0CC2323
:1005100019F00E94530202C00E9433028091940598
:100520008F5F80939405EE2071F0853061F4CF25C4
:10053000C0939505CC2319F00E94530202C00E947B
:10054000330210929405D6950150110941F6DF91BE
:10055000CF911F910F91FF90EF900895009769F050
:10056000FC0101900020E9F73197AF01481B590BBE
:10057000BC018FE995E00C94230180E090E00895A0
:10058000CF93DF930E94AE02EC0188E794E00E94D3
:10059000AE028C0F9D1FDF91CF9108950E94170628
:1005A0001F920F920FB60F9211242F933F938F93A8
:1005B0009F93AF93BF938091970590919805A091D9
:1005C0009905B0919A053091960523E0230F2D37B8
:1005D00020F40196A11DB11D05C026E8230F029647
:1005E000A11DB11D209396058093970590939805C2
:1005F000A0939905B0939A0580919B0590919C05D5
:10060000A0919D05B0919E050196A11DB11D8093FD
:100610009B0590939C05A0939D05B0939E05BF916B
:10062000AF919F918F913F912F910F900FBE0F909F
:100630001F9018951F920F920FB60F9211242F93AF
:100640003F934F935F936F937F938F939F93AF935A
:10065000BF93EF93FF938FE995E00E949801FF917C
:10066000EF91BF91AF919F918F917F916F915F912A
:100670004F913F912F910F900FBE0F901F901895A3
:100680001F920F920FB60F9211242F938F939F9367
:10069000EF93FF93E091AF05F091B0058081E09179
:1006A000B505F091B60582FD12C090818091B80524
:1006B0008F5F8F732091B905821751F0E091B805D3
:1006C000F0E0E156FA4F958F8093B80501C0808124
:1006D000FF91EF919F918F912F910F900FBE0F90EF
:1006E0001F901895CF93DF93CDB7DEB7A1970FB6C4
:1006F000F894DEBF0FBECDBF789484B5826084BD10
:1007000084B5816084BD85B5826085BD85B5816015
:1007100085BD80916E00816080936E001092810093
:10072000809181008260809381008091810081604E
:10073000809381008091800081608093800080910F
:10074000B10084608093B1008091B000816080939B
:10075000B00080917A00846080937A0080917A0062
:10076000826080937A0080917A00816080937A0021
:1007700080917A00806880937A001092C1008DE0A9
:100780000E94870082E00E948700E091AF05F0910F
:10079000B00582E08083E091AB05F091AC0510825A
:1007A000E091AD05F091AE0580E180831092B70530
:1007B000E091B305F091B40586E08083E091B10546
:1007C000F091B205808180618083E091B105F09164
:1007D000B205808188608083E091B105F091B20517
:1007E000808180688083E091B105F091B2058081BD
:1007F0008F7D808384E894E00E94C0028BE794E0C0
:100800000E94AE0286E894E00E94C0028DEF94E060
:100810000E94AE0288E095E00E94C00284E894E065
:100820000E94C00284E195E00E94C0028AE0482E46
:10083000512C612C712C22242A94322C84E495E0D2
:100840000E94C00282E695E00E94AE022091020161
:100850003091030140E050E019A28E010F5D1F4F5F
:10086000CA01B901A30192010E94E005605DF8018F
:1008700062938F01211531054105510589F7CF019B
:100880000E94AE0286E595E00E94C00285E795E0F1
:100890000E94C00261E08DE00E94A60004E610E024
:1008A00060E08EE70E94630201501109C9F730929F
:1008B000010120920001C0900201D0900301860145
:1008C000045E1E4F7801C8018E199F098C159D0585
:1008D0003CF461E0F80181918F010E946302F3CF43
:1008E000809100011091010161E080950E946302F6
:1008F00061E0812F80950E94630260E08EE70E9494
:10090000630260E08EE70E94630260E08EE70E946F
:10091000630260E08DE00E94A600C0900401D090C8
:100920000501E12CF12C0E94FE004B015C01C11479
:10093000D104E104F104F1F00E94FE00DC01CB01DE
:1009400088199909AA09BB09883E9340A105B105F8
:1009500070F3F1E0CF1AD108E108F10828EE820E19
:1009600023E0921EA11CB11CC114D104E104F104C6
:1009700019F7DDCF0E9457052EE733E140E050E044
:100980000E94AE05DC01CB010A96A11DB11D90931A
:100990000501809304010E9457052AE931E040E0F7
:1009A00050E00E94AE05DC01CB010A96A11DB11DED
:1009B00090930301809302010E9429023FCFEFE947
:1009C000F5E01382128288EE93E0A0E0B0E0848329
:1009D0009583A683B7838EE091E09183808385EC35
:1009E00090E09587848784EC90E09787868780ECF9
:1009F00090E0918B808B81EC90E0938B828B82ECEA
:100A000090E0958B848B86EC90E0978B868B118E93
:100A1000128E138E148E08958F929F92AF92BF9272
:100A2000CF92DF92EF92FF92CF93DF93EC01688138
:100A300079818A819B81611571058105910521F478
:100A400064E279ED8BE597E02DE133EF41E050E092
:100A50000E94AE0549015A019B01AC01A7EAB1E42D
:100A60000E94CD056B017C01ACEEB4EFA5019401B1
:100A70000E94DB05DC01CB018C0D9D1DAE1DBF1D51
:100A8000B7FF03C00197A109B04888839983AA835F
:100A9000BB83BC01CD019F77DF91CF91FF90EF9099
:100AA000DF90CF90BF90AF909F908F9008958F92DE
:100AB0009F92AF92BF92CF92DF92EF92FF9260919E
:100AC000060170910701809108019091090161155B
:100AD00071058105910521F464E279ED8BE597E0DC
:100AE0002DE133EF41E050E00E94AE0549015A018B
:100AF0009B01AC01A7EAB1E40E94CD056B017C012A
:100B0000ACEEB4EFA50194010E94DB05DC01CB0142
:100B10008C0D9D1DAE1DBF1DB7FF03C00197A10920
:100B2000B0488093060190930701A0930801B09309
:100B30000901BC01CD019F77FF90EF90DF90CF902E
:100B4000BF90AF909F908F9008956093060170932F
:100B5000070180930801909309010895052E97FBE2
:100B60001EF400940E94C50557FD07D00E94E005C1
:100B700007FC03D04EF40C94C50550954095309574
:100B800021953F4F4F4F5F4F0895909580957095F9
:100B900061957F4F8F4F9F4F08950E940206A59F3A
:100BA000900DB49F900DA49F800D911D1124089568
:100BB000B7FF0C94CD050E94CD05821B930B0895C1
:100BC000A1E21A2EAA1BBB1BFD010DC0AA1FBB1F51
:100BD000EE1FFF1FA217B307E407F50720F0A21BC3
:100BE000B30BE40BF50B661F771F881F991F1A9430
:100BF00069F760957095809590959B01AC01BD015A
:100C0000CF010895A29FB001B39FC001A39F700DB3
:100C1000811D1124911DB29F700D811D1124911D04
:100C20000895EE0FFF1F0590F491E02D099481E0E7
:0C0C300090E0F8940C941C06F894FFCFA0
:100C3C00FFFF900188130100000000000000BA01C2
:100C4C0023015101070282016001740162304E5789
:100C5C007441584C4B6A30536E38575273616B7AEF
:100C6C005153384A4E32357A414166336D643549B9
:100C7C004C61597479366A765A48727131515531D2
:100C8C004357664336744B4F4D59376346436F7029
:100C9C006C6139736E30626E32367A6364397152BC
:100CAC00484657666C714D636D4D7778395A446D73
:100CBC007A7872733463666A694D6F783452307027
:100CCC004E434230666D323667445663644D435A28
:100CDC0063564F6E6F764C4457556C46484C306D8E
:100CEC0032554C6A3353564A6F6E45347377496CA0
:100CFC00656D76326D6956464A33686A4554683577
:100D0C0034637562704A6865666848744F476C77DF
:100D1C00777464363450696778736A7A42336F58E3
:100D2C004936744A52337343643834736865516975
:100D3C00733244726E425A5064347059645A7676E7
:100D4C00366E783031684465514E69555947696C37
:100D5C00414862376364716C45494D776848566108
:100D6C007149676E34334A4F77517A534D474F5719
:100D7C00764162466453784C796F55643872596584
:100D8C007956574878573374794A5337776A576A84
:100D9C0073723155563352436B50424C3458684D34
:100DAC0070636556337A307A753679397251475794
:100DBC00784277564162426C694F6F3633306C6BB8
:100DCC00646D77526B754D4230494E4E63533443CC
:100DDC006A454C597A7356516E456E58354F4D4392
:100DEC00727944646246454777437044456946507E
:100DFC0045546C50344565717359493641434952D9
:100E0C00734D394138627566316565637277424B53
:100E1C00676B54335479306D486C4F6A6334696234
:100E2C0042694A434A423576547A76456251646641
:100E3C0067734C47756266504C3159385662355061
:100E4C00417A774347566F74577855505550616DBA
:100E5C00476742657A585A344A624F416255665820
:100E6C0047454D317070755274616D387A6B3465CD
:100E7C0050457873316363443471756D4E743070C2
:100E8C0076664557794369497256754C414B3154D6
:100E9C00476F4F473972453055307743614C494C59
:100EAC006C6D4C695475315574504D53546D317390
:100EBC005A7A454164756E454E4D6D4D72484834B5
:100ECC00624F355733644C33364E6A6F7137664315
:100EDC0056794647694975725942636D616D59522D
:100EEC00574846617333663644434E3749704F69F1
:100EFC004B6F30504D3145496637656556656745D2
:100F0C0042346C515A35455653584A344870476FE1
:100F1C00646B34683930336275344B49666D3256C4
:100F2C00696C4A5555746A6979396C4D71545847D6
:100F3C006C696166447373357A4247704C38533729
:100F4C007968317A324E6467443854725247585239
:100F5C0034454A396753694A54434269476F53656C
:100F6C0031757A6F6571504E5631704D4D376C64DA
:100F7C0037624B625472694F6C424E7954436D37F1
:100F8C006C7837634D384A3549734F34696567431C
:100F9C00536A47304F7A776951456865643768768C
:100FAC0053326237385175000D0A00536B65746308
:100FBC00683A202020002F686F6D652F68616E6481
:100FCC00696B6F2F41726475696E6F2D415052536E
:100FDC002F41726475696E6F2D536B657463686510
:100FEC00732F546573742F50756C7365645F414631
:100FFC00534B5F776974685F4269745374756666A6
:10100C00696E675F4352432F50756C7365645F4123
:10101C0046534B5F776974685F42697453747566A5
:10102C0066696E675F4352432E696E6F0055706C34
:10103C006F616465643A20004A616E203139203258
:10104C003031390052616E646F6D20537472696E69
:10105C00672050756C736564204146534B2047657F
:10106C006E657261746F72202D2053746172746599
:10107C0064200A0053656E64696E6720666C616754
:10108C00203A20313030206368617261637465727C
:10109C00730053656E64696E67207061796C6F6163
:1010AC0064203A200053656E64696E6720666C613B
:1010BC0067203A20332063686172616374657273D0
:0410CC00200A0000F6
:00000001FF
