:100000000C945D000C9485000C9485000C94850084
:100010000C9485000C9485000C9485000C9485004C
:100020000C9485000C9485000C9485000C9485003C
:100030000C9485000C9485000C9485000C9485002C
:100040000C9416030C9485000C9486030C946003A6
:100050000C9485000C9485000C9485000C9485000C
:100060000C9485000C94850000000008000201003B
:100070000003040700000000000000000000000072
:10008000250028002B0000000000240027002A0083
:10009000040404040404040402020202020203032E
:1000A0000303030301020408102040800102040836
:1000B00010200102040810207A0511241FBECFEF82
:1000C000D8E0DEBFCDBF11E0A0E0B1E0E2E7FDE0A7
:1000D00002C005900D92AC3EB107D9F722E0ACEE1C
:1000E000B1E001C01D92A439B207E1F710E0CDE5FF
:1000F000D0E004C02197FE010E94AC06CC35D107A8
:10010000C9F70E94B8030C94B7060C94000090E065
:10011000FC01EC55FF4F2491FC01E057FF4F849107
:10012000882399F090E0880F991FFC01EA57FF4F50
:10013000A591B491FC01E458FF4F859194918FB73C
:10014000F894EC91E22BEC938FBF089590E0FC01C2
:10015000E859FF4F2491FC01EC55FF4F3491FC010D
:10016000E057FF4FE491EE2309F43CC0222339F11C
:10017000233091F038F42130A9F0223001F584B514
:100180008F7D12C0273091F02830A1F02430B9F4CF
:10019000809180008F7D03C0809180008F77809355
:1001A00080000DC084B58F7784BD09C08091B000F8
:1001B0008F7703C08091B0008F7D8093B000F0E016
:1001C000EE0FFF1FE458FF4FA591B4919FB7F8942D
:1001D000611104C08C913095382302C0EC913E2B04
:1001E0003C939FBF08958230910538F0880F991F86
:1001F000880F991F05970197F1F708953FB7F89475
:100200008091F3019091F401A091F501B091F60174
:1002100026B5A89B05C02F3F19F00196A11DB11D61
:100220003FBFBA2FA92F982F8827820F911DA11D9C
:10023000B11DBC01CD0142E0660F771F881F991FD9
:100240004A95D1F70895CF92DF92EF92FF920F93E4
:100250001F93CF93DF936C017A018B01C0E0D0E054
:10026000CE15DF0581F0D8016D918D01D601ED919C
:10027000FC910190F081E02DC6010995892B11F0C8
:100280002196EECF7E01C701DF91CF911F910F9193
:10029000FF90EF90DF90CF900895089580E090E078
:1002A0000895FC01538D448D252F30E0842F90E07C
:1002B000821B930B541710F0CF9608950197089561
:1002C000FC01918D828D981761F0828DDF01A80F5E
:1002D000B11D5D968C91928D9F5F9F73928F90E080
:1002E00008958FEF9FEF0895FC01918D828D9817EF
:1002F00031F0828DE80FF11D858D90E008958FEF2C
:100300009FEF0895FC01918D228D892F90E0805CF4
:100310009F4F821B91098F739927089587EF91E072
:100320000E94820121E0892B09F420E0822F0895A8
:10033000FC01848DDF01A80FB11DA35ABF4F2C9182
:10034000848D90E001968F739927848FA689B78951
:100350002C93A089B1898C91837080648C93938D48
:10036000848D981306C00288F389E02D80818F7DEB
:1003700080830895EF92FF920F931F93CF93DF93A3
:10038000EC0181E0888F9B8D8C8D981305C0E889E6
:10039000F989808185FD26C0F62E0B8D10E00F5F58
:1003A0001F4F0F731127E02E8C8DE8120CC00FB673
:1003B00007FCFACFE889F989808185FFF5CFCE0166
:1003C0000E949801F1CF8B8DFE01E80FF11DE35AD9
:1003D000FF4FF0829FB7F8940B8FEA89FB898081E9
:1003E00080620AC09FB7F894EE89FF896083E8892C
:1003F000F98980818370806480839FBF81E090E071
:10040000DF91CF911F910F91FF90EF900895682F8A
:1004100087EF91E00C94BA01CF93DF93EC01888DC4
:100420008823C9F0EA89FB89808185FD05C0A889F8
:10043000B9898C9186FD0FC00FB607FCF5CF80817E
:1004400085FFF2CFA889B9898C9185FFEDCFCE01C8
:100450000E949801E7CFDF91CF91089580E090E06E
:10046000892B29F00E948E0181110C9400000895BF
:1004700061E082E00E94A6008BEC90E00E94F30015
:1004800060E082E00E94A6008BEC90E00E94F30006
:1004900061E082E00E94A6008BEC90E00E94F300F5
:1004A00060E082E00E94A6008BEC90E00C94F300E8
:1004B00061E082E00E94A60086E991E00E94F300DC
:1004C00060E082E00E94A60086E991E00C94F300CF
:1004D000EF92FF920F931F93CF93DF93D82FE62EC7
:1004E00008E010E0FF24F3944D2F417020910001AB
:1004F00030910101C90196958795242720FF04C0FA
:1005000028E0822724E8922790930101809300013C
:10051000C091ED01442381F0CC2319F00E945802D0
:1005200002C00E9438028091EC018F5F8093EC0141
:10053000EE2071F0853061F4CF25C093ED01CC231E
:1005400019F00E94580202C00E9438021092EC0179
:10055000D6950150110941F6DF91CF911F910F916E
:10056000FF90EF900895009769F0FC010190002042
:10057000E9F73197AF01481B590BBC0187EF91E0B8
:100580000C94230180E090E00895CF93DF930E94C4
:10059000B302EC018CE191E00E94B3028C0F9D1F2D
:1005A000DF91CF9108958F929F92AF92BF920F9358
:1005B0001F93CF93DF93CDB7DEB7A1970FB6F89413
:1005C000DEBF0FBECDBF19A2423008F44AE08E0153
:1005D0000F5D1F4F842E912CA12CB12CA5019401ED
:1005E0000E947B06E62FB901CA0101501109EA30C9
:1005F00014F4E05D01C0E95CD801EC93232B242BBB
:10060000252B61F7C8010E94B302A1960FB6F8949A
:10061000DEBF0FBECDBFDF91CF911F910F91BF9075
:10062000AF909F908F9008950E94B2061F920F92F4
:100630000FB60F9211242F933F938F939F93AF93F5
:10064000BF938091EF019091F001A091F101B091E1
:10065000F2013091EE0123E0230F2D3720F40196B3
:10066000A11DB11D05C026E8230F0296A11DB11DD5
:100670002093EE018093EF019093F001A093F1019C
:10068000B093F2018091F3019091F401A091F501F2
:10069000B091F6010196A11DB11D8093F3019093D5
:1006A000F401A093F501B093F601BF91AF919F9132
:1006B0008F913F912F910F900FBE0F901F90189523
:1006C0001F920F920FB60F9211242F933F934F93C7
:1006D0005F936F937F938F939F93AF93BF93EF93AA
:1006E000FF9387EF91E00E949801FF91EF91BF91F6
:1006F000AF919F918F917F916F915F914F913F91BA
:100700002F910F900FBE0F901F9018951F920F9270
:100710000FB60F9211242F938F939F93EF93FF9314
:10072000E0910702F09108028081E0910D02F091C2
:100730000E0282FD12C09081809110028F5F8F7334
:1007400020911102821751F0E0911002F0E0E9507F
:10075000FE4F958F8093100201C08081FF91EF9131
:100760009F918F912F910F900FBE0F901F90189512
:10077000789484B5826084BD84B5816084BD85B57C
:10078000826085BD85B5816085BD80916E00816088
:1007900080936E001092810080918100826080932E
:1007A0008100809181008160809381008091800030
:1007B0008160809380008091B10084608093B1005B
:1007C0008091B00081608093B00080917A00846055
:1007D00080937A0080917A00826080937A00809181
:1007E0007A00816080937A0080917A00806880939B
:1007F0007A001092C1008DE00E94870082E00E9482
:100800008700E0910702F091080282E08083E09186
:100810000302F09104021082E0910502F0910602B9
:1008200080E1808310920F02E0910B02F0910C02A4
:1008300086E08083E0910902F0910A028081806164
:100840008083E0910902F0910A02808188608083B0
:10085000E0910902F0910A02808180688083E09132
:100860000902F0910A0280818F7D808388E291E005
:100870000E94C5028FE191E00E94B3028AE291E0FA
:100880000E94C50284E891E00E94B3028FE891E0E3
:100890000E94C50288E291E00E94C5028BE991E0C6
:1008A0000E94C50222242A94322C3EE7832E33E193
:1008B000932EA12CB12C0BEC11E0E80189910E9440
:1008C000070281ED91E08C179D07C1F78DE20E9430
:1008D00007024AE061E070E080E090E00E94D3020D
:1008E0008EE30E94070292EDE92E91E0F92EE701D6
:1008F00089910E940702E6EDF1E0EC17FD07C1F7D0
:100900008CE20E940702C7EDD1E06E01F6018191F1
:100910006F010E940702FCEDCF16F1E0DF06B1F790
:100920008DE20E9407024AE061E070E080E090E022
:100930000E94D3028AE30E9407028EE30E9407020C
:100940008DED91E00E94B30280E20E9407028CE1EB
:1009500091E00E94B30261E08DE00E94A60084E66F
:10096000C82ED12C60E08EE70E94680221E0C21AF6
:10097000D108C1F73092010120920001F701819165
:100980007F0161E0880F0E946802F6EDEF16F1E04A
:10099000FF06A1F761E080E40E94680261E080E464
:1009A0000E94680261E080E60E946802F80181917D
:1009B0008F0161E0880F0E946802F1E0013D1F078E
:1009C000A9F761E082E60E946802899161E0880FE0
:1009D0000E9468028CED91E08C179D07B1F761E0F1
:1009E00080E40E94680261E083E60E94680261E0A0
:1009F00083E00E94680261E080EF0E94680261E08B
:100A00008EE30E946802CDEDD1E061E089910E9401
:100A1000680291E0CB3ED907C1F780910001C091F7
:100A2000010161E080950E94680261E08C2F809551
:100A30000E94680260E08EE70E94680260E08EE734
:100A40000E94680260E08EE70E94680260E08DE02C
:100A50000E94A600C0900401D0900501E12CF12C69
:100A60000E94FE002B013C01C114D104E104F104F9
:100A7000F1F00E94FE00DC01CB0184199509A60962
:100A8000B709883E9340A105B10570F3E1E0CE1AA5
:100A9000D108E108F108F8EE4F0EF3E05F1E611C8B
:100AA000711CC114D104E104F10419F7DDCF0E94D7
:100AB000F205A50194010E944906DC01CB010A96CA
:100AC000A11DB11D90930501809304010E94F205C0
:100AD0002AE931E040E050E00E944906DC01CB0108
:100AE0000A96A11DB11D90930301809302010E94FB
:100AF0002E02E1CEE7EFF1E01382128288EE93E05E
:100B0000A0E0B0E084839583A683B7838EE091E074
:100B10009183808385EC90E09587848784EC90E0D6
:100B20009787868780EC90E0918B808B81EC90E0BA
:100B3000938B828B82EC90E0958B848B86EC90E09B
:100B4000978B868B118E128E138E148E08958F9232
:100B50009F92AF92BF92CF92DF92EF92FF92CF938C
:100B6000DF93EC01688179818A819B816115710530
:100B70008105910521F464E279ED8BE597E02DE1A3
:100B800033EF41E050E00E94490649015A019B01C0
:100B9000AC01A7EAB1E40E9468066B017C01ACEEEF
:100BA000B4EFA50194010E947606DC01CB018C0D07
:100BB0009D1DAE1DBF1DB7FF03C00197A109B04821
:100BC00088839983AA83BB83BC01CD019F77DF9182
:100BD000CF91FF90EF90DF90CF90BF90AF909F901C
:100BE0008F9008958F929F92AF92BF92CF92DF9293
:100BF000EF92FF92609106017091070180910801C8
:100C000090910901611571058105910521F464E256
:100C100079ED8BE597E02DE133EF41E050E00E9464
:100C2000490649015A019B01AC01A7EAB1E40E94BF
:100C300068066B017C01ACEEB4EFA50194010E9443
:100C40007606DC01CB018C0D9D1DAE1DBF1DB7FFCF
:100C500003C00197A109B048809306019093070152
:100C6000A0930801B0930901BC01CD019F77FF90CB
:100C7000EF90DF90CF90BF90AF909F908F900895AE
:100C80006093060170930701809308019093090116
:100C90000895052E97FB1EF400940E94600657FDF0
:100CA00007D00E947B0607FC03D04EF40C9460062C
:100CB00050954095309521953F4F4F4F5F4F089588
:100CC00090958095709561957F4F8F4F9F4F0895B8
:100CD0000E949D06A59F900DB49F900DA49F800D2E
:100CE000911D11240895B7FF0C9468060E946806B0
:100CF000821B930B0895A1E21A2EAA1BBB1BFD01B8
:100D00000DC0AA1FBB1FEE1FFF1FA217B307E407EA
:100D1000F50720F0A21BB30BE40BF50B661F771F42
:100D2000881F991F1A9469F7609570958095909522
:100D30009B01AC01BD01CF010895A29FB001B39FFB
:100D4000C001A39F700D811D1124911DB29F700DD4
:100D5000811D1124911D0895EE0FFF1F0590F49140
:100D6000E02D099481E090E0F8940C94B706F89493
:020D7000FFCFB3
:100D7200FFFF900188130100000000000000BA018B
:100D8200230151010C028201600174010D0A00531A
:100D92006B657463683A202020002F686F6D652FA1
:100DA20068616E64696B6F2F41726475696E6F2D35
:100DB200415052532F41726475696E6F2D536B65AA
:100DC20074636865732F4578616D706C652F41504F
:100DD20052535F48656C6C6F5F576F726C642F4142
:100DE2005052535F48656C6C6F5F576F726C642E24
:100DF200696E6F0055706C6F616465643A20004AD9
:100E0200616E20313920323031390052616E646FA7
:100E12006D20537472696E672050756C736564201F
:100E22004146534B2047656E657261746F72202D87
:100E32002053746172746564200A004D5943414C19
:100E42004C00415052530057494445320048656CAA
:0C0E52006C6F20576F726C64202121002F
:00000001FF
