:100000000C945D000C9485000C9485000C94850084
:100010000C9485000C9485000C9485000C9485004C
:100020000C9485000C9485000C9485000C9485003C
:100030000C9485000C9485000C9485000C9485002C
:100040000C9465030C9485000C94D5030C94AF03B9
:100050000C9485000C9485000C9485000C9485000C
:100060000C9485000C94850000000008000201003B
:100070000003040700000000000000000000000072
:10008000250028002B0000000000240027002A0083
:10009000040404040404040402020202020203032E
:1000A0000303030301020408102040800102040836
:1000B00010200102040810203B0611241FBECFEFC0
:1000C000D8E0DEBFCDBF12E0A0E0B1E0E4EFFEE09B
:1000D00002C005900D92A433B107D9F722E0A4E342
:1000E000B2E001C01D92AC3DB207E1F710E0CDE5F2
:1000F000D0E004C02197FE010E946D07CC35D107E6
:10010000C9F70E9407040C9478070C94000090E053
:10011000FC01EC55FF4F2491FC01E057FF4F849107
:10012000882399F090E0880F991FFC01EA57FF4F50
:10013000A591B491FC01E458FF4F859194918FB73C
:10014000F894EC91E22BEC938FBF089590E0FC01C2
:10015000E859FF4F2491FC01EC55FF4F3491FC010D
:10016000E057FF4FE491EE2309F43CC0222339F11C
:10017000233091F038F42130A9F0223001F584B514
:100180008F7D12C0273091F02830A1F02430B9F4CF
:10019000809180008F7D03C0809180008F77809355
:1001A00080000DC084B58F7784BD09C08091B000F8
:1001B0008F7703C08091B0008F7D8093B000F0E016
:1001C000EE0FFF1FE458FF4FA591B4919FB7F8942D
:1001D000611104C08C913095382302C0EC913E2B04
:1001E0003C939FBF08958230910538F0880F991F86
:1001F000880F991F05970197F1F708953FB7F89475
:1002000080913B0290913C02A0913D02B0913E0250
:1002100026B5A89B05C02F3F19F00196A11DB11D61
:100220003FBFBA2FA92F982F8827820F911DA11D9C
:10023000B11DBC01CD0142E0660F771F881F991FD9
:100240004A95D1F70895CF92DF92EF92FF920F93E4
:100250001F93CF93DF936C017A018B01C0E0D0E054
:10026000CE15DF0581F0D8016D918D01D601ED919C
:10027000FC910190F081E02DC6010995892B11F0C8
:100280002196EECF7E01C701DF91CF911F910F9193
:10029000FF90EF90DF90CF900895089580E090E078
:1002A0000895FC01538D448D252F30E0842F90E07C
:1002B000821B930B541710F0CF9608950197089561
:1002C000FC01918D828D981761F0828DDF01A80F5E
:1002D000B11D5D968C91928D9F5F9F73928F90E080
:1002E00008958FEF9FEF0895FC01918D828D9817EF
:1002F00031F0828DE80FF11D858D90E008958FEF2C
:100300009FEF0895FC01918D228D892F90E0805CF4
:100310009F4F821B91098F73992708958FE392E075
:100320000E94820121E0892B09F420E0822F0895A8
:10033000FC01848DDF01A80FB11DA35ABF4F2C9182
:10034000848D90E001968F739927848FA689B78951
:100350002C93A089B1898C91837080648C93938D48
:10036000848D981306C00288F389E02D80818F7DEB
:1003700080830895EF92FF920F931F93CF93DF93A3
:10038000EC0181E0888F9B8D8C8D981305C0E889E6
:10039000F989808185FD26C0F62E0B8D10E00F5F58
:1003A0001F4F0F731127E02E8C8DE8120CC00FB673
:1003B00007FCFACFE889F989808185FFF5CFCE0166
:1003C0000E949801F1CF8B8DFE01E80FF11DE35AD9
:1003D000FF4FF0829FB7F8940B8FEA89FB898081E9
:1003E00080620AC09FB7F894EE89FF896083E8892C
:1003F000F98980818370806480839FBF81E090E071
:10040000DF91CF911F910F91FF90EF900895682F8A
:100410008FE392E00C94BA01CF93DF93EC01888DC7
:100420008823C9F0EA89FB89808185FD05C0A889F8
:10043000B9898C9186FD0FC00FB607FCF5CF80817E
:1004400085FFF2CFA889B9898C9185FFEDCFCE01C8
:100450000E949801E7CFDF91CF91089580E090E06E
:10046000892B29F00E948E0181110C9400000895BF
:1004700061E082E00E94A6008BEC90E00E94F30015
:1004800060E082E00E94A6008BEC90E00E94F30006
:1004900061E082E00E94A6008BEC90E00E94F300F5
:1004A00060E082E00E94A6008BEC90E00C94F300E8
:1004B00061E082E00E94A60086E991E00E94F300DC
:1004C00060E082E00E94A60086E991E00C94F300CF
:1004D000EF92FF920F931F93CF93DF93D82FE62EC7
:1004E00008E010E0FF24F3944D2F417020910001AB
:1004F00030910101C90196958795242720FF04C0FA
:1005000028E0822724E8922790930101809300013C
:10051000C0913502442381F0CC2319F00E94580287
:1005200002C00E943802809134028F5F80933402AF
:10053000EE2071F0853061F4CF25C0933502CC23D5
:1005400019F00E94580202C00E9438021092340230
:10055000D6950150110941F6DF91CF911F910F916E
:10056000FF90EF900895EF92FF920F931F93CF9318
:10057000DF938C017B01EC01CE01801B910B8E156A
:100580009F052CF461E089910E946802F5CFDF910C
:10059000CF911F910F91FF90EF900895009769F010
:1005A000FC0101900020E9F73197AF01481B590B7E
:1005B000BC018FE392E00C94230180E090E0089569
:1005C000CF93DF930E94CE02EC018CE191E00E9478
:1005D000CE028C0F9D1FDF91CF9108950C94CE0217
:1005E0008F929F92AF92BF92CF92DF92EF92FF9243
:1005F0000F931F93CF93DF93CDB7DEB7A1970FB6BD
:10060000F894DEBF0FBECDBF6C01990FEE08FF0856
:10061000F7FE29C08DE20E9407028C0122273327B2
:10062000A9012C193D094E095F0919A2CE01819635
:100630007C019AE0892E912CA12CB12CCA01B90120
:10064000A50194010E943C07605DF70162937F0160
:10065000211531054105510589F7CF010E94CE02D0
:10066000800F911F1DC0A701960119A28E010F5D79
:100670001F4F8AE0C82ED12CE12CF12CCA01B90100
:10068000A70196010E943C07605DF80162938F010B
:10069000211531054105510589F7CF010E94CE0290
:1006A000A1960FB6F894DEBF0FBECDBFDF91CF91FC
:1006B0001F910F91FF90EF90DF90CF90BF90AF9080
:1006C0009F908F9008950E9473071F920F920FB60C
:1006D0000F9211242F933F938F939F93AF93BF93C8
:1006E0008091370290913802A0913902B0913A027C
:1006F0003091360223E0230F2D3720F40196A11DFF
:10070000B11D05C026E8230F0296A11DB11D20933F
:1007100036028093370290933802A0933902B09347
:100720003A0280913B0290913C02A0913D02B0912F
:100730003E020196A11DB11D80933B0290933C02A5
:10074000A0933D02B0933E02BF91AF919F918F91D4
:100750003F912F910F900FBE0F901F9018951F92F1
:100760000F920FB60F9211242F933F934F935F93E5
:100770006F937F938F939F93AF93BF93EF93FF9369
:100780008FE392E00E949801FF91EF91BF91AF91AA
:100790009F918F917F916F915F914F913F912F9199
:1007A0000F900FBE0F901F9018951F920F920FB6CB
:1007B0000F9211242F938F939F93EF93FF93E091C8
:1007C0004F02F09150028081E0915502F091560263
:1007D00082FD12C09081809158028F5F8F732091AB
:1007E0005902821751F0E0915802F0E0E15CFD4FB0
:1007F000958F8093580201C08081FF91EF919F9166
:100800008F912F910F900FBE0F901F901895789495
:1008100084B5826084BD84B5816084BD85B5826005
:1008200085BD85B5816085BD80916E0081608093B6
:100830006E0010928100809181008260809381001F
:10084000809181008160809381008091800081602F
:10085000809380008091B10084608093B10080918A
:10086000B00081608093B00080917A0084608093B2
:100870007A0080917A00826080937A0080917A0079
:10088000816080937A0080917A00806880937A00FA
:100890001092C1008DE00E94870082E00E948700D4
:1008A000E0914F02F091500282E08083E0914B0290
:1008B000F0914C021082E0914D02F0914E0280E1E5
:1008C000808310925702E0915302F091540286E027
:1008D0008083E0915102F091520280818061808397
:1008E000E0915102F0915202808188608083E09112
:1008F0005102F0915202808180688083E091510220
:10090000F091520280818F7D808388E291E00E9485
:10091000E0028FE191E00E94EE028AE291E00E9403
:10092000E00288E891E00E94EE0283E991E00E94F3
:10093000E00288E291E00E94E0028FE991E00E94EB
:10094000E00283E0482E512C612C712C22242A9441
:10095000322C0E94B30622E030E040E050E00E94DA
:100960000A07D1E0D60F0E94B306A30192010E94AC
:100970000A07C1E0C60F8FEC91E00E94EE028DE203
:100980000E94070281E090E00E94F0028EE30E9444
:100990000702D13019F486ED91E004C0D23021F481
:1009A0008BED91E00E94EE028CE20E94070282EE43
:1009B00091E00E94EE028DE20E94070281E090E049
:1009C0000E94F0028AE30E940702C13091F481E2A2
:1009D0000E94070288EE91E00E94EE0288E40E94E5
:1009E000070281EF91E00E94EE0281E60E94070279
:1009F0001EC0C23011F48EE314C0C330C1F481E2D2
:100A00000E94070288EE91E00E94EE0288E40E94B4
:100A1000070281EF91E00E94EE0281E60E94070248
:100A200080E20E9407028BEF91E00E94EE0280E2DA
:100A30000E9407028CE191E00E94CE0261E08DE00D
:100A40000E94A60004E610E060E08EE70E946802C3
:100A500001501109C9F73092010120920001D130F3
:100A6000B1F406ED11E0F80181918F0161E0880F8A
:100A70000E946802F1E00A3D1F07A9F761E080E4E7
:100A80000E94680261E080E40E9468020FC0D230D8
:100A9000A9F70BED11E0F80181918F0161E0880F5A
:100AA0000E946802F1E0013E1F07A9F761E080E6BD
:100AB0000E9468020FEC11E0F80181918F0161E062
:100AC000880F0E946802F1E0053D1F07A9F761E069
:100AD00082E60E94680202EE11E0F80181918F0126
:100AE00061E0880F0E946802F1E0073E1F07A9F746
:100AF00061E080E40E94680261E083E60E9468028F
:100B000061E083E00E94680261E080EF0E94680279
:100B1000C130C9F461E081E20E94680268E070E0DF
:100B200088EE91E00E94B30261E088E40E946802CE
:100B300069E070E081EF91E00E94B30261E081E63C
:100B40000E94680229C0C23019F461E08EE31CC023
:100B5000C33011F561E081E20E94680268E070E054
:100B600088EE91E00E94B30261E088E40E9468028E
:100B700069E070E081EF91E00E94B30261E081E6FC
:100B80000E94680261E080E20E94680268E370E00F
:100B90008BEF91E00E94B30280910001C0910101AE
:100BA00061E080950E94680261E08C2F80950E9430
:100BB000680260E08EE70E94680260E08EE70E94B3
:100BC000680260E08EE70E94680260E08DE00E94AB
:100BD000A600C0900401D0900501E12CF12C0E94E8
:100BE000FE004B015C01C114D104E104F104F1F0F9
:100BF0000E94FE00DC01CB0188199909AA09BB09F2
:100C0000883E9340A105B10570F321E0C21AD108D6
:100C1000E108F10888EE880E83E0981EA11CB11C43
:100C2000C114D104E104F10419F7DDCF0E94B30629
:100C30002EE733E140E050E00E940A07DC01CB01DF
:100C40000A96A11DB11D90930501809304010E9495
:100C5000B3062AE931E040E050E00E940A07DC01D7
:100C6000CB010A96A11DB11D90930301809302014F
:100C70000E942E026ECEEFE3F2E01382128288EE23
:100C800093E0A0E0B0E084839583A683B7838EE0F1
:100C900091E09183808385EC90E09587848784EC54
:100CA00090E09787868780EC90E0918B808B81EC39
:100CB00090E0938B828B82EC90E0958B848B86EC1A
:100CC00090E0978B868B118E128E138E148E089562
:100CD0008F929F92AF92BF92CF92DF92EF92FF924C
:100CE000CF93DF93EC01688179818A819B816115C3
:100CF00071058105910521F464E279ED8BE597E0BA
:100D00002DE133EF41E050E00E940A0749015A010A
:100D10009B01AC01A7EAB1E40E9429076B017C01A9
:100D2000ACEEB4EFA50194010E943707DC01CB01C2
:100D30008C0D9D1DAE1DBF1DB7FF03C00197A109FE
:100D4000B04888839983AA83BB83BC01CD019F7778
:100D5000DF91CF91FF90EF90DF90CF90BF90AF9059
:100D60009F908F9008958F929F92AF92BF92CF9253
:100D7000DF92EF92FF9260910601709107018091DE
:100D8000080190910901611571058105910521F412
:100D900064E279ED8BE597E02DE133EF41E050E03F
:100DA0000E940A0749015A019B01AC01A7EAB1E47C
:100DB0000E9429076B017C01ACEEB4EFA501940100
:100DC0000E943707DC01CB018C0D9D1DAE1DBF1DA0
:100DD000B7FF03C00197A109B04880930601909323
:100DE0000701A0930801B0930901BC01CD019F77D1
:100DF000FF90EF90DF90CF90BF90AF909F908F903B
:100E00000895609306017093070180930801909301
:100E100009010895052E97FB1EF400940E942107F6
:100E200057FD07D00E943C0707FC03D04EF40C94FA
:100E3000210750954095309521953F4F4F4F5F4F7B
:100E4000089590958095709561957F4F8F4F9F4F36
:100E500008950E945E07A59F900DB49F900DA49FDA
:100E6000800D911D11240895B7FF0C9429070E944D
:100E70002907821B930B0895A1E21A2EAA1BBB1B04
:100E8000FD010DC0AA1FBB1FEE1FFF1FA217B30756
:100E9000E407F50720F0A21BB30BE40BF50B661F6C
:100EA000771F881F991F1A9469F760957095809530
:100EB00090959B01AC01BD01CF010895A29FB001A7
:100EC000B39FC001A39F700D811D1124911DB29F7E
:100ED000700D811D1124911D0895EE0FFF1F0590C7
:100EE000F491E02D099481E090E0F8940C94780757
:040EF000F894FFCFA4
:100EF400FFFF900188130100000000000000BA0108
:100F0400230151010C028201600174010D0A005396
:100F14006B657463683A202020002F686F6D652F1D
:100F240068616E64696B6F2F41726475696E6F2DB1
:100F3400415052532F41726475696E6F2D536B6526
:100F440074636865732F4578616D706C652F4150CB
:100F540052535F4D697865645F4D6573736167656E
:100F64002F415052535F4D697865645F4D657373CB
:100F74006167652E696E6F0055706C6F616465649E
:100F84003A20004A616E2031392032303139005222
:100F9400616E646F6D20537472696E672050756C56
:100FA400736564204146534B2047656E65726174D6
:100FB4006F72202D2053746172746564200A004D91
:100FC4005943414C4C004150525300424541434F18
:100FD4004E00574944453200303631302E353553B2
:100FE4000031303634392E3632450048656C6C6F2A
:100FF40020576F726C642C205468697320697320C5
:10100400612073696D706C652041726475696E6FDF
:101014002041505253205472616E736D697474652B
:041024007220210015
:107E0000112484B714BE81FFF0D085E080938100F7
:107E100082E08093C00088E18093C10086E0809377
:107E2000C20080E18093C4008EE0C9D0259A86E02C
:107E300020E33CEF91E0309385002093840096BBD3
:107E4000B09BFECF1D9AA8958150A9F7CC24DD24C4
:107E500088248394B5E0AB2EA1E19A2EF3E0BF2EE7
:107E6000A2D0813461F49FD0082FAFD0023811F036
:107E7000013811F484E001C083E08DD089C08234E0
:107E800011F484E103C0853419F485E0A6D080C0E4
:107E9000853579F488D0E82EFF2485D0082F10E0AE
:107EA000102F00270E291F29000F111F8ED06801E7
:107EB0006FC0863521F484E090D080E0DECF843638
:107EC00009F040C070D06FD0082F6DD080E0C81688
:107ED00080E7D80618F4F601B7BEE895C0E0D1E017
:107EE00062D089930C17E1F7F0E0CF16F0E7DF06D8
:107EF00018F0F601B7BEE89568D007B600FCFDCFD4
:107F0000A601A0E0B1E02C9130E011968C91119780
:107F100090E0982F8827822B932B1296FA010C0160
:107F200087BEE89511244E5F5F4FF1E0A038BF0790
:107F300051F7F601A7BEE89507B600FCFDCF97BE46
:107F4000E89526C08437B1F42ED02DD0F82E2BD052
:107F50003CD0F601EF2C8F010F5F1F4F84911BD097
:107F6000EA94F801C1F70894C11CD11CFA94CF0C13
:107F7000D11C0EC0853739F428D08EE10CD085E9AC
:107F80000AD08FE07ACF813511F488E018D01DD067
:107F900080E101D065CF982F8091C00085FFFCCF94
:107FA0009093C60008958091C00087FFFCCF809118
:107FB000C00084FD01C0A8958091C6000895E0E648
:107FC000F0E098E1908380830895EDDF803219F02E
:107FD00088E0F5DFFFCF84E1DECF1F93182FE3DFCA
:107FE0001150E9F7F2DF1F91089580E0E8DFEE27F6
:047FF000FF270994CA
:027FFE00040479
:0400000300007E007B
:00000001FF
