:100000000C945C000C9479000C9479000C947900A9
:100010000C9479000C9479000C9479000C9479007C
:100020000C9479000C9479000C9479000C9479006C
:100030000C9479000C9479000C9479000C9479005C
:100040000C94C5010C9479000C9479000C947900FF
:100050000C9479000C9479000C9479000C9479003C
:100060000C9479000C947900000000080002010053
:100070000003040700000000000000000000000072
:10008000250028002B0000000000240027002A0083
:10009000040404040404040402020202020203032E
:1000A0000303030301020408102040800102040836
:1000B000102001020408102011241FBECFEFD8E049
:1000C000DEBFCDBF11E0A0E0B1E0ECE6F5E002C09C
:1000D00005900D92A430B107D9F721E0A4E0B1E07A
:1000E00001C01D92AD30B207E1F70E940F020C94DF
:1000F000B4020C94000090E0FC01EC55FF4F2491F9
:10010000FC01E057FF4F8491882399F090E0880F1D
:10011000991FFC01EA57FF4FA591B491FC01E458E7
:10012000FF4F859194918FB7F894EC91E22BEC936B
:100130008FBF089590E0FC01E859FF4F2491FC0126
:10014000EC55FF4F3491FC01E057FF4FE491EE2353
:1001500009F43CC0222339F1233091F038F42130E6
:10016000A9F0223001F584B58F7D12C0273091F0BF
:100170002830A1F02430B9F4809180008F7D03C035
:10018000809180008F77809380000DC084B58F7739
:1001900084BD09C08091B0008F7703C08091B0000A
:1001A0008F7D8093B000F0E0EE0FFF1FE458FF4F0B
:1001B000A591B4919FB7F894611104C08C913095CA
:1001C000382302C0EC913E2B3C939FBF08958230B0
:1001D000910538F0880F991F880F991F059701978F
:1001E000F1F708953FB7F8948091090190910A01C1
:1001F000A0910B01B0910C0126B5A89B05C02F3F23
:1002000019F00196A11DB11D3FBFBA2FA92F982F3C
:100210008827820F911DA11DB11DBC01CD0142E0B7
:10022000660F771F881F991F4A95D1F708958F92FF
:100230009F92AF92BF92CF92DF92EF92FF926B01AB
:100240007C010E94F2004B015C01C114D104E10465
:10025000F104F1F00E94F200DC01CB018819990948
:10026000AA09BB09883E9340A105B10570F321E0BE
:10027000C21AD108E108F10888EE880E83E0981EC2
:10028000A11CB11CC114D104E104F10419F7DDCFA4
:10029000FF90EF90DF90CF90BF90AF909F908F90A6
:1002A0000895EF92FF920F931F93CF93DF932091C6
:1002B000000130910101213B344034F020EB34E067
:1002C0003093010120930001C0E0D0E0813029F09B
:1002D00090E6E92E99E0F92E40C080EBE82E84E00C
:1002E000F82E6091000170910101C7010E948C02FB
:1002F000C617D7070CF042C061E087E00E949A0061
:100300000AE010E08AE290E00E94E7000150110943
:10031000C9F760E087E00E949A000AE010E08AE2F4
:1003200090E00E94E70001501109C9F72196D9CF4A
:1003300084E190E00E94E70001501109C9F760E0F4
:1003400087E00E949A000AE010E084E190E00E94B9
:10035000E70001501109C9F72196609100017091E1
:100360000101C7010E948C02C617D7073CF461E067
:1003700087E00E949A000AE010E0DACFDF91CF9187
:100380001F910F91FF90EF9008951F920F920FB65B
:100390000F9211242F933F938F939F93AF93BF930B
:1003A0008091050190910601A0910701B09108018B
:1003B0003091040123E0230F2D3720F40196A11D75
:1003C000B11D05C026E8230F0296A11DB11D209383
:1003D00004018093050190930601A0930701B09357
:1003E00008018091090190910A01A0910B01B0913F
:1003F0000C010196A11DB11D8093090190930A0182
:10040000A0930B01B0930C01BF91AF919F918F917D
:100410003F912F910F900FBE0F901F9018957894D9
:1004200084B5826084BD84B5816084BD85B58260F9
:1004300085BD85B5816085BD80916E0081608093AA
:100440006E00109281008091810082608093810013
:100450008091810081608093810080918000816023
:10046000809380008091B10084608093B10080917E
:10047000B00081608093B00080917A0084608093A6
:100480007A0080917A00826080937A0080917A006D
:10049000816080937A0080917A00806880937A00EE
:1004A0001092C10087E00E947B008DE00E947B00DB
:1004B00068EE73E080E090E00E94170180E0E82E93
:1004C00080E0F82E61E08DE00E949A0068EE73E013
:1004D00080E090E00E941701C4E6D0E008E010E060
:1004E000809102018095809302010E945101015088
:1004F0001109B1F7219791F760E08DE00E949A0011
:1005000068E873E180E090E00E941701E114F104D3
:10051000C9F20E940000D6CF97FB072E16F4009474
:1005200007D077FD09D00E94A00207FC05D03EF459
:10053000909581959F4F0895709561957F4F08958F
:10054000AA1BBB1B51E107C0AA1FBB1FA617B707F9
:1005500010F0A61BB70B881F991F5A95A9F7809515
:0C0560009095BC01CD010895F894FFCFE8
:04056C00B0040100D6
:00000001FF
