:100000000C9463000C948B000C948B000C943707B9
:100010000C9437070C9437070C948B000C948B00CE
:100020000C948B000C948B000C948B000C948B0024
:100030000C948B000C948B000C948B000C948B0014
:100040000C9495060C948B000C9405070C94DF0619
:100050000C948B000C948B000C948B000C948B00F4
:100060000C948B000C948B000000000024002700EF
:100070002A0000000008000201000003040700003D
:1000800000000000000000000000230026002900FE
:1000900000000000250028002B00040404040404D0
:1000A0000404020202020202030303030303010227
:1000B00004081020408001020408102001020408F6
:1000C0001020B107870911241FBECFEFD8E0DEBF93
:1000D000CDBF12E0A0E0B1E0ECEAF5E102C005908E
:1000E0000D92A431B107D9F723E0A4E1B2E001C039
:1000F0001D92A739B207E1F710E0C2E6D0E004C0D4
:100100002197FE010E94BE0AC136D107C9F70E949D
:100110005C080C94C90A0C940000EBEDF2E0A08995
:10012000B18982E08C93A485B5851C92A685B7859C
:1001300080E18C93108EA489B58986E08C93A28986
:10014000B3898C9180618C93A289B3898C918860EA
:100150008C93A289B3898C9180688C930288F389EF
:10016000E02D80818F7D8083089590E0FC01EE5822
:10017000FF4F2491FC01E255FF4F3491FC01E656FC
:10018000FF4FE491EE2309F43CC0222339F12330E0
:1001900091F038F42130A9F0223001F584B58F7D3B
:1001A00012C0273091F02830A1F02430B9F48091AA
:1001B00080008F7D03C0809180008F7780938000C6
:1001C0000DC084B58F7784BD09C08091B0008F7752
:1001D00003C08091B0008F7D8093B000F0E0EE0FFF
:1001E000FF1FE057FF4FA591B4919FB7F89461119D
:1001F00004C08C913095382302C0EC913E2B3C9387
:100200009FBF0895CF93DF9390E0FC01E255FF4F2D
:100210002491FC01E656FF4F8491882361F190E020
:10022000880F991FFC01E859FF4FC591D491FC013B
:10023000E057FF4FA591B491611109C09FB7F894A1
:100240008881209582238883EC912E230BC0623015
:1002500061F49FB7F8948881322F30958323888387
:10026000EC912E2B2C939FBF06C08FB7F894E8819A
:100270002E2B28838FBFDF91CF9108958230910577
:1002800038F0880F991F880F991F05970197F1F78C
:1002900008953FB7F8948091D3029091D402A09131
:1002A000D502B091D60226B5A89B05C02F3F19F004
:1002B0000196A11DB11D3FBFBA2FA92F982F8827E6
:1002C000820F911DA11DB11DBC01CD0142E0660F41
:1002D000771F881F991F4A95D1F708950895CF92E7
:1002E000DF92EF92FF920F931F93CF93DF936C01F6
:1002F0007A018B01C0E0D0E0CE15DF0581F0D80196
:100300006D918D01D601ED91FC910190F081E02D70
:10031000C6010995892B11F02196EECF7E01C70108
:10032000DF91CF911F910F91FF90EF90DF90CF90D1
:100330000895FC01538D448D252F30E0842F90E0EB
:10034000821B930B541710F0CF96089501970895D0
:10035000FC01918D828D981761F0828DDF01A80FCD
:10036000B11D5D968C91928D9F5F9F73928F90E0EF
:1003700008958FEF9FEF0895FC01918D828D98175E
:1003800031F0828DE80FF11D858D90E008958FEF9B
:100390009FEF0895FC01918D228D892F90E0805C64
:1003A0009F4F821B91098F73992708958BED92E0DF
:1003B0000E94CA0121E0892B09F420E0822F0895D0
:1003C000FC01848DDF01A80FB11DA35ABF4F2C91F2
:1003D000848D90E001968F739927848FA689B789C1
:1003E0002C93A089B1898C91837080648C93938DB8
:1003F000848D981306C00288F389E02D80818F7D5B
:1004000080830895EF92FF920F931F93CF93DF9312
:10041000EC0181E0888F9B8D8C8D981305C0E88955
:10042000F989808185FD26C0F62E0B8D10E00F5FC7
:100430001F4F0F731127E02E8C8DE8120CC00FB6E2
:1004400007FCFACFE889F989808185FFF5CFCE01D5
:100450000E94E001F1CF8B8DFE01E80FF11DE35A00
:10046000FF4FF0829FB7F8940B8FEA89FB89808158
:1004700080620AC09FB7F894EE89FF896083E8899B
:10048000F98980818370806480839FBF81E090E0E0
:10049000DF91CF911F910F91FF90EF900895682FFA
:1004A0008BED92E00C940202CF93DF93EC01888DE8
:1004B0008823C9F0EA89FB89808185FD05C0A88968
:1004C000B9898C9186FD0FC00FB607FCF5CF8081EE
:1004D00085FFF2CFA889B9898C9185FFEDCFCE0138
:1004E0000E94E001E7CFDF91CF91089580E090E096
:1004F000892B29F00E94D60181110C9400000895E7
:100500002091D9023091DA022817390771F49091BD
:10051000D7028091D802981741F0E091D702F0E01D
:10052000EA5EFD4F808190E008958FEF9FEF089580
:100530001F93CF93DF93DC015C968D919C915D9727
:10054000009739F421E030E013963C932E931297F4
:100550003BC05196ED91FC91529750962C9150973B
:10056000322F30951FB75E964C915E97742F727044
:1005700041FD6095F8944081772311F0422B01C032
:1005800043234083EC012197F1F748E0508160FF5D
:1005900002C0522B01C053235083EC012197F1F785
:1005A0006695415099F78081772319F083238083E2
:1005B00002C0282B20831FBF5C968D919C915D9774
:1005C0000197F1F781E090E0DF91CF911F910895BD
:1005D0002091D9023091DA022817390771F48091FD
:1005E000D8022091D70290E0805C9F4F821B910936
:1005F00060E470E00E94960A089580E090E008951B
:100600002091D9023091DA0228173907B9F4909174
:10061000D7028091D802981789F0E091D702F0E0D4
:10062000EA5EFD4F80812091D70230E02F5F3F4F7F
:100630002F7333272093D70290E008958FEF9FEF19
:100640000895E091D902F091DA02E817F90769F408
:10065000A389B4899C918589809589238C93109274
:10066000DA021092D90281E0089580E00895109294
:1006700093031092920310929103109290031092A0
:100680008F0310928E038DE991E0909395038093F0
:10069000940390918403963108F058C02DEB30E01C
:1006A00030938F0320938E032BE931E03093910335
:1006B000209390032CE231E0309393032093920334
:1006C00040916800983058F031E09E3008F430E0F6
:1006D00021E0822F01C0880F3A95EAF701C084E03B
:1006E000842B80936800983038F09E3040F096312B
:1006F00048F020E030E008C02DE630E005C02BE6F1
:1007000030E002C02CE630E030938C0320938B0362
:10071000983030F481E001C0880F9A95EAF70EC056
:10072000292F30E09E3018F42850310902C02E5095
:10073000310981E001C0880F2A95EAF780938D0383
:1007400080919403909195030197F1F78091920322
:1007500090919303892B21F18091D9029091DA0233
:1007600023E088379207E1F0009711F00E942103FF
:10077000809196038E7F809396031092D8021092F8
:10078000D70288E793E09093DA028093D902E09150
:100790008B03F0918C03908180918D03892B808352
:1007A0000895089580E090E0089561E082E00E945D
:1007B000B5008BEC90E00E943E0160E082E00E9478
:1007C000B5008BEC90E00E943E0161E082E00E9467
:1007D000B5008BEC90E00E943E0160E082E00E9458
:1007E000B5008BEC90E00C943E0161E082E00E9449
:1007F000B50086E991E00E943E0160E082E00E943F
:10080000B50086E991E00C943E01EF92FF920F93C0
:100810001F93CF93DF93D82FE62E08E010E0FF243C
:10082000F3944D2F41702091000130910101C901D5
:1008300096958795242720FF04C028E0822724E886
:1008400092279093010180930001C09115024423E7
:1008500081F0CC2319F00E94F50302C00E94D50359
:10086000809114028F5F80931402EE2071F0853026
:1008700061F4CF25C0931502CC2319F00E94F50333
:1008800002C00E94D50310921402D695015011099E
:1008900041F6DF91CF911F910F91FF90EF90089556
:1008A000EF92FF920F931F93CF93DF938C017B0105
:1008B000EC01CE01801B910B8E159F052CF461E09D
:1008C00089910E940504F5CFDF91CF911F910F917F
:1008D000FF90EF900895009769F0FC0101900020CF
:1008E000E9F73197AF01481B590BBC018BED92E042
:1008F0000C946F0180E090E00895CF93DF930E9405
:100900006B04EC018CE291E00E946B048C0F9D1F44
:10091000DF91CF9108950C946B048F929F92AF92C8
:10092000BF92CF92DF92EF92FF920F931F93CF93DC
:10093000DF93CDB7DEB7A1970FB6F894DEBF0FBE39
:10094000CDBF6C01990FEE08FF08F7FE29C08DE2BC
:100950000E944F028C0122273327A9012C193D093F
:100960004E095F0919A2CE0181967C019AE0892E79
:10097000912CA12CB12CCA01B901A50194010E94AE
:10098000650A605DF70162937F012115310541051C
:10099000510589F7CF010E946B04800F911F1DC084
:1009A000A701960119A28E010F5D1F4F8AE0C82E84
:1009B000D12CE12CF12CCA01B901A70196010E94AA
:1009C000650A605DF80162938F01211531054105CB
:1009D000510589F7CF010E946B04A1960FB6F894D8
:1009E000DEBF0FBECDBFDF91CF911F910F91FF9062
:1009F000EF90DF90CF90BF90AF909F908F90089531
:100A00000F931F93CF93C82F0E948D008FE291E028
:100A10000E948B048DE20E944F0281E090E00E94D0
:100A20008D048EE30E944F02C23019F486E391E0F8
:100A300002C08DE391E00E948B048CE20E944F0281
:100A400081E491E00E948B048DE20E944F0281E0DC
:100A500090E00E948D048AE30E944F02C13031F47D
:100A600084E20E944F0289E692E02FC0C33091F4E5
:100A700081E20E944F0280E692E00E948B0488E4AB
:100A80000E944F0286E592E00E948B0481E60E945C
:100A90004F021DC0C43031F08EE30E944F0287E444
:100AA00091E013C081E20E944F0280E692E00E9432
:100AB0008B0488E40E944F0286E592E00E948B043A
:100AC00081E60E944F028DE691E00E948B0480E255
:100AD0000E944F028CE291E00E946B048BED92E049
:100AE0000E9454028BED92E00E945402E091ED02CC
:100AF000F091EE0280818F7E8083E091ED02F09193
:100B0000EE028081877F8083E091ED02F091EE021A
:100B100080818F778083E091ED02F091EE028081F9
:100B20008F7D80838091F5028093F40261E08DE0F7
:100B30000E94B50004E610E060E08EE70E94050424
:100B400001501109C9F78FEF9FEF90930101809336
:100B50000001C23071F406E311E0F80181918F01C8
:100B600061E0880F0E940504F1E00C331F07A9F72C
:100B700019C00DE311E0F80181918F0161E0880F48
:100B80000E940504F1E000341F07A9F761E080E44A
:100B90000E94050461E080E40E94050461E080E4B5
:100BA0000E94050461E080E60E9405040FE211E066
:100BB000F80181918F0161E0880F0E940504F1E046
:100BC00005331F07A9F761E082E60E94050401E4EE
:100BD00011E0F80181918F0161E0880F0E94050406
:100BE000F1E006341F07A9F761E080E40E940504E4
:100BF00061E083E60E94050461E083E00E94050451
:100C000061E080EF0E940504C13079F461E084E284
:100C10000E940504E9E6F2E001900020E9F7BF0137
:100C20006B56724089E692E05CC061E0C33031F5FA
:100C300081E20E940504E0E6F2E001900020E9F77D
:100C40003197BF016056724080E692E00E945004E6
:100C500061E088E40E940504E6E5F2E001900020EE
:100C6000E9F73197BF016655724086E592E00E9430
:100C7000500461E081E60E94050435C0C43041F0B3
:100C80008EE30E94050465E270E087E491E029C0EC
:100C900081E20E940504E0E6F2E001900020E9F71D
:100CA0003197BF016056724080E692E00E94500486
:100CB00061E088E40E940504E6E5F2E0019000208E
:100CC000E9F73197BF016655724086E592E00E94D0
:100CD000500461E081E60E94050466E170E08DE663
:100CE00091E00E94500480910001C091010161E0F7
:100CF00080950E94050461E08C2F80950E94050478
:100D000060E08EE70E94050460E08EE70E94050423
:100D100060E08EE70E94050460E08DE0CF911F91B6
:100D20000F910C94B5000E94C40A1F920F920FB647
:100D30000F9211242F933F938F939F93AF93BF9361
:100D40008091CF029091D002A091D102B091D202B5
:100D50003091CE0223E0230F2D3720F40196A11D00
:100D6000B11D05C026E8230F0296A11DB11D2093D9
:100D7000CE028093CF029093D002A093D102B09381
:100D8000D2028091D3029091D402A091D502B09169
:100D9000D6020196A11DB11D8093D3029093D40277
:100DA000A093D502B093D602BF91AF919F918F913E
:100DB0003F912F910F900FBE0F901F9018951F928B
:100DC0000F920FB60F9211242F933F934F935F937F
:100DD0006F937F938F939F93AF93BF93EF93FF9303
:100DE0008BED92E00E94E001FF91EF91BF91AF91F6
:100DF0009F918F917F916F915F914F913F912F9133
:100E00000F900FBE0F901F9018951F920F920FB664
:100E10000F9211242F938F939F93EF93FF93E09161
:100E2000EB02F091EC028081E091F102F091F2028C
:100E300082FD12C090818091F4028F5F8F732091A8
:100E4000F502821751F0E091F402F0E0E552FD4F17
:100E5000958F8093F40201C08081FF91EF919F9163
:100E60008F912F910F900FBE0F901F9018951F928A
:100E70000F920FB60F9211242F933F934F935F93CE
:100E80006F937F938F939F93AF93BF93EF93FF9352
:100E9000E091D902F091DA02309709F451C0968DB1
:100EA000A685B785858591FF04C09C91892329F487
:100EB00047C09C91892309F043C0A389B4899C91C0
:100EC0008589809589238C93868997890197F1F785
:100ED000608D718DA685B785558538E020E0CB0102
:100EE0000197F1F7822F90E095958795282F4C91E7
:100EF000452309F02068315091F7868D81FD2095BA
:100F00008091D80290E001968F7399273091D70293
:100F1000381749F0A091D802B0E0AA5EBD4F2C93DB
:100F20008093D80203C0868D8160868F828D938DD9
:100F30000197F1F7A389B4899C918589892B8C93BA
:100F4000FF91EF91BF91AF919F918F917F916F91A1
:100F50005F914F913F912F910F900FBE0F901F9077
:100F600018951092DE021092DD0288EE93E0A0E068
:100F7000B0E08093DF029093E002A093E102B0938F
:100F8000E2022CE031E03093DC022093DB0225EC1E
:100F900030E03093E8022093E70224EC30E0309315
:100FA000EA022093E90220EC30E03093EC02209337
:100FB000EB0221EC30E03093EE022093ED0222ECC4
:100FC00030E03093F0022093EF0226EC30E03093D3
:100FD000F2022093F1021092F4021092F5021092A4
:100FE000F6021092F70210927B0310927A0380931C
:100FF0007C0390937D03A0937E03B0937F038EE1E7
:1010000091E0909379038093780310928F0310926C
:101010008E031092910310929003109293031092FA
:1010200092031092950310929403609196036E7F41
:101030006D7F609396036695617081E0682789E013
:101040000E94B50061E089E00E940201E7EBF0E058
:10105000E491E0938803E3EAF0E0E491F0E0EE0F3E
:10106000FF1FE057FF4F8591949190938A038093DF
:10107000890360E088E00E9402018091960381FD6F
:1010800004C061E088E00E94B50088E0809384039A
:10109000E6EBF0E0E491E0938503E2EAF0E0E4912E
:1010A000F0E0EE0FFF1FEA57FF4F85919491909368
:1010B0008703809386030895789484B5826084BD05
:1010C00084B5816084BD85B5826085BD85B581604C
:1010D00085BD80916E00816080936E0010928100CA
:1010E0008091810082608093810080918100816085
:1010F0008093810080918000816080938000809146
:10110000B10084608093B1008091B00081608093D1
:10111000B00080917A00846080937A0080917A0098
:10112000826080937A0080917A00816080937A0057
:1011300080917A00806880937A001092C10061E00B
:101140008DE00E94020161E082E00E9402010E94A3
:101150008D000E9437038DE891E00E947D0484E8B1
:1011600091E00E948B048FE891E00E947D0487ED5E
:1011700091E00E948B0482EE91E00E947D048DE854
:1011800091E00E947D048EEE91E00E947D048DEC42
:10119000282E82E0382E07E612E090EA492E9FE0E2
:1011A000592E612C712C0E9437031092CD02E9E672
:1011B000F2E011922E163F06E1F788E793E00E94D5
:1011C000E80218161906CCF788E793E00E9400039E
:1011D000F82E24E28213F1CFC0E0D0E088E793E05C
:1011E0000E94E8021816190654F488E793E00E945A
:1011F0000003F82EFE01E759FD4F80832196C5308C
:10120000D10521F480916D02833449F48AE0F8120B
:1012100002C0C15005C02DE0F212E0CFFACFC0E00D
:10122000C093CD0288E793E00E942103ABE7B2E0D0
:10123000E0E6F2E08D9181930E171F07D9F78091B8
:10124000860280936702A8E8B2E0E6E5F2E08D91BD
:10125000819382E0EE35F807D1F780919402809374
:101260005E0280917902813469F4CB3084F00E946F
:10127000DC0925E030E040E050E00E94330A81E0E4
:10128000860F03C0CB301CF082E00E940005C090A6
:101290000201D0900301E12CF12C0E9449014B0185
:1012A0005C01C114D104E104F104F1F00E94490190
:1012B000DC01CB0188199909AA09BB09883E934032
:1012C000A105B10570F321E0C21AD108E108F108C7
:1012D00088EE880E83E0981EA11CB11CC114D104B5
:1012E000E104F10419F7DDCF0E94DC09A3019201AA
:1012F0000E94330ADC01CB0188519C4FAF4FBF4F96
:1013000090930301809302010E9476024CCF8EE1FC
:1013100091E0909379038093780388E793E00C94AD
:1013200021038F929F92AF92BF92CF92DF92EF9262
:10133000FF92CF93DF93EC01688179818A819B8151
:10134000611571058105910521F464E279ED8BE564
:1013500097E02DE133EF41E050E00E94330A49016C
:101360005A019B01AC01A7EAB1E40E94520A6B0149
:101370007C01ACEEB4EFA50194010E94600ADC018F
:10138000CB018C0D9D1DAE1DBF1DB7FF03C0019786
:10139000A109B04888839983AA83BB83BC01CD018E
:1013A0009F77DF91CF91FF90EF90DF90CF90BF902C
:1013B000AF909F908F9008958F929F92AF92BF921F
:1013C000CF92DF92EF92FF9260910401709105013C
:1013D00080910601909107016115710581059105C4
:1013E00021F464E279ED8BE597E02DE133EF41E004
:1013F00050E00E94330A49015A019B01AC01A7EA5F
:10140000B1E40E94520A6B017C01ACEEB4EFA5017D
:1014100094010E94600ADC01CB018C0D9D1DAE1D64
:10142000BF1DB7FF03C00197A109B0488093040115
:1014300090930501A0930601B0930701BC01CD0173
:101440009F77FF90EF90DF90CF90BF90AF909F90ED
:101450008F900895609304017093050180930601B5
:10146000909307010895052E97FB1EF400940E94A7
:101470004A0A57FD07D00E94650A07FC03D04EF4C4
:101480000C944A0A50954095309521953F4F4F4F07
:101490005F4F089590958095709561957F4F8F4F20
:1014A0009F4F08950E94870AA59F900DB49F900DAD
:1014B000A49F800D911D11240895B7FF0C94520A2A
:1014C0000E94520A821B930B0895A1E21A2EAA1BB6
:1014D000BB1BFD010DC0AA1FBB1FEE1FFF1FA217E4
:1014E000B307E407F50720F0A21BB30BE40BF50BE1
:1014F000661F771F881F991F1A9469F7609570956A
:10150000809590959B01AC01BD01CF010895A29FEC
:10151000B001B39FC001A39F700D811D1124911DC7
:10152000B29F700D811D1124911D089597FB072E08
:1015300016F4009407D077FD09D00E94AA0A07FC90
:1015400005D03EF4909581959F4F089570956195D3
:101550007F4F0895AA1BBB1B51E107C0AA1FBB1FE9
:10156000A617B70710F0A61BB70B881F991F5A952F
:10157000A9F780959095BC01CD010895EE0FFF1F4E
:101580000590F491E02D099481E090E0F8940C949A
:10159000C90A10E0C2E6D0E004C0FE010E94BE0A03
:0C15A0002196C336D107C9F7F894FFCF9D
:1015AC00FFFF8813010000000000000002026F0121
:1015BC0099015402CA01A801BC0100000000980264
:1015CC006F01D2036E01E802000380020D0A004D88
:1015DC005943414C4C00424541434F4E0041505AF7
:1015EC00005749444532002E2E3A3A7C20457870FB
:1015FC006572696D656E74616C2041726475696E9B
:10160C006F2D41505253207C3A3A2E2E007777772B
:10161C002E6769746875622E636F6D2F68616E64D6
:10162C00696B6F00536B657463683A20202000452A
:10163C003A5C41726475696E6F2D415052535C4136
:10164C00726475696E6F2D536B6574636865735C3A
:10165C00546573745C415052535F4750535F47500D
:10166C00524D435C415052535F4750535F47505269
:10167C004D432E696E6F0055706C6F616465643AF2
:10168C0020004A616E202032203230313900475020
:10169C00524D432041505253205472616E736D6908
:1016AC0074746572202D20537461727465642021EA
:0416BC00200A000000
:00000001FF
