:100000000C9463000C948B000C948B000C942D07C3
:100010000C942D070C942D070C948B000C948B00E2
:100020000C948B000C948B000C948B000C948B0024
:100030000C948B000C948B000C948B000C948B0014
:100040000C948B060C948B000C94FB060C94D50638
:100050000C948B000C948B000C948B000C948B00F4
:100060000C948B000C948B000000000024002700EF
:100070002A0000000008000201000003040700003D
:1000800000000000000000000000230026002900FE
:1000900000000000250028002B00040404040404D0
:1000A0000404020202020202030303030303010227
:1000B00004081020408001020408102001020408F6
:1000C0001020A7077D0911241FBECFEFD8E0DEBFA7
:1000D000CDBF12E0A0E0B1E0E8E9F5E102C0059093
:1000E0000D92A830B107D9F723E0A8E0B2E001C033
:1000F0001D92AB38B207E1F710E0C2E6D0E004C0D1
:100100002197FE010E94B40AC136D107C9F70E94A7
:1001100052080C94BF0A0C940000EFECF2E0A089A6
:10012000B18982E08C93A485B5851C92A685B7859C
:1001300080E18C93108EA489B58986E08C93A28986
:10014000B3898C9180618C93A289B3898C918860EA
:100150008C93A289B3898C9180688C930288F389EF
:10016000E02D80818F7D8083089590E0FC01EE5822
:10017000FF4F2491FC01E255FF4F3491FC01E656FC
:10018000FF4FE491EE2309F43CC0222339F12330E0
:1001900091F038F42130A9F0223001F584B58F7D3B
:1001A00012C0273091F02830A1F02430B9F48091AA
:1001B00080008F7D03C0809180008F7780938000C6
:1001C0000DC084B58F7784BD09C08091B0008F7752
:1001D00003C08091B0008F7D8093B000F0E0EE0FFF
:1001E000FF1FE057FF4FA591B4919FB7F89461119D
:1001F00004C08C913095382302C0EC913E2B3C9387
:100200009FBF0895CF93DF9390E0FC01E255FF4F2D
:100210002491FC01E656FF4F8491882361F190E020
:10022000880F991FFC01E859FF4FC591D491FC013B
:10023000E057FF4FA591B491611109C09FB7F894A1
:100240008881209582238883EC912E230BC0623015
:1002500061F49FB7F8948881322F30958323888387
:10026000EC912E2B2C939FBF06C08FB7F894E8819A
:100270002E2B28838FBFDF91CF9108958230910577
:1002800038F0880F991F880F991F05970197F1F78C
:1002900008953FB7F8948091C7029091C802A09149
:1002A000C902B091CA0226B5A89B05C02F3F19F01C
:1002B0000196A11DB11D3FBFBA2FA92F982F8827E6
:1002C000820F911DA11DB11DBC01CD0142E0660F41
:1002D000771F881F991F4A95D1F708950895CF92E7
:1002E000DF92EF92FF920F931F93CF93DF936C01F6
:1002F0007A018B01C0E0D0E0CE15DF0581F0D80196
:100300006D918D01D601ED91FC910190F081E02D70
:10031000C6010995892B11F02196EECF7E01C70108
:10032000DF91CF911F910F91FF90EF90DF90CF90D1
:100330000895FC01538D448D252F30E0842F90E0EB
:10034000821B930B541710F0CF96089501970895D0
:10035000FC01918D828D981761F0828DDF01A80FCD
:10036000B11D5D968C91928D9F5F9F73928F90E0EF
:1003700008958FEF9FEF0895FC01918D828D98175E
:1003800031F0828DE80FF11D858D90E008958FEF9B
:100390009FEF0895FC01918D228D892F90E0805C64
:1003A0009F4F821B91098F73992708958FEC92E0DC
:1003B0000E94CA0121E0892B09F420E0822F0895D0
:1003C000FC01848DDF01A80FB11DA35ABF4F2C91F2
:1003D000848D90E001968F739927848FA689B789C1
:1003E0002C93A089B1898C91837080648C93938DB8
:1003F000848D981306C00288F389E02D80818F7D5B
:1004000080830895EF92FF920F931F93CF93DF9312
:10041000EC0181E0888F9B8D8C8D981305C0E88955
:10042000F989808185FD26C0F62E0B8D10E00F5FC7
:100430001F4F0F731127E02E8C8DE8120CC00FB6E2
:1004400007FCFACFE889F989808185FFF5CFCE01D5
:100450000E94E001F1CF8B8DFE01E80FF11DE35A00
:10046000FF4FF0829FB7F8940B8FEA89FB89808158
:1004700080620AC09FB7F894EE89FF896083E8899B
:10048000F98980818370806480839FBF81E090E0E0
:10049000DF91CF911F910F91FF90EF900895682FFA
:1004A0008FEC92E00C940202CF93DF93EC01888DE5
:1004B0008823C9F0EA89FB89808185FD05C0A88968
:1004C000B9898C9186FD0FC00FB607FCF5CF8081EE
:1004D00085FFF2CFA889B9898C9185FFEDCFCE0138
:1004E0000E94E001E7CFDF91CF91089580E090E096
:1004F000892B29F00E94D60181110C9400000895E7
:100500002091CD023091CE022817390771F49091D5
:10051000CB028091CC02981741F0E091CB02F0E041
:10052000E65FFD4F808190E008958FEF9FEF089583
:100530001F93CF93DF93DC015C968D919C915D9727
:10054000009739F421E030E013963C932E931297F4
:100550003BC05196ED91FC91529750962C9150973B
:10056000322F30951FB75E964C915E97742F727044
:1005700041FD6095F8944081772311F0422B01C032
:1005800043234083EC012197F1F748E0508160FF5D
:1005900002C0522B01C053235083EC012197F1F785
:1005A0006695415099F78081772319F083238083E2
:1005B00002C0282B20831FBF5C968D919C915D9774
:1005C0000197F1F781E090E0DF91CF911F910895BD
:1005D0002091CD023091CE022817390771F4809115
:1005E000CC022091CB0290E0805C9F4F821B91094E
:1005F00060E470E00E948C0A089580E090E0089525
:100600002091CD023091CE0228173907B9F490918C
:10061000CB028091CC02981789F0E091CB02F0E0F8
:10062000E65FFD4F80812091CB0230E02F5F3F4F8E
:100630002F7333272093CB0290E008958FEF9FEF25
:100640000895E091CD02F091CE02E817F90769F420
:10065000A389B4899C918589809589238C93109274
:10066000CE021092CD0281E0089580E008951092AC
:1006700087031092860310928503109284031092D0
:100680008303109282038DE991E090938903809314
:10069000880390917803963108F058C02DEB30E034
:1006A00030938303209382032BE931E03093850359
:1006B000209384032CE231E0309387032093860358
:1006C00040916800983058F031E09E3008F430E0F6
:1006D00021E0822F01C0880F3A95EAF701C084E03B
:1006E000842B80936800983038F09E3040F096312B
:1006F00048F020E030E008C02DE630E005C02BE6F1
:1007000030E002C02CE630E03093800320937F037A
:10071000983030F481E001C0880F9A95EAF70EC056
:10072000292F30E09E3018F42850310902C02E5095
:10073000310981E001C0880F2A95EAF7809381038F
:1007400080918803909189030197F1F78091860346
:1007500090918703892B21F18091CD029091CE0257
:1007600023E08C369207E1F0009711F00E942103FC
:1007700080918A038E7F80938A031092CC0210921C
:10078000CB028CE693E09093CE028093CD02E09171
:100790007F03F0918003908180918103892B808376
:1007A0000895089580E090E0089561E082E00E945D
:1007B000B5008BEC90E00E943E0160E082E00E9478
:1007C000B5008BEC90E00E943E0161E082E00E9467
:1007D000B5008BEC90E00E943E0160E082E00E9458
:1007E000B5008BEC90E00C943E0161E082E00E9449
:1007F000B50086E991E00E943E0160E082E00E943F
:10080000B50086E991E00C943E01EF92FF920F93C0
:100810001F93CF93DF93D82FE62E08E010E0FF243C
:10082000F3944D2F41702091000130910101C901D5
:1008300096958795242720FF04C028E0822724E886
:1008400092279093010180930001C09109024423F3
:1008500081F0CC2319F00E94F50302C00E94D50359
:10086000809108028F5F80930802EE2071F085303E
:1008700061F4CF25C0930902CC2319F00E94F5033F
:1008800002C00E94D50310920802D69501501109AA
:1008900041F6DF91CF911F910F91FF90EF90089556
:1008A000EF92FF920F931F93CF93DF938C017B0105
:1008B000EC01CE01801B910B8E159F052CF461E09D
:1008C00089910E940504F5CFDF91CF911F910F917F
:1008D000FF90EF900895009769F0FC0101900020CF
:1008E000E9F73197AF01481B590BBC018FEC92E03F
:1008F0000C946F0180E090E00895CF93DF930E9405
:100900006B04EC018CE291E00E946B048C0F9D1F44
:10091000DF91CF9108950C946B048F929F92AF92C8
:10092000BF92CF92DF92EF92FF920F931F93CF93DC
:10093000DF93CDB7DEB7A1970FB6F894DEBF0FBE39
:10094000CDBF6C01990FEE08FF08F7FE29C08DE2BC
:100950000E944F028C0122273327A9012C193D093F
:100960004E095F0919A2CE0181967C019AE0892E79
:10097000912CA12CB12CCA01B901A50194010E94AE
:100980005B0A605DF70162937F0121153105410526
:10099000510589F7CF010E946B04800F911F1DC084
:1009A000A701960119A28E010F5D1F4F8AE0C82E84
:1009B000D12CE12CF12CCA01B901A70196010E94AA
:1009C0005B0A605DF80162938F01211531054105D5
:1009D000510589F7CF010E946B04A1960FB6F894D8
:1009E000DEBF0FBECDBFDF91CF911F910F91FF9062
:1009F000EF90DF90CF90BF90AF909F908F90089531
:100A00000F931F93CF93C82F0E948D008FE291E028
:100A10000E948B048DE20E944F0281E090E00E94D0
:100A20008D048EE30E944F02C23019F486E391E0F8
:100A300002C08DE391E00E948B048CE20E944F0281
:100A400081E491E00E948B048DE20E944F0281E0DC
:100A500090E00E948D048AE30E944F02C13031F47D
:100A600084E20E944F028DE592E02BC0C33091F4E6
:100A700081E20E944F0284E592E00E948B0488E4A8
:100A80000E944F028AE492E00E948B0481E60E9459
:100A90004F0219C0C43011F08EE30FC081E20E94F2
:100AA0004F0284E592E00E948B0488E40E944F028A
:100AB0008AE492E00E948B0481E60E944F0287E460
:100AC00091E00E948B0480E20E944F028CE291E050
:100AD0000E946B048FEC92E00E9454028FEC92E033
:100AE0000E945402E091E102F091E20280818F7E47
:100AF0008083E091E102F091E2028081877F808330
:100B0000E091E102F091E20280818F778083E091B1
:100B1000E102F091E20280818F7D80838091E90281
:100B20008093E80261E08DE00E94B50004E610E0E9
:100B300060E08EE70E94050401501109C9F78FEFAC
:100B40009FEF9093010180930001C23071F406E39E
:100B500011E0F80181918F0161E0880F0E94050486
:100B6000F1E00C331F07A9F719C00DE311E0F801FC
:100B700081918F0161E0880F0E940504F1E000344B
:100B80001F07A9F761E080E40E94050461E080E4AA
:100B90000E94050461E080E40E94050461E080E6B3
:100BA0000E9405040FE211E0F80181918F0161E0DC
:100BB000880F0E940504F1E005331F07A9F761E0E3
:100BC00082E60E94050401E411E0F80181918F01A1
:100BD00061E0880F0E940504F1E006341F07A9F7C1
:100BE00061E080E40E94050461E083E60E94050460
:100BF00061E083E00E94050461E080EF0E9405044B
:100C0000C13079F461E084E20E940504EDE5F2E090
:100C100001900020E9F7BF016F5572408DE592E029
:100C200056C061E0C33031F581E20E940504E4E57D
:100C3000F2E001900020E9F73197BF01645572405E
:100C400084E592E00E94500461E088E40E9405047B
:100C5000EAE4F2E001900020E9F73197BF016A541D
:100C600072408AE492E00E94500461E081E60E94B2
:100C700005042FC0C43011F08EE323C081E20E942E
:100C80000504E4E5F2E001900020E9F73197BF01A7
:100C90006455724084E592E00E94500461E088E46B
:100CA0000E940504EAE4F2E001900020E9F73197A0
:100CB000BF016A5472408AE492E00E94500461E0ED
:100CC00081E60E94050465E270E087E491E00E94FD
:100CD000500480910001C091010161E080950E9463
:100CE000050461E08C2F80950E94050460E08EE78A
:100CF0000E94050460E08EE70E94050460E08EE734
:100D00000E94050460E08DE0CF911F910F910C943B
:100D1000B5000E94BA0A1F920F920FB60F921124CB
:100D20002F933F938F939F93AF93BF938091C30271
:100D30009091C402A091C502B091C6023091C20246
:100D400023E0230F2D3720F40196A11DB11D05C00E
:100D500026E8230F0296A11DB11D2093C2028093A5
:100D6000C3029093C402A093C502B093C6028091BF
:100D7000C7029091C802A091C902B091CA0201961F
:100D8000A11DB11D8093C7029093C802A093C90210
:100D9000B093CA02BF91AF919F918F913F912F91D4
:100DA0000F900FBE0F901F9018951F920F920FB6C5
:100DB0000F9211242F933F934F935F936F937F93E1
:100DC0008F939F93AF93BF93EF93FF938FEC92E03A
:100DD0000E94E001FF91EF91BF91AF919F918F91A0
:100DE0007F916F915F914F913F912F910F900FBE27
:100DF0000F901F9018951F920F920FB60F9211240B
:100E00002F938F939F93EF93FF93E091DF02F091E5
:100E1000E0028081E091E502F091E60282FD12C0DD
:100E200090818091E8028F5F8F732091E902821791
:100E300051F0E091E802F0E0E153FD4F958F80938F
:100E4000E80201C08081FF91EF919F918F912F91D6
:100E50000F900FBE0F901F9018951F920F920FB614
:100E60000F9211242F933F934F935F936F937F9330
:100E70008F939F93AF93BF93EF93FF93E091CD0236
:100E8000F091CE02309709F451C0968DA685B785B2
:100E9000858591FF04C09C91892329F447C09C91CA
:100EA000892309F043C0A389B4899C9185898095E1
:100EB00089238C93868997890197F1F7608D718DCD
:100EC000A685B785558538E020E0CB010197F1F77D
:100ED000822F90E095958795282F4C91452309F016
:100EE0002068315091F7868D81FD20958091CC024C
:100EF00090E001968F7399273091CB02381749F013
:100F0000A091CC02B0E0A65FBD4F2C938093CC02A1
:100F100003C0868D8160868F828D938D0197F1F756
:100F2000A389B4899C918589892B8C93FF91EF913A
:100F3000BF91AF919F918F917F916F915F914F91F1
:100F40003F912F910F900FBE0F901F901895109208
:100F5000D2021092D10288EE93E0A0E0B0E080933C
:100F6000D3029093D402A093D502B093D6022CE082
:100F700031E03093D0022093CF0225EC30E0309363
:100F8000DC022093DB0224EC30E03093DE0220937D
:100F9000DD0220EC30E03093E0022093DF0221EC10
:100FA00030E03093E2022093E10222EC30E0309313
:100FB000E4022093E30226EC30E03093E602209333
:100FC000E5021092E8021092E9021092EA021092F1
:100FD000EB0210926F0310926E0380937003909354
:100FE0007103A0937203B09373038EE191E0909329
:100FF0006D0380936C03109283031092820310920E
:101000008503109284031092870310928603109236
:1010100089031092880360918A036E7F6D7F6093CD
:101020008A036695617081E0682789E00E94B500B7
:1010300061E089E00E940201E7EBF0E0E491E093D7
:101040007C03E3EAF0E0E491F0E0EE0FFF1FE057ED
:10105000FF4F8591949190937E0380937D0360E090
:1010600088E00E94020180918A0381FD04C061E052
:1010700088E00E94B50088E080937803E6EBF0E01A
:10108000E491E0937903E2EAF0E0E491F0E0EE0F1E
:10109000FF1FEA57FF4F8591949190937B038093B4
:1010A0007A030895789484B5826084BD84B58160A4
:1010B00084BD85B5826085BD85B5816085BD809123
:1010C0006E00816080936E0010928100809181009B
:1010D0008260809381008091810081608093810093
:1010E000809180008160809380008091B100846055
:1010F0008093B1008091B00081608093B0008091B6
:101100007A00846080937A0080917A008260809374
:101110007A0080917A00816080937A0080917A00D1
:10112000806880937A001092C10061E08DE00E9497
:10113000020161E082E00E9402010E948D000E9493
:10114000370386E791E00E947D048DE691E00E94DE
:101150008B0488E791E00E947D048BEC91E00E9473
:101160008B0486ED91E00E947D0486E791E00E9469
:101170007D0482EE91E00E947D0481EC282E82E0C5
:10118000382E0BE512E090EA492E9FE0592E612C93
:10119000712C0E9437031092C102EDE5F2E011922A
:1011A0002E163F06E1F78CE693E00E94E80218163F
:1011B0001906CCF78CE693E00E940003F82E24E297
:1011C0008213F1CFC0E0D0E08CE693E00E94E80209
:1011D0001816190654F48CE693E00E940003F82ECA
:1011E000FE01E35AFD4F80832196C530D10521F4DD
:1011F00080916102833449F48AE0F81202C0C15040
:1012000005C02DE0F212E0CFFACFC0E0C093C102DA
:101210008CE693E00E942103AFE6B2E0E4E5F2E061
:101220008D9181930E171F07D9F780917A028093D1
:101230005B02ACE7B2E0EAE4F2E08D91819382E0F8
:10124000E235F807D1F780918802809352028091AD
:101250006D02813469F4CB3084F00E94D20925E01C
:1012600030E040E050E00E94290A81E0860F03C090
:10127000CB301CF082E00E940005C0900201D090AB
:101280000301E12CF12C0E9449014B015C01C114C6
:10129000D104E104F104F1F00E944901DC01CB0129
:1012A00088199909AA09BB09883E9340A105B1058F
:1012B00070F321E0C21AD108E108F10888EE880E27
:1012C00083E0981EA11CB11CC114D104E104F104F7
:1012D00019F7DDCF0E94D209A30192010E94290AC9
:1012E000DC01CB0188519C4FAF4FBF4F909303015E
:1012F000809302010E9476024CCF8EE191E09093A0
:101300006D0380936C038CE693E00C9421038F9221
:101310009F92AF92BF92CF92DF92EF92FF92CF93C4
:10132000DF93EC01688179818A819B816115710568
:101330008105910521F464E279ED8BE597E02DE1DB
:1013400033EF41E050E00E94290A49015A019B0114
:10135000AC01A7EAB1E40E94480A6B017C01ACEE43
:10136000B4EFA50194010E94560ADC01CB018C0D5B
:101370009D1DAE1DBF1DB7FF03C00197A109B04859
:1013800088839983AA83BB83BC01CD019F77DF91BA
:10139000CF91FF90EF90DF90CF90BF90AF909F9054
:1013A0008F9008958F929F92AF92BF92CF92DF92CB
:1013B000EF92FF9260910401709105018091060106
:1013C00090910701611571058105910521F464E291
:1013D00079ED8BE597E02DE133EF41E050E00E949D
:1013E000290A49015A019B01AC01A7EAB1E40E9414
:1013F000480A6B017C01ACEEB4EFA50194010E9498
:10140000560ADC01CB018C0D9D1DAE1DBF1DB7FF23
:1014100003C00197A109B04880930401909305018E
:10142000A0930601B0930701BC01CD019F77FF9007
:10143000EF90DF90CF90BF90AF909F908F900895E6
:101440006093040170930501809306019093070156
:101450000895052E97FB1EF400940E94400A57FD44
:1014600007D00E945B0A07FC03D04EF40C94400A9C
:1014700050954095309521953F4F4F4F5F4F0895C0
:1014800090958095709561957F4F8F4F9F4F0895F0
:101490000E947D0AA59F900DB49F900DA49F800D82
:1014A000911D11240895B7FF0C94480A0E94480A20
:1014B000821B930B0895A1E21A2EAA1BBB1BFD01F0
:1014C0000DC0AA1FBB1FEE1FFF1FA217B307E40723
:1014D000F50720F0A21BB30BE40BF50B661F771F7B
:1014E000881F991F1A9469F760957095809590955B
:1014F0009B01AC01BD01CF010895A29FB001B39F34
:10150000C001A39F700D811D1124911DB29F700D0C
:10151000811D1124911D089597FB072E16F4009448
:1015200007D077FD09D00E94A00A07FC05D03EF441
:10153000909581959F4F0895709561957F4F08957F
:10154000AA1BBB1B51E107C0AA1FBB1FA617B707E9
:1015500010F0A61BB70B881F991F5A95A9F7809505
:101560009095BC01CD010895EE0FFF1F0590F491F9
:10157000E02D099481E090E0F8940C94BF0A10E00B
:10158000C2E6D0E004C0FE010E94B40A2196C33630
:08159000D107C9F7F894FFCF61
:10159800FFFF8813010000000000000002026F0135
:1015A80099015402CA01A801BC0100000000980278
:1015B8006F01D2036E01E802000380020D0A004D9C
:1015C8005943414C4C00424541434F4E0041505A0B
:1015D800005749444532002E2E3A3A7C204578700F
:1015E8006572696D656E74616C2041726475696EAF
:1015F8006F2D41505253207C3A3A2E2E00536B6582
:101608007463683A202020002F686F6D652F686129
:101618006E64696B6F2F41726475696E6F2D4150EE
:1016280052532F41726475696E6F2D536B657463E5
:101638006865732F546573742F415052535F475038
:10164800535F4750524D432F415052535F475053B9
:101658005F4750524D432E696E6F0055706C6F6135
:101668006465643A20004A616E20203220323031AD
:1016780039004750524D4320415052532054726113
:101688006E736D6974746572202D20537461727461
:0816980065642021200A000016
:107E0000112484B714BE81FFF0D085E080938100F7
:107E100082E08093C00088E18093C10086E0809377
:107E2000C20080E18093C4008EE0C9D0259A86E02C
:107E300020E33CEF91E0309385002093840096BBD3
:107E4000B09BFECF1D9AA8958150A9F7CC24DD24C4
:107E500088248394B5E0AB2EA1E19A2EF3E0BF2EE7
:107E6000A2D0813461F49FD0082FAFD0023811F036
:107E7000013811F484E001C083E08DD089C08234E0
:107E800011F484E103C0853419F485E0A6D080C0E4
:107E9000853579F488D0E82EFF2485D0082F10E0AE
:107EA000102F00270E291F29000F111F8ED06801E7
:107EB0006FC0863521F484E090D080E0DECF843638
:107EC00009F040C070D06FD0082F6DD080E0C81688
:107ED00080E7D80618F4F601B7BEE895C0E0D1E017
:107EE00062D089930C17E1F7F0E0CF16F0E7DF06D8
:107EF00018F0F601B7BEE89568D007B600FCFDCFD4
:107F0000A601A0E0B1E02C9130E011968C91119780
:107F100090E0982F8827822B932B1296FA010C0160
:107F200087BEE89511244E5F5F4FF1E0A038BF0790
:107F300051F7F601A7BEE89507B600FCFDCF97BE46
:107F4000E89526C08437B1F42ED02DD0F82E2BD052
:107F50003CD0F601EF2C8F010F5F1F4F84911BD097
:107F6000EA94F801C1F70894C11CD11CFA94CF0C13
:107F7000D11C0EC0853739F428D08EE10CD085E9AC
:107F80000AD08FE07ACF813511F488E018D01DD067
:107F900080E101D065CF982F8091C00085FFFCCF94
:107FA0009093C60008958091C00087FFFCCF809118
:107FB000C00084FD01C0A8958091C6000895E0E648
:107FC000F0E098E1908380830895EDDF803219F02E
:107FD00088E0F5DFFFCF84E1DECF1F93182FE3DFCA
:107FE0001150E9F7F2DF1F91089580E0E8DFEE27F6
:047FF000FF270994CA
:027FFE00040479
:0400000300007E007B
:00000001FF
