:100000000C9463000C948B000C948B000C944607AA
:100010000C9446070C9446070C948B000C948B00B0
:100020000C948B000C948B000C948B000C948B0024
:100030000C948B000C948B000C948B000C948B0014
:100040000C94A4060C948B000C9414070C94EE06EC
:100050000C948B000C948B000C948B000C948B00F4
:100060000C948B000C948B000000000024002700EF
:100070002A0000000008000201000003040700003D
:1000800000000000000000000000230026002900FE
:1000900000000000250028002B00040404040404D0
:1000A0000404020202020202030303030303010227
:1000B00004081020408001020408102001020408F6
:1000C0001020C007960911241FBECFEFD8E0DEBF75
:1000D000CDBF12E0A0E0B1E0EAECF5E102C005908E
:1000E0000D92AE31B107D9F723E0AEE1B2E001C025
:1000F0001D92A13AB207E1F710E0C2E6D0E004C0D9
:100100002197FE010E94CD0AC136D107C9F70E948E
:100110006B080C94D80A0C940000E5EEF2E0A0897C
:10012000B18982E08C93A485B5851C92A685B7859C
:1001300080E18C93108EA489B58986E08C93A28986
:10014000B3898C9180618C93A289B3898C918860EA
:100150008C93A289B3898C9180688C930288F389EF
:10016000E02D80818F7D8083089590E0FC01EE5822
:10017000FF4F2491FC01E255FF4F3491FC01E656FC
:10018000FF4FE491EE2309F43CC0222339F12330E0
:1001900091F038F42130A9F0223001F584B58F7D3B
:1001A00012C0273091F02830A1F02430B9F48091AA
:1001B00080008F7D03C0809180008F7780938000C6
:1001C0000DC084B58F7784BD09C08091B0008F7752
:1001D00003C08091B0008F7D8093B000F0E0EE0FFF
:1001E000FF1FE057FF4FA591B4919FB7F89461119D
:1001F00004C08C913095382302C0EC913E2B3C9387
:100200009FBF0895CF93DF9390E0FC01E255FF4F2D
:100210002491FC01E656FF4F8491882361F190E020
:10022000880F991FFC01E859FF4FC591D491FC013B
:10023000E057FF4FA591B491611109C09FB7F894A1
:100240008881209582238883EC912E230BC0623015
:1002500061F49FB7F8948881322F30958323888387
:10026000EC912E2B2C939FBF06C08FB7F894E8819A
:100270002E2B28838FBFDF91CF9108958230910577
:1002800038F0880F991F880F991F05970197F1F78C
:1002900008953FB7F8948091DD029091DE02A0911D
:1002A000DF02B091E00226B5A89B05C02F3F19F0F0
:1002B0000196A11DB11D3FBFBA2FA92F982F8827E6
:1002C000820F911DA11DB11DBC01CD0142E0660F41
:1002D000771F881F991F4A95D1F708950895CF92E7
:1002E000DF92EF92FF920F931F93CF93DF936C01F6
:1002F0007A018B01C0E0D0E0CE15DF0581F0D80196
:100300006D918D01D601ED91FC910190F081E02D70
:10031000C6010995892B11F02196EECF7E01C70108
:10032000DF91CF911F910F91FF90EF90DF90CF90D1
:100330000895FC01538D448D252F30E0842F90E0EB
:10034000821B930B541710F0CF96089501970895D0
:10035000FC01918D828D981761F0828DDF01A80FCD
:10036000B11D5D968C91928D9F5F9F73928F90E0EF
:1003700008958FEF9FEF0895FC01918D828D98175E
:1003800031F0828DE80FF11D858D90E008958FEF9B
:100390009FEF0895FC01918D228D892F90E0805C64
:1003A0009F4F821B91098F739927089585EE92E0E4
:1003B0000E94CA0121E0892B09F420E0822F0895D0
:1003C000FC01848DDF01A80FB11DA35ABF4F2C91F2
:1003D000848D90E001968F739927848FA689B789C1
:1003E0002C93A089B1898C91837080648C93938DB8
:1003F000848D981306C00288F389E02D80818F7D5B
:1004000080830895EF92FF920F931F93CF93DF9312
:10041000EC0181E0888F9B8D8C8D981305C0E88955
:10042000F989808185FD26C0F62E0B8D10E00F5FC7
:100430001F4F0F731127E02E8C8DE8120CC00FB6E2
:1004400007FCFACFE889F989808185FFF5CFCE01D5
:100450000E94E001F1CF8B8DFE01E80FF11DE35A00
:10046000FF4FF0829FB7F8940B8FEA89FB89808158
:1004700080620AC09FB7F894EE89FF896083E8899B
:10048000F98980818370806480839FBF81E090E0E0
:10049000DF91CF911F910F91FF90EF900895682FFA
:1004A00085EE92E00C940202CF93DF93EC01888DED
:1004B0008823C9F0EA89FB89808185FD05C0A88968
:1004C000B9898C9186FD0FC00FB607FCF5CF8081EE
:1004D00085FFF2CFA889B9898C9185FFEDCFCE0138
:1004E0000E94E001E7CFDF91CF91089580E090E096
:1004F000892B29F00E94D60181110C9400000895E7
:100500002091E3023091E4022817390771F49091A9
:10051000E1028091E202981741F0E091E102F0E0FF
:10052000E05EFD4F808190E008958FEF9FEF08958A
:100530001F93CF93DF93DC015C968D919C915D9727
:10054000009739F421E030E013963C932E931297F4
:100550003BC05196ED91FC91529750962C9150973B
:10056000322F30951FB75E964C915E97742F727044
:1005700041FD6095F8944081772311F0422B01C032
:1005800043234083EC012197F1F748E0508160FF5D
:1005900002C0522B01C053235083EC012197F1F785
:1005A0006695415099F78081772319F083238083E2
:1005B00002C0282B20831FBF5C968D919C915D9774
:1005C0000197F1F781E090E0DF91CF911F910895BD
:1005D0002091E3023091E4022817390771F48091E9
:1005E000E2022091E10290E0805C9F4F821B910922
:1005F00060E470E00E94A50A089580E090E008950C
:100600002091E3023091E40228173907B9F4909160
:10061000E1028091E202981789F0E091E102F0E0B6
:10062000E05EFD4F80812091E10230E02F5F3F4F7F
:100630002F7333272093E10290E008958FEF9FEF0F
:100640000895E091E302F091E402E817F90769F4F4
:10065000A389B4899C918589809589238C93109274
:10066000E4021092E30281E0089580E00895109280
:100670009D0310929C0310929B0310929A03109278
:100680009903109298038DE991E090939F038093D2
:100690009E0390918E03963108F058C02DEB30E008
:1006A00030939903209398032BE931E030939B0317
:1006B00020939A032CE231E030939D0320939C0316
:1006C00040916800983058F031E09E3008F430E0F6
:1006D00021E0822F01C0880F3A95EAF701C084E03B
:1006E000842B80936800983038F09E3040F096312B
:1006F00048F020E030E008C02DE630E005C02BE6F1
:1007000030E002C02CE630E030939603209395034E
:10071000983030F481E001C0880F9A95EAF70EC056
:10072000292F30E09E3018F42850310902C02E5095
:10073000310981E001C0880F2A95EAF78093970379
:1007400080919E0390919F030197F1F780919C0304
:1007500090919D03892B21F18091E3029091E40215
:1007600023E082389207E1F0009711F00E94210304
:100770008091A0038E7F8093A0031092E2021092DA
:10078000E10282E893E09093E4028093E302E09137
:100790009503F0919603908180919703892B808334
:1007A0000895089580E090E0089561E082E00E945D
:1007B000B5008BEC90E00E943E0160E082E00E9478
:1007C000B5008BEC90E00E943E0161E082E00E9467
:1007D000B5008BEC90E00E943E0160E082E00E9458
:1007E000B5008BEC90E00C943E0161E082E00E9449
:1007F000B50086E991E00E943E0160E082E00E943F
:10080000B50086E991E00C943E01EF92FF920F93C0
:100810001F93CF93DF93D82FE62E08E010E0FF243C
:10082000F3944D2F41702091000130910101C901D5
:1008300096958795242720FF04C028E0822724E886
:1008400092279093010180930001C0911F024423DD
:1008500081F0CC2319F00E94F50302C00E94D50359
:1008600080911E028F5F80931E02EE2071F0853012
:1008700061F4CF25C0931F02CC2319F00E94F50329
:1008800002C00E94D50310921E02D6950150110994
:1008900041F6DF91CF911F910F91FF90EF90089556
:1008A000EF92FF920F931F93CF93DF938C017B0105
:1008B000EC01CE01801B910B8E159F052CF461E09D
:1008C00089910E940504F5CFDF91CF911F910F917F
:1008D000FF90EF900895009769F0FC0101900020CF
:1008E000E9F73197AF01481B590BBC0185EE92E047
:1008F0000C946F0180E090E00895CF93DF930E9405
:100900006B04EC018CE291E00E946B048C0F9D1F44
:10091000DF91CF9108950C946B048F929F92AF92C8
:10092000BF92CF92DF92EF92FF920F931F93CF93DC
:10093000DF93CDB7DEB7A1970FB6F894DEBF0FBE39
:10094000CDBF6C01990FEE08FF08F7FE29C08DE2BC
:100950000E944F028C0122273327A9012C193D093F
:100960004E095F0919A2CE0181967C019AE0892E79
:10097000912CA12CB12CCA01B901A50194010E94AE
:10098000740A605DF70162937F012115310541050D
:10099000510589F7CF010E946B04800F911F1DC084
:1009A000A701960119A28E010F5D1F4F8AE0C82E84
:1009B000D12CE12CF12CCA01B901A70196010E94AA
:1009C000740A605DF80162938F01211531054105BC
:1009D000510589F7CF010E946B04A1960FB6F894D8
:1009E000DEBF0FBECDBFDF91CF911F910F91FF9062
:1009F000EF90DF90CF90BF90AF909F908F90089531
:100A0000EF92FF920F931F93CF93C82F0E948D00F8
:100A10008FE291E00E948B048DE20E944F0281E000
:100A200090E00E948D048EE30E944F02C23019F4C0
:100A300086E391E002C08DE391E00E948B048CE29A
:100A40000E944F0281E491E00E948B048DE20E949B
:100A50004F0281E090E00E948D048AE30E944F02E1
:100A6000C13031F484E20E944F0283E792E032C049
:100A7000C33091F481E20E944F028AE692E00E9424
:100A80008B0488E40E944F0280E692E00E948B046F
:100A900081E60E944F0220C0C53021F48EE30E94FF
:100AA0004F0216C0C430A1F481E20E944F028AE6D0
:100AB00092E00E948B0488E40E944F0280E692E05C
:100AC0000E948B0481E60E944F028DE691E002C0F5
:100AD00087E491E00E948B0480E20E944F028CE246
:100AE00091E00E946B0485EE92E00E94540285EE34
:100AF00092E00E945402E091F702F091F8028081A6
:100B00008F7E8083E091F702F091F8028081877FE9
:100B10008083E091F702F091F80280818F778083E3
:100B2000E091F702F091F80280818F7D80838091BF
:100B3000FF028093FE0261E08DE00E94B50004E6B2
:100B400010E060E08EE70E94050401501109C9F72A
:100B50008FEF9FEF9093010180930001C23071F4F9
:100B600006E311E0F80181918F0161E0880F0E9496
:100B70000504F1E00C331F07A9F719C00DE311E0DC
:100B8000F80181918F0161E0880F0E940504F1E076
:100B900000341F07A9F761E080E40E94050461E0CA
:100BA00080E40E94050461E080E40E94050461E0A5
:100BB00080E60E9405040FE211E0F80181918F01A7
:100BC00061E0880F0E940504F1E005331F07A9F7D3
:100BD00061E082E60E94050401E411E086E4E82E6B
:100BE00081E0F82EF80181918F0161E0880F0E9469
:100BF0000504E016F106B1F761E080E40E94050407
:100C000061E083E60E94050461E083E00E94050440
:100C100061E080EF0E940504C13079F461E084E274
:100C20000E940504E3E7F2E001900020E9F7BF012C
:100C30006557724083E792E061C0C33039F561E0E7
:100C400081E20E940504EAE6F2E001900020E9F763
:100C50003197BF016A5672408AE692E00E945004C2
:100C600061E088E40E940504E0E6F2E001900020E3
:100C7000E9F73197BF016056724080E692E00E942A
:100C8000500461E081E60E9405043AC0C53029F4B1
:100C900061E08EE30E9405042DC0C43059F561E087
:100CA00081E20E940504EAE6F2E001900020E9F703
:100CB0003197BF016A5672408AE692E00E94500462
:100CC00061E088E40E940504E0E6F2E00190002083
:100CD000E9F73197BF016056724080E692E00E94CA
:100CE000500461E081E60E94050466E170E08DE653
:100CF00091E004C065E270E087E491E00E94500456
:100D000080910001C091010161E080950E9405047D
:100D100061E08C2F80950E94050460E08EE70E94C0
:100D2000050460E08EE70E94050460E08EE70E9403
:100D3000050460E08DE0CF911F910F91FF90EF903F
:100D40000C94B5000E94D30A1F920F920FB60F9217
:100D500011242F933F938F939F93AF93BF938091D1
:100D6000D9029091DA02A091DB02B091DC023091BD
:100D7000D80223E0230F2D3720F40196A11DB11DC9
:100D800005C026E8230F0296A11DB11D2093D802AD
:100D90008093D9029093DA02A093DB02B093DC0235
:100DA0008091DD029091DE02A091DF02B091E0021D
:100DB0000196A11DB11D8093DD029093DE02A093E8
:100DC000DF02B093E002BF91AF919F918F913F916D
:100DD0002F910F900FBE0F901F9018951F920F929A
:100DE0000FB60F9211242F933F934F935F936F93FE
:100DF0007F938F939F93AF93BF93EF93FF9385EE72
:100E000092E00E94E001FF91EF91BF91AF919F911D
:100E10008F917F916F915F914F913F912F910F90A3
:100E20000FBE0F901F9018951F920F920FB60F9242
:100E300011242F938F939F93EF93FF93E091F502EB
:100E4000F091F6028081E091FB02F091FC0282FDBC
:100E500012C090818091FE028F5F8F732091FF02FC
:100E6000821751F0E091FE02F0E0EB51FD4F958FBB
:100E70008093FE0201C08081FF91EF919F918F913D
:100E80002F910F900FBE0F901F9018951F920F92E9
:100E90000FB60F9211242F933F934F935F936F934D
:100EA0007F938F939F93AF93BF93EF93FF93E091C3
:100EB000E302F091E402309709F451C0968DA685C3
:100EC000B785858591FF04C09C91892329F447C08B
:100ED0009C91892309F043C0A389B4899C91858999
:100EE000809589238C93868997890197F1F7608D86
:100EF000718DA685B785558538E020E0CB01019737
:100F0000F1F7822F90E095958795282F4C914523F6
:100F100009F02068315091F7868D81FD20958091F0
:100F2000E20290E001968F7399273091E102381721
:100F300049F0A091E202B0E0A05EBD4F2C938093F7
:100F4000E20203C0868D8160868F828D938D01972A
:100F5000F1F7A389B4899C918589892B8C93FF91A2
:100F6000EF91BF91AF919F918F917F916F915F9121
:100F70004F913F912F910F900FBE0F901F9018959A
:100F80001092E8021092E70288EE93E0A0E0B0E051
:100F90008093E9029093EA02A093EB02B093EC02F3
:100FA0002CE031E03093E6022093E50225EC30E0BE
:100FB0003093F2022093F10224EC30E03093F402FB
:100FC0002093F30220EC30E03093F6022093F502F8
:100FD00021EC30E03093F8022093F70222EC30E06D
:100FE0003093FA022093F90226EC30E03093FC02B1
:100FF0002093FB021092FE021092FF021092000357
:10100000109201031092850310928403809386034B
:1010100090938703A0938803B09389038EE191E0B6
:101020009093830380938203109299031092980304
:1010300010929B0310929A0310929D0310929C03AE
:1010400010929F0310929E036091A0036E7F6D7FAC
:101050006093A0036695617081E0682789E00E9433
:10106000B50061E089E00E940201E7EBF0E0E49165
:10107000E0939203E3EAF0E0E491F0E0EE0FFF1F6B
:10108000E057FF4F8591949190939403809393033D
:1010900060E088E00E9402018091A00381FD04C00D
:1010A00061E088E00E94B50088E080938E03E6EB63
:1010B000F0E0E491E0938F03E2EAF0E0E491F0E005
:1010C000EE0FFF1FEA57FF4F859194919093910384
:1010D000809390030895789484B5826084BD84B52C
:1010E000816084BD85B5826085BD85B5816085BD23
:1010F00080916E00816080936E00109281008091DB
:101100008100826080938100809181008160809362
:101110008100809180008160809380008091B10087
:1011200084608093B1008091B00081608093B000B2
:1011300080917A00846080937A0080917A00826046
:1011400080937A0080917A00816080937A00809108
:101150007A00806880937A001092C10061E08DE08F
:101160000E94020161E082E00E9402010E948D0063
:101170000E9437038DE891E00E947D0484E891E0AD
:101180000E948B048FE891E00E947D0482EE91E042
:101190000E948B048DEE91E00E947D048DE891E029
:1011A0000E947D0489EF91E00E947D0487ED282E46
:1011B00082E0382E01E712E090EA492E9FE0592E96
:1011C000612C712C0E9437031092D702E3E7F2E002
:1011D00011922E163F06E1F782E893E00E94E802A2
:1011E00018161906CCF782E893E00E940003F82E47
:1011F00024E28213F1CFC0E0D0E082E893E00E94C5
:10120000E8021816190654F482E893E00E940003DD
:10121000F82EFE01ED58FD4F80832196C530D10593
:1012200021F480917702833449F48AE0F81202C0F5
:10123000C15005C02DE0F212E0CFFACFC0E0C0935C
:10124000D70282E893E00E942103A5E8B2E0EAE633
:10125000F2E08D9181930E171F07D9F780919002CC
:1012600080937102A2E9B2E0E0E6F2E08D91819311
:1012700082E0E836F807D1F780919E0280936802F9
:1012800080918302813469F4CB3084F00E94EB09B1
:1012900025E030E040E050E00E94420A81E0860F05
:1012A00003C0CB301CF082E00E940005C090020118
:1012B000D0900301E12CF12C0E9449014B015C010B
:1012C000C114D104E104F104F1F00E944901DC01F0
:1012D000CB0188199909AA09BB09883E9340A10549
:1012E000B10570F321E0C21AD108E108F10888EED7
:1012F000880E83E0981EA11CB11CC114D104E10426
:10130000F10419F7DDCF0E94EB09A30192010E94BD
:10131000420ADC01CB0188519C4FAF4FBF4F9093E5
:101320000301809302010E9476024CCF8EE191E08E
:10133000909383038093820382E893E00C942103CB
:101340008F929F92AF92BF92CF92DF92EF92FF92D5
:10135000CF93DF93EC01688179818A819B8161154C
:1013600071058105910521F464E279ED8BE597E043
:101370002DE133EF41E050E00E94420A49015A0159
:101380009B01AC01A7EAB1E40E94610A6B017C01F8
:10139000ACEEB4EFA50194010E946F0ADC01CB0111
:1013A0008C0D9D1DAE1DBF1DB7FF03C00197A10988
:1013B000B04888839983AA83BB83BC01CD019F7702
:1013C000DF91CF91FF90EF90DF90CF90BF90AF90E3
:1013D0009F908F9008958F929F92AF92BF92CF92DD
:1013E000DF92EF92FF92609104017091050180916C
:1013F000060190910701611571058105910521F4A0
:1014000064E279ED8BE597E02DE133EF41E050E0C8
:101410000E94420A49015A019B01AC01A7EAB1E4CA
:101420000E94610A6B017C01ACEEB4EFA50194014E
:101430000E946F0ADC01CB018C0D9D1DAE1DBF1DEE
:10144000B7FF03C00197A109B048809304019093AE
:101450000501A0930601B0930701BC01CD019F7760
:10146000FF90EF90DF90CF90BF90AF909F908F90C4
:101470000895609304017093050180930601909391
:1014800007010895052E97FB1EF400940E94590A47
:1014900057FD07D00E94740A07FC03D04EF40C9449
:1014A000590A50954095309521953F4F4F4F5F4FCA
:1014B000089590958095709561957F4F8F4F9F4FC0
:1014C00008950E94960AA59F900DB49F900DA49F29
:1014D000800D911D11240895B7FF0C94610A0E949C
:1014E000610A821B930B0895A1E21A2EAA1BBB1B53
:1014F000FD010DC0AA1FBB1FEE1FFF1FA217B307E0
:10150000E407F50720F0A21BB30BE40BF50B661FF5
:10151000771F881F991F1A9469F7609570958095B9
:1015200090959B01AC01BD01CF010895A29FB00130
:10153000B39FC001A39F700D811D1124911DB29F07
:10154000700D811D1124911D089597FB072E16F42F
:10155000009407D077FD09D00E94B90A07FC05D096
:101560003EF4909581959F4F0895709561957F4FBA
:101570000895AA1BBB1B51E107C0AA1FBB1FA617DA
:10158000B70710F0A61BB70B881F991F5A95A9F72C
:1015900080959095BC01CD010895EE0FFF1F059039
:1015A000F491E02D099481E090E0F8940C94D80A2D
:1015B00010E0C2E6D0E004C0FE010E94CD0A2196F0
:0A15C000C336D107C9F7F894FFCF36
:1015CA00FFFF8813010000000000000002026F0103
:1015DA0099015402CA01A801BC0100000000980246
:1015EA006F01D2036E01E802000380020D0A00595E
:1015FA00443153444C00424541434F4E0041505AF6
:10160A00005749444532002E2E3A3A7C20457870DC
:10161A006572696D656E74616C2041726475696E7C
:10162A006F2D41505253207C3A3A2E2E007777770D
:10163A002E6769746875622E636F6D2F68616E64B8
:10164A00696B6F00536B657463683A202020002F22
:10165A00686F6D652F68616E64696B6F2F41726484
:10166A0075696E6F2D415052532F41726475696EC0
:10167A006F2D536B6574636865732F546573742F8C
:10168A00415052535F4750535F4750524D432F4189
:10169A005052535F4750535F4750524D432E696E25
:1016AA006F0055706C6F616465643A20004A616E20
:1016BA002020322032303139004750524D432041E8
:1016CA00505253205472616E736D6974746572203E
:0E16DA002D20537461727465642021200A0073
:107E0000112484B714BE81FFF0D085E080938100F7
:107E100082E08093C00088E18093C10086E0809377
:107E2000C20080E18093C4008EE0C9D0259A86E02C
:107E300020E33CEF91E0309385002093840096BBD3
:107E4000B09BFECF1D9AA8958150A9F7CC24DD24C4
:107E500088248394B5E0AB2EA1E19A2EF3E0BF2EE7
:107E6000A2D0813461F49FD0082FAFD0023811F036
:107E7000013811F484E001C083E08DD089C08234E0
:107E800011F484E103C0853419F485E0A6D080C0E4
:107E9000853579F488D0E82EFF2485D0082F10E0AE
:107EA000102F00270E291F29000F111F8ED06801E7
:107EB0006FC0863521F484E090D080E0DECF843638
:107EC00009F040C070D06FD0082F6DD080E0C81688
:107ED00080E7D80618F4F601B7BEE895C0E0D1E017
:107EE00062D089930C17E1F7F0E0CF16F0E7DF06D8
:107EF00018F0F601B7BEE89568D007B600FCFDCFD4
:107F0000A601A0E0B1E02C9130E011968C91119780
:107F100090E0982F8827822B932B1296FA010C0160
:107F200087BEE89511244E5F5F4FF1E0A038BF0790
:107F300051F7F601A7BEE89507B600FCFDCF97BE46
:107F4000E89526C08437B1F42ED02DD0F82E2BD052
:107F50003CD0F601EF2C8F010F5F1F4F84911BD097
:107F6000EA94F801C1F70894C11CD11CFA94CF0C13
:107F7000D11C0EC0853739F428D08EE10CD085E9AC
:107F80000AD08FE07ACF813511F488E018D01DD067
:107F900080E101D065CF982F8091C00085FFFCCF94
:107FA0009093C60008958091C00087FFFCCF809118
:107FB000C00084FD01C0A8958091C6000895E0E648
:107FC000F0E098E1908380830895EDDF803219F02E
:107FD00088E0F5DFFFCF84E1DECF1F93182FE3DFCA
:107FE0001150E9F7F2DF1F91089580E0E8DFEE27F6
:047FF000FF270994CA
:027FFE00040479
:0400000300007E007B
:00000001FF
