:100000000C945C000C9479000C9479000C947900A9
:100010000C9479000C9479000C9479000C9479007C
:100020000C9479000C9479000C9479000C9479006C
:100030000C9479000C9479000C9479000C9479005C
:100040000C945E010C9479000C9479000C94790066
:100050000C9479000C9479000C9479000C9479003C
:100060000C9479000C947900000000002400270013
:100070002A0000000000250028002B0004040404CE
:100080000404040402020202020203030303030342
:10009000010204081020408001020408102001021F
:1000A00004081020000000080002010000030407FB
:1000B000000000000000000011241FBECFEFD8E0B8
:1000C000DEBFCDBF12E0A0E0B1E0EEEEF7E002C08F
:1000D00005900D92AE3BB107D9F722E0AEEBB2E04E
:1000E00001C01D92A73CB207E1F70E94A8010C9441
:1000F000F5030C94000090E0FC01EC55FF4F2491B7
:10010000FC01E057FF4F3491FC01E458FF4FE491AC
:10011000EE2309F43CC0222339F1233091F038F466
:100120002130A9F0223001F584B58F7D12C027302F
:1001300091F02830A1F02430B9F4809180008F7DB7
:1001400003C0809180008F77809380000DC084B5BC
:100150008F7784BD09C08091B0008F7703C08091F4
:10016000B0008F7D8093B000F0E0EE0FFF1FEE58DF
:10017000FF4FA591B4919FB7F894611104C08C9181
:100180003095382302C0EC913E2B3C939FBF0895DD
:100190000F931F93CF93DF93EC0161E087E00E9400
:1001A0007B00BE0180E090E00E94FA0229EE36E278
:1001B00041E05FE30E94880320E030E040E251E448
:1001C0000E9459020E94CB028B01660F771F660FB7
:1001D000771FEB0125978AE090E00230110518F0B7
:1001E000FE013197F1F70197C1F760E087E00E94C7
:1001F0007B008AE090E00230110518F0FE01319793
:10020000F1F70197C1F7DF91CF911F910F910895F9
:100210003FB7F8948091C3029091C402A091C502A7
:10022000B091C60226B5A89B05C02F3F19F00196D4
:10023000A11DB11D3FBFBA2FA92F982F8827820F6C
:10024000911DA11DB11DBC01CD0142E0660F771FBC
:10025000881F991F4A95D1F70895813019F481E4D8
:1002600093E006C080EA91E00E94C80080EA91E035
:100270000C94C8000F931F93CF93DF93C0E0D0E09E
:10028000082F10E0C8010C2E02C0959587950A949E
:10029000E2F780FD06C08091000180958093000107
:1002A00002C0809100010E942D012196C830D10525
:1002B00049F7DF91CF911F910F9108951F920F92EF
:1002C0000FB60F9211242F933F938F939F93AF9369
:1002D000BF938091BF029091C002A091C102B091E2
:1002E000C2023091BE0223E0230F2D3720F4019685
:1002F000A11DB11D05C026E8230F0296A11DB11D49
:100300002093BE028093BF029093C002A093C102CB
:10031000B093C2028091C3029091C402A091C50221
:10032000B091C6020196A11DB11D8093C3029093A6
:10033000C402A093C502B093C602BF91AF919F9132
:100340008F913F912F910F900FBE0F901F90189596
:10035000789484B5826084BD84B5816084BD85B5A0
:10036000826085BD85B5816085BD80916E008160AC
:1003700080936E0010928100809181008260809352
:100380008100809181008160809381008091800054
:100390008160809380008091B10084608093B1007F
:1003A0008091B00081608093B00080917A00846079
:1003B00080937A0080917A00826080937A008091A5
:1003C0007A00816080937A0080917A0080688093BF
:1003D0007A001092C100E7E9F0E02491E3E8F0E050
:1003E0008491882399F090E0880F991FFC01E859C7
:1003F000FF4FA591B491FC01EE58FF4F8591949168
:100400008FB7F894EC91E22BEC938FBFCEEBD2E058
:1004100000E010E036E9E32EF12C8EE70E943A016D
:1004200021E0E21AF108C9F721E0E22E21E0F22EE4
:10043000CE15DF0531F0F70181917F010E943A016D
:10044000F7CF99E1E92EF12C8EE70E943A01F1E015
:10045000EF1AF108C9F70E9408014B015C0188EE10
:10046000C82E83E0D82EE12CF12C0E940801DC017B
:10047000CB0188199909AA09BB09883E9340A105B7
:10048000B10598F321E0C21AD108E108F10888EE1D
:10049000880E83E0981EA11CB11CC114D104E10494
:1004A000F10419F70115110509F4B4CF0E940000F9
:1004B000B1CF0E946D020C944E030E94470358F086
:1004C0000E94400340F029F45F3F29F00C94370369
:1004D00051110C9482030C943D030E945F0368F356
:1004E0009923B1F3552391F3951B550BBB27AA27ED
:1004F00062177307840738F09F5F5F4F220F331F27
:10050000441FAA1FA9F335D00E2E3AF0E0E832D0EE
:1005100091505040E695001CCAF72BD0FE2F29D0F1
:10052000660F771F881FBB1F261737074807AB07C3
:10053000B0E809F0BB0B802DBF01FF2793585F4F38
:100540003AF09E3F510578F00C9437030C948203E7
:100550005F3FE4F3983ED4F3869577956795B7951A
:10056000F7959F5FC9F7880F911D9695879597F925
:100570000895E1E0660F771F881FBB1F621773079E
:100580008407BA0720F0621B730B840BBA0BEE1FB3
:1005900088F7E09508950E94670388F09F5798F0C8
:1005A000B92F9927B751B0F0E1F0660F771F881F78
:1005B000991F1AF0BA95C9F714C0B13091F00E9492
:1005C0008103B1E008950C948103672F782F882769
:1005D000B85F39F0B93FCCF3869577956795B395B9
:1005E000D9F73EF490958095709561957F4F8F4F28
:1005F0009F4F0895E89409C097FB3EF4909580952D
:10060000709561957F4F8F4F9F4F9923A9F0F92FD8
:1006100096E9BB279395F695879577956795B79556
:10062000F111F8CFFAF4BB0F11F460FF1BC06F5F3C
:100630007F4F8F4F9F4F16C0882311F096E911C04E
:10064000772321F09EE8872F762F05C0662371F06F
:1006500096E8862F70E060E02AF09A95660F771F83
:10066000881FDAF7880F9695879597F9089597F977
:100670009F6780E870E060E008959FEF80EC089548
:1006800000240A9416161706180609060895002471
:100690000A9412161306140605060895092E0394EB
:1006A000000C11F4882352F0BB0F40F4BF2B11F45F
:1006B00060FF04C06F5F7F4F8F4F9F4F089557FDBE
:1006C0009058440F551F59F05F3F71F04795880FC0
:1006D00097FB991F61F09F3F79F087950895121657
:1006E00013061406551FF2CF4695F1DF08C0161603
:1006F00017061806991FF1CF8695710561050894B4
:100700000895E894BB2766277727CB0197F90895CA
:100710000E949B030C944E030E94400338F00E94F9
:10072000470320F0952311F00C9437030C943D03FC
:1007300011240C9482030E945F0370F3959FC1F310
:10074000950F50E0551F629FF001729FBB27F00D7F
:10075000B11D639FAA27F00DB11DAA1F649F6627D4
:10076000B00DA11D661F829F2227B00DA11D621F23
:10077000739FB00DA11D621F839FA00D611D221FDD
:10078000749F3327A00D611D231F849F600D211DC1
:10079000822F762F6A2F11249F5750409AF0F1F044
:1007A00088234AF0EE0FFF1FBB1F661F771F881FAD
:1007B00091505040A9F79E3F510580F00C943703AB
:1007C0000C9482035F3FE4F3983ED4F386957795CB
:1007D0006795B795F795E7959F5FC1F7FE2B880F53
:0E07E000911D9695879597F90895F894FFCF8F
:1007EE00014C6F72656D20697073756D20646F6C4E
:1007FE006F722073697420616D65742C20636F6E47
:10080E00736563746574757220616469706973636E
:10081E00696E6720656C69742C2073656420646F43
:10082E0020656975736D6F642074656D706F7220CD
:10083E00696E6369646964756E74207574206C6189
:10084E00626F726520657420646F6C6F7265206DC7
:10085E0061676E6120616C697175612E205574201F
:10086E00656E696D206164206D696E696D207665B7
:10087E006E69616D2C2071756973206E6F73747261
:10088E00756420657865726369746174696F6E2032
:10089E00756C6C616D636F206C61626F7269732031
:1008AE006E69736920757420616C69717569702049
:1008BE00657820656120636F6D6D6F646F20636F67
:1008CE006E7365717561742E204475697320617540
:1008DE00746520697275726520646F6C6F72206921
:1008EE006E20726570726568656E646572697420DB
:1008FE00696E20766F6C7570746174652076656CA8
:10090E00697420657373652063696C6C756D206402
:10091E006F6C6F72652065752066756769617420EE
:10092E006E756C6C612070617269617475722E20C7
:10093E004578636570746575722073696E74206F87
:10094E00636361656361742063757069646174616A
:10095E0074206E6F6E2070726F6964656E742C20D9
:10096E0073756E7420696E2063756C70612071757D
:10097E0069206F6666696369612064657365727567
:10098E006E74206D6F6C6C697420616E696D206978
:0E099E006420657374206C61626F72756D0069
:107E0000112484B714BE81FFF0D085E080938100F7
:107E100082E08093C00088E18093C10086E0809377
:107E2000C20080E18093C4008EE0C9D0259A86E02C
:107E300020E33CEF91E0309385002093840096BBD3
:107E4000B09BFECF1D9AA8958150A9F7CC24DD24C4
:107E500088248394B5E0AB2EA1E19A2EF3E0BF2EE7
:107E6000A2D0813461F49FD0082FAFD0023811F036
:107E7000013811F484E001C083E08DD089C08234E0
:107E800011F484E103C0853419F485E0A6D080C0E4
:107E9000853579F488D0E82EFF2485D0082F10E0AE
:107EA000102F00270E291F29000F111F8ED06801E7
:107EB0006FC0863521F484E090D080E0DECF843638
:107EC00009F040C070D06FD0082F6DD080E0C81688
:107ED00080E7D80618F4F601B7BEE895C0E0D1E017
:107EE00062D089930C17E1F7F0E0CF16F0E7DF06D8
:107EF00018F0F601B7BEE89568D007B600FCFDCFD4
:107F0000A601A0E0B1E02C9130E011968C91119780
:107F100090E0982F8827822B932B1296FA010C0160
:107F200087BEE89511244E5F5F4FF1E0A038BF0790
:107F300051F7F601A7BEE89507B600FCFDCF97BE46
:107F4000E89526C08437B1F42ED02DD0F82E2BD052
:107F50003CD0F601EF2C8F010F5F1F4F84911BD097
:107F6000EA94F801C1F70894C11CD11CFA94CF0C13
:107F7000D11C0EC0853739F428D08EE10CD085E9AC
:107F80000AD08FE07ACF813511F488E018D01DD067
:107F900080E101D065CF982F8091C00085FFFCCF94
:107FA0009093C60008958091C00087FFFCCF809118
:107FB000C00084FD01C0A8958091C6000895E0E648
:107FC000F0E098E1908380830895EDDF803219F02E
:107FD00088E0F5DFFFCF84E1DECF1F93182FE3DFCA
:107FE0001150E9F7F2DF1F91089580E0E8DFEE27F6
:047FF000FF270994CA
:027FFE00040479
:0400000300007E007B
:00000001FF
